:020000040800F2
:100000007807002089010008D9130008871000082C
:100010004D1200088F020008431A0008000000007B
:10002000000000000000000000000000831700082E
:1000300091020008000000008117000885170008E1
:10004000A3010008A3010008A3010008A301000800
:10005000A3010008A3010008A3010008A3010008F0
:1000600093020008A301000899020008A3010008F8
:10007000A3010008A3010008A3010008A3010008D0
:10008000A3010008A3010008A3010008A3010008C0
:10009000A3010008A3010008A3010008A3010008B0
:1000A000A3010008A3010008A3010008A3010008A0
:1000B000E9170008F5170008A3010008A3010008CC
:1000C000A3010008A3010008A3010008A301000880
:1000D000A3010008A3010008A3010008A301000870
:1000E000A3010008A3010008A301000800F002F822
:1000F00000F03AF80AA090E8000C82448344AAF188
:100100000107DA4501D100F02FF8AFF2090EBAE885
:100110000F0013F0010F18BFFB1A43F0010318473B
:100120005C2400007C240000103A24BF78C878C109
:10013000FAD8520724BF30C830C144BF04680C60ED
:10014000704700000023002400250026103A28BF35
:1001500078C1FBD8520728BF30C148BF0B60704739
:100160001FB51FBD10B510BD00F058F81146FFF7C0
:10017000F7FF01F077FC00F076F803B4FFF7F2FF29
:1001800003BC00F07DF8000009488047094800479B
:10019000FEE7FEE7FEE7FEE7FEE7FEE7FEE7FEE737
:1001A000FEE7FEE704480549054A064B7047000094
:1001B000E7170008ED00000878010020780700200C
:1001C00078030020780300204FF0000200B51346AA
:1001D00094469646203922BFA0E80C50A0E80C5067
:1001E000B1F12001BFF4F7AF090728BFA0E80C5018
:1001F00048BF0CC05DF804EB890028BF40F8042B11
:1002000008BF704748BF20F8022B11F0804F18BF7D
:1002100000F8012B7047704770477047754600F033
:100220002BF8AE4605006946534620F00700854688
:1002300018B020B5FFF7B6FFBDE820404FF000062C
:100240004FF000074FF000084FF0000B21F00701BE
:10025000AC46ACE8C009ACE8C009ACE8C009ACE801
:10026000C0098D46704710B50446AFF300802046A4
:10027000BDE81040FFF781BF00487047180100201B
:1002800001491820ABBEFEE7260002007047FEE7DA
:100290007047042000F018B8102000F015B872B6AE
:1002A000FEE7000010B50146054800F009F90549D0
:1002B0000028086801D0401E00E0401C086010BD06
:1002C0000008014010000020044910B50A680242ED
:1002D00002D00860FFF7E6FF10BD000014040140E3
:1002E0002DE9F84FDFF8B8910024A9F1040B23465B
:1002F0000F2709F1040AABF1040EC9E00125A5405E
:100300002A40AA427DD1674ED1F804C0ACEB060862
:10031000B44532D014DCBCF1030F3AD009DCBCF197
:10032000000F2AD0BCF1010F1CD0BCF1020F31D15B
:100330001DE0BCF1110F17D0BCF1120F2AD119E04A
:10034000B8F5881F19D006DCB8F5803F15D0B8F590
:10035000801F1FD111E0B8F5001F0ED0B8F5041FA3
:1003600018D10AE0CB6815E0CB681B1D12E0CB6802
:1003700008330FE0CB680C330CE08B682BB1012BFA
:100380004FF0080303D0456104E0042302E0056157
:1003900000E00023FF2A01D8064601E000F1040630
:1003A0004FEA840501D9A5F12005D6F8008007FAA7
:1003B00005FC28EA0C0803FA05F548EA0508C6F822
:1003C00000804D68ED0062D5374DAE6946F00106FC
:1003D000AE61AD6924F0030605F001050095334DCB
:1003E00006EB050CDCF80850A607360F07FA06F8EE
:1003F00025EA0805DFF8B880404503D14FF0000832
:1004000017E044E0DFF8AC80404502D14FF001082E
:100410000FE0DFF8A480404502D14FF0020808E069
:10042000DFF89880404502D14FF0030801E04FF01B
:10043000040808FA06F848EA0508CCF808804D6870
:10044000D9F80060ED024D4601D5164300E0964311
:100450002E604D68DAF80060AD02554601D51643AE
:1004600000E096432E604D68DBF80060AD035D460A
:1004700001D5164300E096432E604D68DEF800601B
:10048000ED03754601D5164300E096432E60641CCB
:100490000D682A46E5407FF431AFBDE8F88F0000D3
:1004A000080401400000111000100240000001404B
:1004B00000080140000C0140001001400014014000
:1004C0008068084000D0012070470AB10161704780
:1004D0000904FBE701488068704700000000002025
:1004E0000248816802781144816070470000002052
:1004F000074810B5016841F010010160032000F0C9
:1005000075F80F2000F006F800F024F8002010BD68
:100510000020024070B50D4D04464FF47A712878E2
:10052000B1FBF0F00A490968B1FBF0F000F0BCFA49
:1005300048B9102C07D200222146501E00F036F890
:1005400000206C6070BD012070BD00000000002024
:100550000C0000200C4808B5816941F0010181615F
:10056000816901F001010091C16941F08051C161CF
:10057000C06900F0805000900448416821F0E061BB
:1005800041F00071416008BD0010024000000140D0
:10059000002809DB00F01F02012191404009800082
:1005A00000F1E020C0F8001170470000F0B40E4BDD
:1005B0001B680C46C3F30223C3F10705042D00D9C1
:1005C0000425191D072901D2002300E0DB1E0126A6
:1005D00006FA05F1491E214099409E40761E1640BC
:1005E0003143F0BC01F02EBA0CED00E0064900F0FA
:1005F000070208684FF6FF03184040EA0220034A4A
:1006000010430860704700000CED00E00000FA05A0
:100610002DE9F0470F46050061D0434E306800F0E9
:100620000700B84209D2306820F007003843306034
:10063000306800F00700B84251D128683B4C810770
:1006400012D5400703D5606840F4E0606060287808
:10065000000703D5606840F4605060606068A96876
:1006600020F0F000084360602878C00728D0686850
:10067000012810D02168022810D0890700292EDA1D
:10068000616821F0030101436160FFF723FF8046A9
:1006900041F288390DE021688903EFE78901EDE730
:1006A000FFF718FFA0EB0801494502D90320BDE878
:1006B000F0876068696800F00C00B0EB810FEFD143
:1006C000306800F00700B8420BD9306820F007000E
:1006D00038433060306800F00700B84201D0012094
:1006E000E5E72878400705D56068E96820F4E06010
:1006F000084360602878000706D56068296920F4FF
:10070000605040EAC100606000F018F86168084A73
:10071000C1F30311515CC8400649086006480068EF
:10072000FFF7F8FE0020C2E7002002400010024060
:100730007C1F00080C000020040000200E4A5168B5
:100740000E4801F00C03042B11D0082B0FD10C48DC
:10075000C1F38343C903C05C0AD55168084AC1F399
:100760004041921E515C054A5043B0FBF1F0704786
:1007700004494843704700000010024000127A000C
:100780006C1F000800093D002DE9F84F040070D0EF
:100790002078C04DC00749D06868C0F381000128A7
:1007A00007D06868C0F38100022809D16868C003D7
:1007B00006D52868800339D560680028E7D035E081
:1007C0006068B0F5803F0BD010B1B0F5A02F11D00C
:1007D000286820F480302860286820F4802002E017
:1007E000286840F480302860606890B1FFF772FE9E
:1007F00006460AE0286840F480202860F0E700BF41
:10080000FFF768FE801B642873D828688003F7D53B
:100810000CE0FFF75FFE064605E000BFFFF75AFE5B
:10082000801B6428F0D828688003F7D420789A4E7B
:1008300080074FF001094FF0000839D5686810F0C3
:100840000C0F07D06868C0F38100022809D16868DE
:10085000C00306D42868800714D52069012808D170
:1008600010E02069B0B1C6F80090FFF733FE0746EC
:1008700005E00AE1FFF72EFEC01B0228C4D8286855
:100880008007F7D52868616920F0F80040EAC100C8
:1008900028600DE0C6F80080FFF71CFE074604E064
:1008A000FFF718FEC01B022823D828688007F7D45A
:1008B000207800072CD57948A169D9B1C0F80090FB
:1008C000FFF708FE074604E0FFF704FEC01B0228FE
:1008D0000FD8686A8007F7D571484FF4FA5100685D
:1008E000B0FBF1F0009000BF0098411E0091FAD2D9
:1008F0000EE080E0C0F80080FFF7ECFD074604E062
:10090000FFF7E8FDC01B022875D8686A8007F7D496
:100910002078400760D5E8690027C00008D4E8695E
:1009200040F08050E861E869012700F080500090B5
:100930005C480168C90513D40168834641F480719D
:100940000160FFF7C7FD824606E000BFFFF7C2FD6A
:10095000A0EB0A0064284ED8DBF80000C005F5D5EE
:10096000E06801280AD008B1052813D0286A20F0D1
:1009700001002862286A20F0040002E0286A40F0A2
:1009800001002862E06841F2883B98B1FFF7A2FDC0
:1009900082460BE0286A40F004002862EEE700BFC0
:1009A000FFF798FDA0EB0A0159455AD8286A80073D
:1009B000F6D50CE0FFF78EFD824605E0FFF78AFDD5
:1009C000A0EB0A0159454CD8286A8007F6D41FB11C
:1009D000E86920F08050E861E06988B36968C1F394
:1009E0008101022944D00228C6F8608004D0FFF7B4
:1009F00071FD044638E034E0FFF76CFD074604E083
:100A0000FFF768FDC01B02282BD828688001F7D4A7
:100A1000206AB0F5803F05D16868A16820F40030F5
:100A200008436860D4E908010843696821F4741137
:100A300008436860C6F86090FFF74CFD044606E086
:100A400025E000BFFFF746FD001B022809D82868F3
:100A50008001F7D51BE000BFFFF73CFD001B02281B
:100A600002D90320BDE8F88F28688001F4D40EE095
:100A70000128F7D06868226A00F48031914204D1DD
:100A8000616A00F47010884201D00120EAE700207A
:100A9000E8E70000001002400000424280044242A9
:100AA0000C0000200070004010B5401EB0F1807FA7
:100AB00001D3012010BD4FF0E02460610F216017C9
:100AC00000F0C0FF0020A06107202061002010BDC1
:100AD0007047704770B590F83C20012A26D0012459
:100AE00080F83C40022280F83D2003685A689D68E7
:100AF00022F070060A6832435A600D4B02689A422F
:100B000008D0B2F1804F05D00A4B9A4202D00A4B6E
:100B10009A4204D1496825F080031943916080F816
:100B20003D40002180F83C10084670BD022070BD99
:100B3000002C0140000400400008004010B50400F3
:100B400003D094F83D0010B107E0012010BD002053
:100B500084F83C00204600F01FF8022084F83D0095
:100B6000211D206800F04CFE012084F8460084F826
:100B70003E0084F83F0084F8400084F8410084F887
:100B8000420084F8430084F8440084F8450084F867
:100B90003D00002010BD000008B501681448B1F107
:100BA000804F14D0134A914220D1C16941F0020113
:100BB000C161C069002200F00200009011461D20B2
:100BC000FFF7F4FC1D20BDE80840FFF7E1BCC16958
:100BD00041F00101C161C069002200F001000090F4
:100BE00011461C20FFF7E2FC1C20ECE708BD0000CA
:100BF000001002400004004090F83D10012901D08F
:100C000001207047022180F83D100168CA6842F057
:100C10000102CA6000680B49884208D0B0F1804FD9
:100C200005D00949884202D00849884204D1816828
:100C300001F00701062903D0016841F001010160BC
:100C400000207047002C01400004004000080040D4
:100C500070B5044690F83C000025012817D0012605
:100C600084F83C60022084F83D002068826822F00D
:100C7000770222F47F4282600868502838D00DDC69
:100C800020284FD005DC90B3102811D14AE0022073
:100C900070BD302846D040280AD13BE060282FD0D4
:100CA00070280DD0B0F5805F03D0B0F5005F12D092
:100CB000012584F83D60002084F83C00284670BD82
:100CC000CB68D1E90121206800F0E3FD206881684C
:100CD00041F0770109E0CB68D1E90121206800F0FB
:100CE000D8FD2068816841F480418160E1E719E026
:100CF000CA684968206800F081FE5021206806E03B
:100D0000CA684968206800F08AFE6021206800F007
:100D1000CAFDCEE7CA684968206800F06FFE40212E
:100D20002068F4E7226801461046F0E770472DE995
:100D3000F04104460068C66805694FF00007A9073E
:100D400013D5B10711D5F91E016101202077206864
:100D500080698007204602D0FFF7E8FF04E000F03A
:100D6000A3F8204600F035F92777680716D57007F5
:100D700014D521686FF004000861022020772068F4
:100D8000806910F4407F204602D0FFF7CFFF04E0D7
:100D900000F08AF8204600F01CF92777280715D5BF
:100DA000300713D521686FF0080008610420207710
:100DB0002068C0698007204602D0FFF7B7FF04E033
:100DC00000F072F8204600F004F92777E80616D5FF
:100DD000F00614D521686FF0100008610820207714
:100DE0002068C06910F4407F204602D0FFF79EFFC4
:100DF00004E000F059F8204600F0EBF82777E80708
:100E000008D0F00706D021686FF001000861204685
:100E100000F02EF9280608D5300606D521686FF0B7
:100E2000800008612046FFF753FE680608D570066B
:100E300006D521686FF040000861204600F022F9D5
:100E4000A8060AD5B00608D521686FF02000086111
:100E50002046BDE8F041FFF73CBEBDE8F081000050
:100E600000B585B0002100910191029103910068C5
:100E7000B0F1804F11D10A48816941F004018161CC
:100E80008069694600F0040004900320009002206D
:100E9000019003900348FFF723FA05B000BD00005E
:100EA0000010024000080140704770B5044690F8F9
:100EB0003C0000260D4601280FD0012084F83C009C
:100EC0006AB1042A1DD0082A2FD00C2A3FD001264F
:100ED000002084F83C00304670BD022070BD2068C0
:100EE00000F0EAFC2068816941F008018161206816
:100EF000816921F004018161206881692A691143B7
:100F000011E0206800F000FD2068816941F4006173
:100F100081612068816921F4806181612068816933
:100F20002A6941EA02218161D2E7206800F018FDB8
:100F30002068C16941F00801C1612068C16921F0E0
:100F40000401C1612068C1692A69114311E0206868
:100F500000F032FD2068C16941F40061C161206880
:100F6000C16921F48061C1612068C1692A6941EACF
:100F70000221C161ACE710B5040003D094F83D0034
:100F800010B107E0012010BD002084F83C0020468D
:100F900000F01EF8022084F83D00211D206800F0BA
:100FA0002FFC012084F8460084F83E0084F83F00BE
:100FB00084F8400084F8410084F8420084F843003B
:100FC00084F8440084F8450084F83D00002010BDFA
:100FD0007047704710B50446022249B104290ED06B
:100FE000082913D094F84100012816D0012010BD23
:100FF00094F83E000128F9D184F83E200FE094F8DF
:101000003F000128F2D184F83F2008E094F8400026
:101010000128EBD184F8402001E084F8412001222E
:10102000206800F029FC0F492068884203D1426CF7
:1010300042F4004242642068884208D0B0F1804FF8
:1010400005D00949884202D00849884204D1816804
:1010500001F00701062903D0016841F00101016098
:10106000002010BD002C014000040040000800409A
:1010700000680349884201D100F02CB97047000094
:10108000000400407047FEE7F0B585B00024284812
:101090000094019402940394816941F010018161EC
:1010A000816901F010010491816941F020018161A1
:1010B000816901F020010491816941F0040181619D
:1010C00080691C4F00F004004FF4707604900022F9
:1010D00031463846FFF7F9F91420009016480125EB
:1010E000CDE9010569463846FFF7FAF828208DE872
:1010F000310069463846FFF7F3F80220CDE9024097
:10110000CDE9006569463846FFF7EAF80022114646
:101110000820FFF74BFA0820FFF73AFA00221146A1
:101120000A20FFF743FA0A20FFF732FA05B0F0BDB4
:1011300000100240000801400000211010B58EB0E0
:1011400000240794089409940A940B941C2168467F
:101150000C94FFF739F822484FF080410160472195
:10116000C0E9011444F61F61C0E9031480218161C4
:10117000FFF7E4FC08B1FFF792F84FF480500790B6
:1011800007A91748FFF764FD08B1FFF788F814486E
:10119000FFF7F1FE08B1FFF782F80B940BA9104896
:1011A0000C94FFF797FC08B1FFF779F86020CDE9C0
:1011B000000402940022694609480494FFF775FE72
:1011C00008B1FFF76CF8042269460548FFF76DFE89
:1011D00008B1FFF764F80248FFF742FE0EB010BDF9
:1011E0002800002010B586B0002417480094019410
:1011F00002940394049413490594016041F61F413D
:10120000C0E901146321C0E9031480218161FFF763
:1012100095FC08B1FFF743F84FF480500090694601
:101220000948FFF715FD08B1FFF739F8049404A940
:1012300005480594FFF74EFC002801D0FFF72FF872
:1012400006B010BD0004004070000020FEE7000062
:101250004FF4FA7170B548430A49096848630A4C6B
:101260000A4D402122782846FFF72FF9207830B127
:1012700000222846BDE870408021FFF726B90122F0
:10128000F7E70000280000201400002000080140BB
:101290004FF4FA7170B548430B49096888630B4CE9
:1012A0000B4D4FF4807122782846FFF70EF9207815
:1012B00038B100222846BDE870404FF40071FFF7B6
:1012C00004B90122F6E700002800002014000020E5
:1012D000000801402DE9F041204D012103232C6835
:1012E0000846224600F0BAF9002620462E6000F09B
:1012F0007DFC1B4C04F1300760607860204600F0F4
:10130000F5F9384600F0F2F9A06800F053FC154CEE
:10131000A1684518A560B86800F04CFCE16801447C
:101320004CF25030E160854201DDA06002E0002D0A
:1013300000DAA660814201DDE06002E0002900DA07
:10134000E660A068FFF784FFE068FFF7A1FFA068F0
:101350002060E0686060BDE8F081000010000020BF
:10136000B80000201800002030B50D480B4D0022B9
:10137000C0E9075224300B4B0B4C80E81C0024388A
:1013800000F0AFF906483030C0E90752243080E859
:101390001C00BDE83040243800F0A3B99A99993E6A
:1013A000B80000200000C8420000C8C270B5094C57
:1013B000074904F13005002802DB01220A7002E02F
:1013C00000220A70404200F011FC2060286070BDCD
:1013D00014000020B8000020FEE770B500240021B2
:1013E000204600F0F6F80025002000F069F96D1C99
:1013F000EDB2802DF8D3641CE4B2082CEFD370BD9D
:1014000010B586B0002002901048816941F00801B3
:10141000816180690E4C00F0080004904FF4407028
:101420000090112001900320039069462046FEF7AA
:1014300057FF012211022046FFF747F8012251020F
:101440002046FFF742F806B010BD00000010024031
:10145000000C01402DE9F047144E002407464FF0E0
:1014600080084FF40079B51528FA04F23A4049464D
:101470003046FFF72AF8012229463046FFF725F8C3
:10148000002229463046FFF720F8641CE4B2082CFD
:10149000EAD3012229463046FFF717F8294630469D
:1014A000BDE8F0470022FFF710B80000000C014033
:1014B00070B501220B4D540221462846FFF705F86E
:1014C0000122160231462846FEF7FFFF0022214680
:1014D0002846FEF7FAFF31462846BDE87040002254
:1014E000FEF7F3BF000C014070B50A4D4FF40074D5
:1014F000002221462846FEF7E8FF01221102284675
:10150000FEF7E3FF21462846BDE870400122FEF7C2
:10151000DCBF0000000C014010B500204FF47A72CF
:101520000021491C9142FCD3401C9042F8D3FFF7A4
:1015300067FFAE2000F0B3F8D52000F0B0F88020AF
:1015400000F0ADF8A82000F0AAF83F2000F0A7F8BE
:10155000D32000F0A4F8002000F0A1F8402000F013
:101560009EF8A12000F09BF8C82000F098F8DA203F
:1015700000F095F8122000F092F8812000F08FF82A
:10158000CF2000F08CF8D92000F089F8F12000F08D
:1015900086F8DB2000F083F8302000F080F8A420EB
:1015A00000F07DF8A62000F07AF88D2000F077F8A2
:1015B000142000F074F8AF2000F071F8BDE810407E
:1015C000FFF70BBF0246012000E05043491EFCD24A
:1015D000704710B50C4640F0B00000F060F81020E5
:1015E00040EA141000F05BF804F00F00BDE8104072
:1015F00000F055B82DE9F0410746CE004000083E06
:10160000801E15464FF0FF38F1B2C0B2FFF7E1FF80
:101610001148002400EB05152819A0F5805090F81A
:10162000000E00F04DF8641CE4B2082CF4D308EB73
:101630004700F1B2C0B2FFF7CCFF00242819A0F593
:10164000805090F8080E00F03BF8641CE4B2082CBF
:10165000F4D3BDE8F08100008C1F00082DE9F047AD
:1016600000241D461646884681460A2713E0291B9A
:101670000A20491EFFF7A6FFB6FBF0F0B0FBF7F11A
:1016800007FB110208EB0400C1B248463032FFF7F5
:10169000B1FF641CE4B2AC42E9D3BDE8F08710B5F9
:1016A0000446FFF705FF7820FFF7D4FE0020FFF780
:1016B000D1FE2046FFF7CEFEBDE81040FFF714BF75
:1016C00010B50446FFF7F4FE7820FFF7C3FE402074
:1016D000FFF7C0FE2046FFF7BDFEBDE81040FFF754
:1016E00003BF0021C1600161416170472DE9F041F4
:1016F0000446C0682061D4E9000100F0C1FB014646
:10170000E060206A4FF0000510F0FF4F0FD0A26993
:1017100012F0FF4F06D021F00040114600F07EFA93
:1017200005D2E168606900F0D7F9606100E06561A9
:10173000D4E90361304600F0A3FB616A00F0A2FA2D
:1017400005466169206A00F09DFA07463146E06966
:1017500000F098FA394600F0BFF9294600F0BCF9CC
:10176000A060A16A00F05AFB01D2A06AA060E16A01
:10177000A06800F053FA01D2E06AA060BDE8F081F1
:1017800070477047FEF7ACBE30B58FB02821684671
:10179000FEF71AFD14210AA8FEF716FD0121080420
:1017A000CDE900100024029402250491CDE90750F0
:1017B0004FF4E01009906846FEF7E6FF08B172B6F4
:1017C000FEE70F20CDE90A054FF48060CDE90C401B
:1017D00002210AA80E94FEF71BFF002801D072B662
:1017E000FEE70FB030BD70470148FFF7A0BA000018
:1017F000280000200148FFF79ABA0000700000207E
:10180000F0B50268194B1A4C1A4D4FF080479842B8
:1018100005D0B84203D0A04201D0A84203D122F0A3
:1018200070064A683243984205D0B84203D0A042BD
:1018300001D0A84203D122F44074CA6822434C6903
:1018400022F08002224302608A68C2620A688262D1
:10185000984201D109690163012141610169C90708
:1018600003D0016921F001010161F0BD002C0140AC
:10187000000400400008004010B501F01F030121E2
:10188000046A99408C430462016A9A4011430162E0
:1018900010BD10B5846842EA032224F47F440A4351
:1018A0002243826010BD826822F070020A4342F037
:1018B000070181607047000030B5036A026A22F0B8
:1018C000010202624268846924F073050C682C43AB
:1018D00023F002058B682B430A4DA8420BD123F05D
:1018E0000805CB6822F440722B434D6923F00403B2
:1018F00015438A692A4342608461496841630362EF
:1019000030BD0000002C014030B5026A036A23F0AC
:1019100010030362436884690D6824F4E64444EAD2
:1019200005248D6822F0200242EA05120B4DA842E0
:101930000ED1CD6822F0800242EA05124D6923F4EF
:10194000406343EA85038D6922F0400243EA850340
:101950004360846149688163026230BD002C0140AC
:1019600030B5036A026A22F4807202624268C46976
:1019700023F4007324F073050C682C438D6843EA4C
:1019800005230C4DA8420ED1CD6823F4006343EA31
:1019900005234D6922F4405242EA05128D6923F471
:1019A000806342EA05124260C4614968C163036210
:1019B00030BD0000002C014030B5046A026A22F4F8
:1019C000805202624268C3690D6823F4E64343EA29
:1019D00005238D6824F4005444EA0534064DA842DA
:1019E00004D14D6922F4804242EA85124260C3610B
:1019F00049680164046230BD002C014010B5036ADF
:101A0000046A24F001040462846924F0F00444EAC6
:101A1000021423F00A020A438461026210BD10B569
:101A2000036A046A24F010040462846923F0A003AA
:101A300024F4704444EA023243EA011182610162F3
:101A400010BDFEE70907090E002804DB00F1E020C5
:101A500080F80014704700F00F0000F1E02080F8DB
:101A6000141D7047FEF744FDFFF78EFEFFF70CFBD9
:101A7000FFF764FBFFF7B6FB00211348FFF7AAFA54
:101A800004211148FFF7A6FA1048FFF7B5F80A201D
:101A9000FFF7DEFB0A20FFF7FBFBFFF765FCFFF714
:101AA0003BFD0A20FFF782FC094D0A4C032301216C
:101AB00002202A68FFF7D2FD03230121184622687D
:101AC000FFF7CCFDF2E700002800002070000020A6
:101AD000180000201C00002090EA010F48BF81F090
:101AE000004100F1D481421A3CBF801A89184FEAA4
:101AF000D0524FF07F4C1CEA410FA2EBD15318BFDC
:101B00009CEA026F00F03B804FF0004C4CEA002052
:101B10004CEA012121FA03FC10EB0C0C1ED202F15D
:101B2000FF325FEA1C2040EBC25038BF70471CF008
:101B30007F0F4FEA400C18BFBCF17F4F38BF704792
:101B4000C3F12003994008BF20F00100BCF17F4F92
:101B500038BF7047A0F1C04000F05BB94FEA3C00CD
:101B6000000A40EBC25028BF1CF0FF0F4FEA400CA8
:101B7000E6D018BFBCF17F4F38BF7047EAE79CEA58
:101B8000026F05D010EA5C0F08BF00F000407047FC
:101B900010B500F0F8F800BF64FBBE3E401058BF1F
:101BA000C0F14040491058BFC1F140418142EFF3BC
:101BB0000080704741000B0ED3F19E0208D950F40B
:101BC00000034FEA032323FA02F048BF4042704764
:101BD00010B500F0D8F800BF49922480002070476B
:101BE0006FF0004282EA20007047000010F00041D0
:101BF00048BF4042B0FA80F310FA03F2C3F19D03EC
:101C00000BD051EAC35101EB1220530638BF704785
:101C100000F1010008BF20F00100704750EA010CFC
:101C200000F113801CF5000F58BFBCF5000F01D464
:101C30008842704707D710F5000F58BF11F5000F05
:101C400015D488427047894270471CF5000F04D5AF
:101C5000BCF5000FF7D5814270474FF0807C1CEB3C
:101C6000400F38BF1CEB410F01D28142704710B5C5
:101C700000F089F8922449004FF000504FF0805155
:101C8000FFF78CBF4FF47F0C1CEAD0121EBF1CEA7A
:101C9000D11392EA0C0F93EA0C0F00F0478090EA00
:101CA000010F48BF42F480724FF0004C4CEA002014
:101CB0004CEA012102EB0302A0FB0113A2F5000292
:101CC000002918BF43F001035B0028BF4FEA33032C
:101CD00042EB22425FEA132C4CEBC2502EBFBCEB0E
:101CE000436FB2F57C0F70474FEA036CBCF1004FB5
:101CF00008BF20F00100B2F57C0F38BF70470BD54C
:101D000082F0FF0212F5803FC8BF704700F1C0406B
:101D1000D8BF00F00040704700F5000C5FEA4C0CA3
:101D200048BF7047B0F1C04000F073B890EA010FAF
:101D30000CEAD11348BF42F48072624538BF634554
:101D400004D280EA010000F00040704710B500F0B6
:101D50001AF800BF8900013E00F007B800F009B88A
:101D60005FEA410C5FEA1C6C08D080EA010000F0D9
:101D700050B85FEA400C5FEA1C6CF6D14FF00040AF
:101D8000A0F5800070470EF1020E2EF0030E5EF8F3
:101D9000044B244204D44FEA4102B2F17F4F11D8E0
:101DA0004FEA4003B3F17F4F0CD80ED14FEAD07CFD
:101DB000B2F17F4F0CEB4C0C0CF1020C08BF4CEB5A
:101DC000D17C04E04FF0080C01E04FEAD17C0CEB31
:101DD0004C0324FA03F404F00704B4F1040C06D213
:101DE0000EEB840CBDE810404CF0010C6047DFE8BE
:101DF0000CF0070802024FF00040A0F5800010BD73
:101E00000846420018BFD2F1807288BF00F000403F
:101E100010BDFF2141EAD050C005704751EA000CC7
:101E200000F113801CF5000F58BFBCF5000F01D462
:101E30008142704707D711F5000F58BF10F5000F0A
:101E400015D481427047894270471CF5000F04D5B4
:101E5000BCF5000FF7D5884270474FF0807C1CEB33
:101E6000410F38BF1CEB400F01D28842704780EA17
:101E7000010081EA000180EA0100FFF7F8BE0000DE
:101E800090EA010F48BF81F000413FF52CAE421AA5
:101E900004D882F00042A0EB020011444FEAD05275
:101EA0004FF07F4C1CEA410FA2EBD15318BF9CEAC4
:101EB000026F4AD04FF0004C4CEA00204CEA01215E
:101EC00021FA03FCB0EB0C0C0FD412F0FE0F36D04D
:101ED0005FEA4C001DD5001240EBC25038BF70477E
:101EE0001CF03F0F18BF70470BE0A2F101025FEA40
:101EF0001C2040EBC25038BF70471CF07F0F18BF4A
:101F00007047C3F12003994014BF401E20F0010028
:101F1000704780084FEA122308BF7047B0FA80FC70
:101F2000A2EB0C02CCF1280C60FA0CF093EA122F11
:101F300004BF00EBC25070474FEAC3707047130AEA
:101F40005FEADC1008BF7047F6E79CEA026F04D036
:101F500010EA5C0F08BF0020704710B5FFF713FFB1
:101F600040DFF63E81F000407047010202030405A5
:101F7000060708090A0B0C0D0E0F101000000000D8
:101F80000000000001020304060708090000000029
:101F9000000000000000000000000000000000F849
:101FA00000000000000000333000000000100C06AC
:101FB000100C0600000000000000000040C0784047
:101FC000C0784000043F04043F040400007088FC13
:101FD00008300000001820FF211E0000F008F0006B
:101FE000E018000000211C031E211E0000F00888DC
:101FF000700000001E2123241927211010160E0046
:10200000000000000000000000000000000000E0F0
:102010001804020000000007182040000002041805
:10202000E00000000040201807000000404080F061
:10203000804040000202010F01020200000000F097
:10204000000000000101011F01010100000000006B
:102050000000000080B070000000000000000000E0
:102060000000000000010101010101010000000069
:102070000000000000303000000000000000000000
:1020800080601804006018060100000000E01008DD
:102090000810E000000F102020100F00001010F8B2
:1020A000000000000020203F2020000000700808F1
:1020B0000888700000302824222130000030088871
:1020C000884830000018202020110E000000C02099
:1020D00010F8000000070424243F240000F80888BA
:1020E000880808000019212020110E0000E0108847
:1020F00088180000000F112020110E000038080879
:10210000C83808000000003F000000000070880888
:1021100008887000001C222121221C0000E0100809
:102120000810E0000000312222110F00000000C062
:10213000C0000000000000303000000000000080FF
:1021400000000000000080600000000000008040EF
:102150002010080000010204081020004040404008
:10216000404040000404040404040400000810205B
:1021700040800000002010080402010000704808A0
:102180000808F0000000003036010000C030C82808
:10219000E810E0000718272423140B000000C038C3
:1021A000E0000000203C23020227382008F888883D
:1021B00088700000203F202020110E00C030080849
:1021C00008083800071820202010080008F8080820
:1021D0000810E000203F202020100F0008F8888819
:1021E000E8081000203F20202320180008F88888E5
:1021F000E8081000203F200003000000C03008085D
:102200000838000007182020221E020008F80800E5
:102210000008F808203F210101213F20000808F8AC
:10222000080800000020203F2020000000000808CF
:10223000F8080800C08080807F00000008F888C08F
:1022400028180800203F20012638200008F8080040
:1022500000000000203F20202020300008F8F80077
:10226000F8F80800203F003F003F200008F830C089
:102270000008F808203F200007183F00E010080879
:102280000810E0000F10202020100F0008F80808A8
:102290000808F000203F210101010000E0100808BB
:1022A0000810E0000F18242438504F0008F88888E0
:1022B00088887000203F2000030C302000708808C0
:1022C000080838000038202121221C00180808F8CE
:1022D000080818000000203F2000000008F808004F
:1022E0000008F808001F202020201F000878880020
:1022F00000C83808000007380E010000F80800F890
:102300000008F800033C0700073C03000818688039
:102310008068180820302C03032C30200838C800AF
:10232000C83808000000203F2000000010080808FE
:10233000C83808002038262120201800000000FEA0
:10234000020202000000007F40404000000C30C04C
:1023500000000000000000010638C0000002020278
:10236000FE000000004040407F000000000004022A
:102370000202040000000000000000000000000055
:102380000000000080808080808080800002020445
:10239000000000000000000000000000000080803D
:1023A000808000000019242222223F2008F80080AB
:1023B00080000000003F112020110E00000000806E
:1023C00080800000000E11202020110000000080FD
:1023D0008088F800000E112020103F20000080802F
:1023E00080800000001F222222221300008080F043
:1023F000888888180020203F20200000000080806E
:1024000080808000006B94949493600008F80080B2
:1024100080800000203F210000203F20008098980D
:10242000000000000020203F20200000000000806D
:102430009898000000C08080807F000008F80000AD
:1024400080808000203F24022D302000000808F802
:10245000000000000020203F2020000080808080BD
:1024600080808000203F20003F20003F808000804F
:1024700080800000203F210000203F20000080805D
:1024800080800000001F202020201F00808000800E
:102490008000000080FFA12020110E0000000080BD
:1024A00080808000000E112020A0FF8080808000AE
:1024B0008080800020203F212000010000008080DB
:1024C000808080000033242424241900008080E0D0
:1024D000808000000000001F20200000808000009D
:1024E00000808000001F202020103F20808080007E
:1024F0000080808000010E3008060100808000808E
:10250000008080800F300C030C300F0000808000B2
:10251000808080000020312E0E31200080808000DD
:102520000080808080818E7018060100008080808D
:10253000808080000021302C22213000000000002B
:10254000807C020200000000003F404000000000CC
:10255000FF00000000000000FF0000000002027CFD
:10256000800000000040403F000000000006010124
:102570000202040400000000000000009C25000886
:10258000000000202800000028010008C4250008E1
:10259000280000205007000044010008010000004E
:1025A000100000000000000000127A00000000008F
:1025B000010000000000000000000000000000001A
:0425C0000000000017
:04000005080000ED02
:00000001FF
