:020000040800F2
:10000000B807002089010008951A0008FB160008AF
:10001000091900088F020008E9220008000000000A
:10002000000000000000000000000000871D000824
:100030009102000800000000851D0008891D0008CD
:10004000A3010008A3010008A3010008A301000800
:10005000A3010008A3010008A3010008A3010008F0
:1000600093020008A301000899020008A3010008F8
:10007000A3010008A3010008A3010008A3010008D0
:10008000A3010008A3010008A3010008A3010008C0
:10009000A3010008A3010008A3010008A3010008B0
:1000A000A3010008A3010008A3010008A3010008A0
:1000B000ED1D0008F91D0008A3010008A3010008B8
:1000C000A3010008A3010008A3010008A301000880
:1000D000A3010008A3010008A3010008DD22000815
:1000E000A3010008A3010008A301000800F002F822
:1000F00000F03AF80AA090E8000C82448344AAF188
:100100000107DA4501D100F02FF8AFF2090EBAE885
:100110000F0013F0010F18BFFB1A43F0010318473B
:1001200088270000A8270000103A24BF78C878C1AB
:10013000FAD8520724BF30C830C144BF04680C60ED
:10014000704700000023002400250026103A28BF35
:1001500078C1FBD8520728BF30C148BF0B60704739
:100160001FB51FBD10B510BD00F058F81146FFF7C0
:10017000F7FF02F007F900F076F803B4FFF7F2FF9B
:1001800003BC00F07DF8000009488047094800479B
:10019000FEE7FEE7FEE7FEE7FEE7FEE7FEE7FEE737
:1001A000FEE7FEE704480549054A064B7047000094
:1001B000EB1D0008ED000008B8010020B807002082
:1001C000B8030020B80300204FF0000200B513462A
:1001D00094469646203922BFA0E80C50A0E80C5067
:1001E000B1F12001BFF4F7AF090728BFA0E80C5018
:1001F00048BF0CC05DF804EB890028BF40F8042B11
:1002000008BF704748BF20F8022B11F0804F18BF7D
:1002100000F8012B7047704770477047754600F033
:100220002BF8AE4605006946534620F00700854688
:1002300018B020B5FFF7B6FFBDE820404FF000062C
:100240004FF000074FF000084FF0000B21F00701BE
:10025000AC46ACE8C009ACE8C009ACE8C009ACE801
:10026000C0098D46704710B50446AFF300802046A4
:10027000BDE81040FFF781BF0048704758010020DB
:1002800001491820ABBEFEE7260002007047FEE7DA
:100290007047042000F096B8102000F093B872B6B2
:1002A000FEE710B590F821100022022905D00421A4
:1002B000816380F82020012010BD01680B6823F0C5
:1002C0000E030B6001680B6823F001030B6090F8CC
:1002D0004030C46B012101FA03F3636080F8211000
:1002E00080F82020104610BD10B590F82110002491
:1002F000022903D00421816301243DE001680A68DA
:1003000022F00E020A6001680A6822F001020A6007
:100310001A4A0168914201D1012121E0174A1432A1
:10032000914201D110211BE0144A2832914201D19F
:10033000891515E0114A3C32914201D189140FE030
:100340000E4A5032914202D14FF4803108E00B4AFC
:100350006432914202D14FF4801101E04FF080717C
:10036000064A083A5160012180F82110002180F8E6
:100370002010416B01B18847204610BD08000240A3
:1003800010B50D4A042809D0102811D1202110469B
:1003900000F014F90949012807D00AE008211046A5
:1003A00000F00CF90649012803D00868401C0860D9
:1003B00010BD0868401EFAE7000801401800002040
:1003C00014000020044910B50A68024202D00860F7
:1003D000FFF7D6FF10BD0000140401402DE9F84FCF
:1003E000DFF8B8910024A9F1040B23460F2709F187
:1003F000040AABF1040EC9E00125A5402A40AA4237
:100400007DD1674ED1F804C0ACEB0608B44532D0BC
:1004100014DCBCF1030F3AD009DCBCF1000F2AD088
:10042000BCF1010F1CD0BCF1020F31D11DE0BCF1B9
:10043000110F17D0BCF1120F2AD119E0B8F5881F9F
:1004400019D006DCB8F5803F15D0B8F5801F1FD154
:1004500011E0B8F5001F0ED0B8F5041F18D10AE05E
:10046000CB6815E0CB681B1D12E0CB6808330FE0AA
:10047000CB680C330CE08B682BB1012B4FF00803D9
:1004800003D0456104E0042302E0056100E000239D
:10049000FF2A01D8064601E000F104064FEA840570
:1004A00001D9A5F12005D6F8008007FA05FC28EA55
:1004B0000C0803FA05F548EA0508C6F800804D68FF
:1004C000ED0062D5374DAE6946F00106AE61AD690B
:1004D00024F0030605F001050095334D06EB050CED
:1004E000DCF80850A607360F07FA06F825EA0805D3
:1004F000DFF8B880404503D14FF0000817E044E032
:10050000DFF8AC80404502D14FF001080FE0DFF882
:10051000A480404502D14FF0020808E0DFF898803F
:10052000404502D14FF0030801E04FF0040808FAFB
:1005300006F848EA0508CCF808804D68D9F800604C
:10054000ED024D4601D5164300E096432E604D68FE
:10055000DAF80060AD02554601D5164300E0964337
:100560002E604D68DBF80060AD035D4601D5164393
:1005700000E096432E604D68DEF80060ED0375469E
:1005800001D5164300E096432E60641C0D682A4690
:10059000E5407FF431AFBDE8F88F0000080401406A
:1005A000000011100010024000000140000801404E
:1005B000000C014000100140001401408068084018
:1005C00000D0012070470AB1016170470904FBE7C0
:1005D00001488068704700000400002002488168DC
:1005E000027811448160704704000020074810B56C
:1005F000016841F010010160032000F075F80F2040
:1006000000F006F800F024F8002010BD00200240A1
:1006100070B50D4D04464FF47A712878B1FBF0F0B7
:100620000A490968B1FBF0F000F0DCFA48B9102C77
:1006300007D200222146501E00F036F800206C60E0
:1006400070BD012070BD00000400002010000020DB
:100650000C4808B5816941F001018161816901F0AF
:1006600001010091C16941F08051C161C06900F090
:10067000805000900448416821F0E06141F0007131
:10068000416008BD0010024000000140002809DB65
:1006900000F01F02012191404009800000F1E0209C
:1006A000C0F8001170470000F0B40E4B1B680C46F8
:1006B000C3F30223C3F10705042D00D90425191D36
:1006C000072901D2002300E0DB1E012606FA05F10E
:1006D000491E214099409E40761E16403143F0BC91
:1006E00001F003BE0CED00E0064900F007020868C7
:1006F0004FF6FF03184040EA0220034A1043086007
:10070000704700000CED00E00000FA052DE9F0470D
:100710000F46050061D0434E306800F00700B84234
:1007200009D2306820F0070038433060306800F0AC
:100730000700B84251D128683B4C810712D54007C9
:1007400003D5606840F4E06060602878000703D556
:10075000606840F4605060606068A96820F0F00054
:10076000084360602878C00728D06868012810D046
:100770002168022810D0890700292EDA616821F04B
:10078000030101436160FFF723FF804641F288398E
:100790000DE021688903EFE78901EDE7FFF718FF16
:1007A000A0EB0801494502D90320BDE8F087606845
:1007B000696800F00C00B0EB810FEFD1306800F0F9
:1007C0000700B8420BD9306820F00700384330608A
:1007D000306800F00700B84201D00120E5E7287832
:1007E000400705D56068E96820F4E0600843606070
:1007F0002878000706D56068296920F4605040EA2F
:10080000C100606000F038F86168084AC1F3031164
:10081000515CC8400649086006480068FFF7F8FECA
:100820000020C2E70020024000100240902800088B
:1008300010000020080000200448054900684968AD
:10084000044AC1F30221515CC840704710000020E7
:1008500000100240A02800080448054900684968C3
:10086000044AC1F3C221515CC84070471000002007
:1008700000100240A02800080E4A51680E4801F0FE
:100880000C03042B11D0082B0FD10C48C1F3834368
:10089000C903C05C0AD55168084AC1F34041921EA1
:1008A000515C054A5043B0FBF1F07047044948439E
:1008B000704700000010024000127A0080280008F3
:1008C00000093D002DE9F84F040070D02078C04D9C
:1008D000C00749D06868C0F38100012807D0686864
:1008E000C0F38100022809D16868C00306D52868D2
:1008F000800339D560680028E7D035E06068B0F53E
:10090000803F0BD010B1B0F5A02F11D0286820F493
:1009100080302860286820F4802002E0286840F4B5
:1009200080302860606890B1FFF752FE06460AE00A
:10093000286840F480202860F0E700BFFFF748FEF9
:10094000801B642873D828688003F7D50CE0FFF774
:100950003FFE064605E000BFFFF73AFE801B642815
:10096000F0D828688003F7D420789A4E80074FF09B
:1009700001094FF0000839D5686810F00C0F07D056
:100980006868C0F38100022809D16868C00306D4F2
:100990002868800714D52069012808D110E0206953
:1009A000B0B1C6F80090FFF713FE074605E00AE174
:1009B000FFF70EFEC01B0228C4D828688007F7D5B1
:1009C0002868616920F0F80040EAC10028600DE065
:1009D000C6F80080FFF7FCFD074604E0FFF7F8FDCE
:1009E000C01B022823D828688007F7D42078000786
:1009F0002CD57948A169D9B1C0F80090FFF7E8FD7E
:100A0000074604E0FFF7E4FDC01B02280FD8686A20
:100A10008007F7D571484FF4FA510068B0FBF1F048
:100A2000009000BF0098411E0091FAD20EE080E0D5
:100A3000C0F80080FFF7CCFD074604E0FFF7C8FDD3
:100A4000C01B022875D8686A8007F7D42078400751
:100A500060D5E8690027C00008D4E86940F08050FC
:100A6000E861E869012700F0805000905C48016867
:100A7000C90513D40168834641F480710160FFF712
:100A8000A7FD824606E000BFFFF7A2FDA0EB0A002B
:100A900064284ED8DBF80000C005F5D5E0680128D1
:100AA0000AD008B1052813D0286A20F00100286276
:100AB000286A20F0040002E0286A40F00100286261
:100AC000E06841F2883B98B1FFF782FD82460BE077
:100AD000286A40F004002862EEE700BFFFF778FDC7
:100AE000A0EB0A0159455AD8286A8007F6D50CE0D0
:100AF000FFF76EFD824605E0FFF76AFDA0EB0A01F5
:100B000059454CD8286A8007F6D41FB1E86920F00F
:100B10008050E861E06988B36968C1F38101022906
:100B200044D00228C6F8608004D0FFF751FD044687
:100B300038E034E0FFF74CFD074604E0FFF748FDDE
:100B4000C01B02282BD828688001F7D4206AB0F592
:100B5000803F05D16868A16820F4003008436860D0
:100B6000D4E908010843696821F4741108436860F6
:100B7000C6F86090FFF72CFD044606E025E000BFB4
:100B8000FFF726FD001B022809D828688001F7D549
:100B90001BE000BFFFF71CFD001B022802D9032049
:100BA000BDE8F88F28688001F4D40EE00128F7D062
:100BB0006868226A00F48031914204D1616A00F4CD
:100BC0007010884201D00120EAE70020E8E7000029
:100BD0000010024000004242800442421000002007
:100BE0000070004010B5401EB0F1807F01D301209D
:100BF00010BD4FF0E02460610F21601701F075FB1C
:100C00000020A06107202061002010BD70477047C0
:100C100070B590F83C20012A26D0012480F83C4091
:100C2000022280F83D2003685A689D6822F0700611
:100C30000A6832435A600D4B02689A4208D0B2F1FA
:100C4000804F05D00A4B9A4202D00A4B9A4204D1F7
:100C5000496825F080031943916080F83D400021E8
:100C600080F83C10084670BD022070BD002C014089
:100C7000000400400008004010B5040003D094F8C0
:100C80003D0010B107E0012010BD002084F83C00B9
:100C9000204600F01FF8022084F83D00211D206846
:100CA00001F0B0F8012084F8460084F83E0084F892
:100CB0003F0084F8400084F8410084F8420084F842
:100CC000430084F8440084F8450084F83D00002087
:100CD00010BD000008B501681448B1F1804F14D070
:100CE000134A914220D1C16941F00201C161C0693A
:100CF000002200F00200009011461D20FFF7D4FCF6
:100D00001D20BDE80840FFF7C1BCC16941F00101E9
:100D1000C161C069002200F00100009011461C2052
:100D2000FFF7C2FC1C20ECE708BD000000100240E9
:100D30000004004090F83D10012901D001207047C7
:100D4000022180F83D100168CA6842F00102CA60C1
:100D500000680B49884208D0B0F1804F05D009499E
:100D6000884202D00849884204D1816801F0070115
:100D7000062903D0016841F001010160002070479D
:100D8000002C0140000400400008004070B50446FB
:100D900090F83C000025012817D0012684F83C601B
:100DA000022084F83D002068826822F0770222F455
:100DB0007F4282600868502838D00DDC20284FD050
:100DC00005DC90B3102811D14AE0022070BD302814
:100DD00046D040280AD13BE060282FD070280DD0A3
:100DE000B0F5805F03D0B0F5005F12D0012584F824
:100DF0003D60002084F83C00284670BDCB68D1E9F6
:100E00000121206801F047F82068816841F07701EE
:100E100009E0CB68D1E90121206801F03CF82068A5
:100E2000816841F480418160E1E719E0CA6849685E
:100E3000206801F0E5F85021206806E0CA6849689A
:100E4000206801F0EEF86021206801F02EF8CEE76E
:100E5000CA684968206801F0D3F840212068F4E7A7
:100E6000226801461046F0E770472DE9F04104463C
:100E70000068C66805694FF00007A90713D5B107D8
:100E800011D5F91E01610120207720688069800753
:100E9000204602D0FFF7E8FF04E000F0A3F8204668
:100EA00000F035F92777680716D5700714D5216843
:100EB0006FF004000861022020772068806910F438
:100EC000407F204602D0FFF7CFFF04E000F08AF811
:100ED000204600F01CF92777280715D5300713D5D1
:100EE00021686FF008000861042020772068C0693D
:100EF0008007204602D0FFF7B7FF04E000F072F849
:100F0000204600F004F92777E80616D5F00614D538
:100F100021686FF010000861082020772068C06900
:100F200010F4407F204602D0FFF79EFF04E000F05F
:100F300059F8204600F0EBF82777E80708D0F007CB
:100F400006D021686FF001000861204600F02EF9FC
:100F5000280608D5300606D521686FF080000861A4
:100F60002046FFF753FE680608D5700606D52168AF
:100F70006FF040000861204600F022F9A8060AD56B
:100F8000B00608D521686FF0200008612046BDE852
:100F9000F041FFF73CBEBDE8F081000000B585B030
:100FA000002100910191029103910068B0F1804FFE
:100FB00011D10A48816941F0040181618069694663
:100FC00000F00400049003200090022001900390A0
:100FD0000348FFF703FA05B000BD0000001002400F
:100FE00000080140704770B5044690F83C000026A8
:100FF0000D4601280FD0012084F83C006AB1042A74
:101000001DD0082A2FD00C2A3FD00126002084F8BA
:101010003C00304670BD022070BD206800F04EFFDD
:101020002068816941F0080181612068816921F0AF
:1010300004018161206881692A69114311E02068F7
:1010400000F064FF2068816941F4006181612068DB
:10105000816921F480618161206881692A6941EA9E
:1010600002218161D2E7206800F07CFF2068C1691D
:1010700041F00801C1612068C16921F00401C1612A
:101080002068C1692A69114311E0206800F096FFC9
:101090002068C16941F40061C1612068C16921F41F
:1010A0008061C1612068C1692A6941EA0221C16188
:1010B000ACE710B5040003D094F83D0010B107E090
:1010C000012010BD002084F83C00204600F01EF8EE
:1010D000022084F83D00211D206800F093FE0120CD
:1010E00084F8460084F83E0084F83F0084F840000D
:1010F00084F8410084F8420084F8430084F84400F6
:1011000084F8450084F83D00002010BD704770470A
:1011100010B50446022249B104290ED0082913D083
:1011200094F84100012816D0012010BD94F83E002B
:101130000128F9D184F83E200FE094F83F000128FF
:10114000F2D184F83F2008E094F840000128EBD168
:1011500084F8402001E084F841200122206800F05A
:101160008DFE0F492068884203D1426C42F4004250
:1011700042642068884208D0B0F1804F05D0094908
:10118000884202D00849884204D1816801F00701F1
:10119000062903D0016841F001010160002010BD63
:1011A000002C014000040040000800400068034992
:1011B000884201D100F0EABB704700000004004003
:1011C0007047704770470000F8B50168044608682A
:1011D000CA684B6910F00F0F4FF0000559D003F0AB
:1011E000010602F49077374365D0C10705D0D105D9
:1011F00003D5616C41F001016164410705D5D90750
:1012000003D0616C41F002016164810705D5D90703
:1012100003D0616C41F004016164010707D502F05D
:101220002001314303D0616C41F008016164616CBD
:1012300000293AD0800604D5900602D5204600F059
:101240003CFF20684069616CC0F38010090700D43E
:1012500060B3204600F00AFF20684069400621D5AF
:101260002068143050E8001F21F0400140E80012CF
:10127000002AF5D1E06BA8B16D494163E06BFFF73F
:1012800033F8002811D0E06B416B01B0BDE8F040AD
:10129000084783060FD593060DD52046BDE8F840D4
:1012A00000F00BBF2046FFF78DFFF8BD2046FFF78B
:1012B00089FF6564F8BD266B2023012E7CD1C6060C
:1012C0007AD5D60678D508684868009048694FF006
:1012D0000206400640D5E16B086840680004000C37
:1012E000E8D0A28D8242E5D9E085886920282DD0FA
:1012F00020680C3050E8001F21F4807140E8001293
:10130000002AF5D12068143050E8001F21F00101B7
:1013100040E80012002AF5D12068143050E8001F80
:1013200021F0400140E80012002AF5D184F8423053
:10133000256320680C3050E8001F21F0100140E8C0
:101340000012002AF5D1E06BFEF7ABFF6663A08DBB
:10135000E18D401A81B22AE0A08DE18D401A81B260
:10136000E08D0028A6D00029A4D022680C3252E8D3
:10137000000F20F4907042E80007002FF5D120689C
:10138000143050E8002F22F0010240E80027002F1F
:10139000F5D184F84230256320680C3050E8002FE6
:1013A00022F0100240E80023002BF5D166632046AE
:1013B000FFF707FFF8BDFFE705062BD5150629D572
:1013C00094F841002128F5D1A068B0F5805F01D1E3
:1013D0002069B0B1206A411C216221680078486010
:1013E000E08C401E0004000CE084E3D12068C1685A
:1013F00021F08001C1602068C16841F04001C160F6
:10140000D8E7206A0088C0F308004860206A801C82
:101410002062E5E74006CDD55006CBD5CA68204608
:1014200022F04002CA6084F8413000F065F9C1E75B
:101430005D20000870B5040004D094F84100002538
:1014400010B106E0012070BD84F84050204600F045
:1014500023F8242084F841002068C16821F4005159
:10146000C160204600F08AFE2068016921F49041A5
:1014700001612068416921F02A0141612068C16849
:1014800041F40051C1606564202084F8410084F873
:1014900042006563002070BD30B585B00024009423
:1014A0000194029403940068184988422CD118488A
:1014B000C16941F48021C161C16901F480210491B5
:1014C000816941F0080181618069124D00F00800D6
:1014D00004904FF48060009002200190032003905C
:1014E00069462846FEF77AFFE814CDE9000469460C
:1014F00028460294FEF772FF002211462720FFF7CC
:10150000D3F82720FFF7C2F805B030BD00480040EF
:1015100000100240000C014090F84230202B01D016
:101520000220704721B11AB10023036300F082BE8C
:10153000012070472DE9F05F00683F49884279D16A
:101540003E483F4C414D90F800C054F81C6BD5E923
:10155000089A94E80D00DFF8ECE03B49D5F800B0BC
:10156000EF691C3CACF1610CBCF1190F5BD2DFE8F8
:101570000CF0115A5A231F2D3842504B555A5A5AC3
:101580005A5A0D281A33475A165A3E00714600F02F
:101590002DFF02E0714601F0FDF8E06143E01046E6
:1015A00000F024FF02E0104601F0F4F820623AE077
:1015B000184600F01BFF02E0184601F0EBF86062ED
:1015C00031E02349304600F011FF03E02049304666
:1015D00001F0E0F8206026E07146384600F006FF92
:1015E00003E07146384601F0D5F8E8611BE0484653
:1015F00000F0FCFE02E0484601F0CCF8286212E060
:10160000504600F0F3FE02E0504601F0C3F8686275
:1016100009E00F49584600F0E9FE03E00C4958463E
:1016200001F0B8F82860BDE8F05F012203490948DD
:10163000FFF772BFBDE8F09F004800401F00002088
:10164000F80000200AD7233C6F12833A28010020BB
:1016500000002041B00000202DE9F843044690F836
:101660004100984616460D46202802D00220BDE8CB
:10167000F88385B17EB100206064212084F84100A8
:10168000FEF7A6FFA6848146E684A0682027B0F571
:10169000805F02D003E00120E9E7206910B12E4607
:1016A00000250EE000260CE08021204600F0DDFD44
:1016B000A8B9C6B116F8010B21684860E08C401E3D
:1016C000E084E08C4B464FF00002CDF8008000280B
:1016D000EAD14FF04001204600F0C7FD40B184F848
:1016E00041700320C3E735F8020BC0F30800E3E7BD
:1016F00084F841700020BAE77047FEE7F0B585B086
:1017000000242C480094019402940394816941F0D0
:1017100010018161816901F010010491816941F03A
:1017200020018161816901F020010491816941F00A
:1017300004018161816901F004010491816941F032
:101740000801816180691C4F00F008004FF4707639
:101750000490002231463846FEF735FF14200090F1
:1017600016480125CDE9010569463846FEF736FEE3
:1017700028208DE8310069463846FEF72FFE02200A
:10178000CDE90240CDE9006569463846FEF726FE00
:10179000002211460820FEF787FF0820FEF776FF9B
:1017A000002211460A20FEF77FFF0A20FEF76EFF97
:1017B00005B0F0BD001002400008014000002110FB
:1017C00010B58EB000240794089409940A940B94E1
:1017D0001C2168460C94FEF7F7FC22484FF080412C
:1017E00001604721C0E9011444F61F61C0E90314F8
:1017F00080218161FFF740FA08B1FEF750FD4FF4F8
:101800008050079007A91748FFF7C0FA08B1FEF704
:1018100046FD1448FFF74DFC08B1FEF740FD0B9460
:101820000BA910480C94FFF7F3F908B1FEF737FD48
:101830006020CDE90004029400226946094804941E
:10184000FFF7D1FB08B1FEF72AFD042269460548DF
:10185000FFF7C9FB08B1FEF722FD0248FFF79EFB28
:101860000EB010BD2000002010B586B0002417482F
:101870000094019402940394049413490594016024
:1018800041F61F41C0E901146321C0E9031480211E
:101890008161FFF7F1F908B1FEF701FD4FF48050C7
:1018A000009069460948FFF771FA08B1FEF7F7FCA6
:1018B000049404A905480594FFF7AAF9002801D06B
:1018C000FEF7EDFC06B010BD0004004068000020EB
:1018D0000C4810B50A4901604FF4E1314160002124
:1018E00081600C22C160C0E904128161C161FFF70F
:1018F000A1FD002803D0BDE81040FEF7D0BC10BD0C
:1019000000480040B0000020FEE70000C82170B58C
:1019100048430A4909684863094C0A4D4021227826
:101920002846FEF750FE207830B100222846BDE858
:1019300070408021FEF747BE0122F7E7200000201B
:101940001C00002000080140C82170B548430C4924
:10195000096888630B4C0C4D4FF4807162782846FF
:10196000FEF731FE607840B15FF000022846BDE826
:1019700070404FF40071FEF726BE0122F6E700002A
:10198000200000201C000020000801402DE9F0414B
:1019900016480178491CC9B20170052924D30024D6
:1019A000134EDFF8508004703068D8F8005000F013
:1019B000A7FD114F7860284600F0A2FD07F1300521
:1019C0006860384600F094F9284600F091F9B8684C
:1019D00000F07AFDFFF79AFFA86800F075FDFFF7A9
:1019E000B3FF3460C8F80040BDE8F0811E0000205D
:1019F0001400002018000020F800002030B50E4828
:101A00000E4900F1240C0E4B0E4C8CE81A00094DC7
:101A10000022C0E9075200F066F907483030C0E9FB
:101A20000752243080E81C00BDE83040243800F024
:101A30005AB9000085EB913FF8000020CDCCCC3D99
:101A400000504347005043C72DE9F0410C460E4972
:101A50000E4D01260027002801DB0E7001E00F70FB
:101A6000404200F04DFD2860084D09483035002CFB
:101A700002DB0670204601E00770604200F040FD86
:101A80002860BDE8F08100001C000020F800002064
:101A90001D000020FEE770B500240021204600F064
:101AA000EFF80025002000F00DF96D1CEDB2802D3F
:101AB000F8D3641CE4B2082CEFD370BD10B586B027
:101AC000002002901048816941F00801816180691D
:101AD0000E4C00F0080004904FF44070009011206C
:101AE00001900320039069462046FEF777FC01220F
:101AF00011022046FEF767FD012251022046FEF743
:101B000062FD06B010BD000000100240000C014054
:101B10002DE9F047144E002407464FF080084FF49B
:101B20000079B51528FA04F23A4049463046FEF7E6
:101B30004AFD012229463046FEF745FD002229468E
:101B40003046FEF740FD641CE4B2082CEAD30122C3
:101B500029463046FEF737FD29463046BDE8F047B6
:101B60000022FEF730BD0000000C014070B50122DC
:101B70000B4D540221462846FEF725FD0122160290
:101B800031462846FEF71FFD002221462846FEF773
:101B90001AFD31462846BDE870400022FEF713BD0D
:101BA000000C014070B50A4D4FF40074002221462C
:101BB0002846FEF708FD012211022846FEF703FD24
:101BC00021462846BDE870400122FEF7FCBC00001B
:101BD000000C014010B500204FF47A720021491C1E
:101BE0009142FCD3401C9042F8D3FFF767FFAE2030
:101BF00000F057F8D52000F054F8802000F051F89C
:101C0000A82000F04EF83F2000F04BF8D32000F061
:101C100048F8002000F045F8402000F042F8A120EC
:101C200000F03FF8C82000F03CF8DA2000F039F866
:101C3000122000F036F8812000F033F8CF2000F0B9
:101C400030F8D92000F02DF8F12000F02AF8DB2040
:101C500000F027F8302000F024F8A42000F021F84C
:101C6000A62000F01EF88D2000F01BF8142000F0D4
:101C700018F8AF2000F015F8BDE81040FFF70BBFD3
:101C800010B50C4640F0B00000F00BF8102040EA10
:101C9000141000F006F804F00F00BDE81040AFF398
:101CA000008010B50446FFF761FF7820FFF730FF92
:101CB0000020FFF72DFF2046FFF72AFFBDE8104068
:101CC000FFF770BF10B50446FFF750FF7820FFF70D
:101CD0001FFF4020FFF71CFF2046FFF719FFBDE85C
:101CE0001040FFF75FBF0021C16001614161704793
:101CF0002DE9F0410446C0682061D4E9000100F0FC
:101D000049FD0146E060206A4FF0000510F0FF4FEA
:101D10000FD0A26912F0FF4F06D021F0004011460B
:101D200000F006FC05D2E168606900F05FFB6061CD
:101D300000E06561D4E90361304600F02BFD616A83
:101D400000F02AFC05466169206A00F025FC074680
:101D50003146E06900F020FC394600F047FB294697
:101D600000F044FBA060A16A00F0E2FC01D2A06A8E
:101D7000A060E16AA06800F0DBFB01D2E06AA0602D
:101D8000BDE8F08170477047FEF728BC30B58FB0D2
:101D900028216846FEF718FA14210AA8FEF714FA5B
:101DA00001210804CDE900100024029402250491C9
:101DB000CDE907504FF4E01009906846FEF782FD28
:101DC00008B172B6FEE70F20CDE90A054FF4806036
:101DD000CDE90C4002210AA80E94FEF797FC0028DA
:101DE00001D072B6FEE70FB030BD70470148FFF773
:101DF0003CB80000200000200148FFF736B8000082
:101E000068000020F0B50268194B1A4C1A4D4FF0CB
:101E10008047984205D0B84203D0A04201D0A842E2
:101E200003D122F070064A683243984205D0B84286
:101E300003D0A04201D0A84203D122F44074CA6862
:101E400022434C6922F08002224302608A68C26207
:101E50000A688262984201D10969016301214161E6
:101E60000169C90703D0016921F001010161F0BDD9
:101E7000002C0140000400400008004010B501F0B3
:101E80001F030121046A99408C430462016A9A404D
:101E90001143016210BD10B5846842EA032224F4A4
:101EA0007F440A432243826010BD826822F07002A0
:101EB0000A4342F0070181607047000030B5036AB1
:101EC000026A22F0010202624268846924F073050A
:101ED0000C682C4323F002058B682B430A4DA84263
:101EE0000BD123F00805CB6822F440722B434D69D7
:101EF00023F0040315438A692A43426084614968D8
:101F00004163036230BD0000002C014030B5026A1D
:101F1000036A23F010030362436884690D6824F4A4
:101F2000E64444EA05248D6822F0200242EA0512C4
:101F30000B4DA8420ED1CD6822F0800242EA051274
:101F40004D6923F4406343EA85038D6922F0400222
:101F500043EA85034360846149688163026230BD5E
:101F6000002C014030B5036A026A22F480720262DA
:101F70004268C46923F4007324F073050C682C4391
:101F80008D6843EA05230C4DA8420ED1CD6823F499
:101F9000006343EA05234D6922F4405242EA0512E8
:101FA0008D6923F4806342EA05124260C461496886
:101FB000C163036230BD0000002C014030B5046AEB
:101FC000026A22F4805202624268C3690D6823F4F7
:101FD000E64343EA05238D6824F4005444EA0534BB
:101FE000064DA84204D14D6922F4804242EA85128E
:101FF0004260C36149680164046230BD002C014045
:1020000010B5036A046A24F001040462846924F0B0
:10201000F00444EA021423F00A020A4384610262D3
:1020200010BD10B5036A046A24F0100404628469C8
:1020300023F0A00324F4704444EA023243EA01117D
:102040008261016210BD0000012202490248FFF7CF
:1020500063BA00001F000020B000002010B5406AE5
:102060000021C185C184FFF7ADF810BD01680C31B6
:1020700051E8002F22F4907241E80023002BF5D1A3
:102080000168143151E8002F22F0010241E80023D9
:10209000002BF5D1016B012909D101680C3151E800
:1020A000002F22F0100241E80023002BF5D120215F
:1020B00080F8421000210163704708B590F8421083
:1020C000222901D0022008BD82684FF480539A4231
:1020D00001D1016921B1816A9A421BD04AB10AE05B
:1020E0000268816A5268C2F308020A80816A891C08
:1020F00008E0026972B10268526802F07F020A7059
:10210000816A491C8162C18D491E0904090CC1857F
:1021100003D01BE002685268F1E70168CA6822F048
:102120002002CA600168CA6822F48072CA6001682D
:102130004A6922F001024A61202180F84210002100
:102140004163026B012A03D0FFF7F4F9002008BDB8
:10215000016301680C3151E8002F22F0100241E8C0
:102160000023002BF5D101680A68D20602D50A685F
:1021700049680091818DFFF724F8E7E770B50446C0
:1021800000680169E26821F440511143016121694D
:10219000A0680843616908432168CA6841F20C637A
:1021A0009A430243CA6020684169A26921F44071E0
:1021B000114341611E492068884202D1FEF74CFB61
:1021C00001E0FEF739FB00EBC00101EB0012606893
:1021D00064218000B2FBF0F3B3FBF1F36FF018065B
:1021E0007343B2FBF0F5B2FBF0F605EB8305322347
:1021F00003EB0515B5FBF1F5B6FBF1F605F0F005BF
:1022000005EB0615B2FBF0F6B2FBF0F0B0FBF1F017
:102210006FF01802504306EB800003EB0010B0FB98
:10222000F1F0216800F00F002844886070BD0000C4
:102230000038014081628285C285002141642221EB
:1022400080F84210016921B10168CA6842F48072C5
:10225000CA6001684A6942F001024A610068C168C7
:1022600041F02001C160002070472DE9F8439846F5
:1022700017460D460446089E24E0701C22D0FEF747
:10228000A7F9A0EB0800B0421AD8CEB12068C16807
:10229000490717D5802D15D0402D13D00168C943AB
:1022A00009070FD401680025406800902046FFF719
:1022B000DDFE0820606484F840500120BDE8F8830A
:1022C0000320FBE72068006835EA000004D0002006
:1022D000B842D2D00020F1E70120F9E70148FEF72B
:1022E00073BF0000B0000020FEE70907090E0028B8
:1022F00004DB00F1E02080F80014704700F00F00CC
:1023000000F1E02080F8141D704700007FB518A090
:10231000194C0068009017A0184D006801902946DC
:10232000206800F039F900F0CFF8ADF80800294630
:10233000606800F031F900F0C7F8ADF80C006423D4
:10234000022269460E48FFF787F96423022202A998
:102350000B48FFF781F96423022203A90848FFF71D
:102360007BF96423022201A90548FFF775F97FBDB7
:1023700003FC0000FC030000F800002000002041E6
:10238000B0000020FEF732F9FFF700FDFFF7B6F9C5
:10239000FFF716FAFFF768FAFFF79AFA00211048DC
:1023A000FEF7B6FE04210E48FEF7B2FE0D48FEF71A
:1023B000C1FCFFF723FBFFF70DFC32210846FFF7B6
:1023C00043FBFFF741FE084CFEF702F92168401A73
:1023D0001428F9D3FFF79AFFFEF7FAF82060F3E725
:1023E00020000020680000200000002090EA010F7B
:1023F00048BF81F0004100F1D481421A3CBF801AED
:1024000089184FEAD0524FF07F4C1CEA410FA2EBE3
:10241000D15318BF9CEA026F00F03B804FF0004C94
:102420004CEA00204CEA012121FA03FC10EB0C0CD1
:102430001ED202F1FF325FEA1C2040EBC25038BFCF
:1024400070471CF07F0F4FEA400C18BFBCF17F4F64
:1024500038BF7047C3F12003994008BF20F0010046
:10246000BCF17F4F38BF7047A0F1C04000F05BB9AE
:102470004FEA3C00000A40EBC25028BF1CF0FF0F9F
:102480004FEA400CE6D018BFBCF17F4F38BF704711
:10249000EAE79CEA026F05D010EA5C0F08BF00F083
:1024A0000040704710B500F0F8F800BF64FBBE3E76
:1024B000401058BFC0F14040491058BFC1F14041E1
:1024C0008142EFF30080704741000B0ED3F19E0272
:1024D00008D950F400034FEA032323FA02F048BF5F
:1024E0004042704710B500F0D8F800BF49922480F0
:1024F000002070476FF0004282EA20007047000021
:1025000010F0004148BF4042B0FA80F310FA03F2E5
:10251000C3F19D030BD051EAC35101EB12205306C6
:1025200038BF704700F1010008BF20F0010070477C
:1025300050EA010C00F113801CF5000F58BFBCF5E8
:10254000000F01D48842704707D710F5000F58BF1D
:1025500011F5000F15D488427047894270471CF569
:10256000000F04D5BCF5000FF7D5814270474FF03E
:10257000807C1CEB400F38BF1CEB410F01D2814225
:10258000704710B500F089F8922449004FF00050D0
:102590004FF08051FFF78CBF4FF47F0C1CEAD01234
:1025A0001EBF1CEAD11392EA0C0F93EA0C0F00F045
:1025B000478090EA010F48BF42F480724FF0004C10
:1025C0004CEA00204CEA012102EB0302A0FB0113BC
:1025D000A2F50002002918BF43F001035B0028BFE9
:1025E0004FEA330342EB22425FEA132C4CEBC2501A
:1025F0002EBFBCEB436FB2F57C0F70474FEA036C04
:10260000BCF1004F08BF20F00100B2F57C0F38BFCD
:1026100070470BD582F0FF0212F5803FC8BF7047AC
:1026200000F1C040D8BF00F00040704700F5000C3A
:102630005FEA4C0C48BF7047B0F1C04000F073B87F
:1026400090EA010F0CEAD11348BF42F48072624550
:1026500038BF634504D280EA010000F000407047B3
:1026600010B500F01AF800BF8900013E00F007B86D
:1026700000F009B85FEA410C5FEA1C6C08D080EA00
:10268000010000F050B85FEA400C5FEA1C6CF6D124
:102690004FF00040A0F5800070470EF1020E2EF0C2
:1026A000030E5EF8044B244204D44FEA4102B2F117
:1026B0007F4F11D84FEA4003B3F17F4F0CD80ED1B2
:1026C0004FEAD07CB2F17F4F0CEB4C0C0CF1020CBA
:1026D00008BF4CEBD17C04E04FF0080C01E04FEA5E
:1026E000D17C0CEB4C0324FA03F404F00704B4F19E
:1026F000040C06D20EEB840CBDE810404CF0010C2B
:102700006047DFE80CF0070802024FF00040A0F538
:10271000800010BD0846420018BFD2F1807288BF09
:1027200000F0004010BDFF2141EAD050C0057047C5
:1027300051EA000C00F113801CF5000F58BFBCF5E6
:10274000000F01D48142704707D711F5000F58BF21
:1027500010F5000F15D481427047894270471CF56F
:10276000000F04D5BCF5000FF7D5884270474FF035
:10277000807C1CEB410F38BF1CEB400F01D288421C
:10278000704780EA010081EA000180EA0100FFF75A
:10279000F8BE000090EA010F48BF81F000413FF50C
:1027A0002CAE421A04D882F00042A0EB0200114481
:1027B0004FEAD0524FF07F4C1CEA410FA2EBD153AD
:1027C00018BF9CEA026F4AD04FF0004C4CEA002040
:1027D0004CEA012121FA03FCB0EB0C0C0FD412F0EF
:1027E000FE0F36D05FEA4C001DD5001240EBC25000
:1027F00038BF70471CF03F0F18BF70470BE0A2F1C5
:1028000001025FEA1C2040EBC25038BF70471CF049
:102810007F0F18BF7047C3F12003994014BF401EBB
:1028200020F00100704780084FEA122308BF70476C
:10283000B0FA80FCA2EB0C02CCF1280C60FA0CF090
:1028400093EA122F04BF00EBC25070474FEAC370E7
:102850007047130A5FEADC1008BF7047F6E79CEA8E
:10286000026F04D010EA5C0F08BF0020704710B55B
:10287000FFF713FF40DFF63E81F000407047010292
:1028800002030405060708090A0B0C0D0E0F1010B1
:102890000000000000000000010203040607080910
:1028A0000000000001020304C82800080000002006
:1028B0002000000028010008E8280008200000206F
:1028C000980700004401000800000000010000001B
:1028D000100000000000000000127A00000000005C
:0828E0000000000001010000EE
:04000005080000ED02
:00000001FF
