:020000040800F2
:1000000090060020010100080D270008651F000868
:100010003D260008C9080008AD30000800000000B7
:100020000000000000000000000000002D2A000871
:10003000CB080008000000002B2A00082F2A000827
:100040001B0100081B0100081B0100081B01000820
:100050001B0100081B0100081B0100081B01000810
:10006000D50800081B010008DB0800081B01000878
:100070001B0100081B0100081B0100081B010008F0
:100080001B0100081B0100081B0100081B010008E0
:100090001B0100081B0100081B0100081B010008D0
:1000A0001B0100081B0100081B0100081B010008C0
:1000B000F92B0008052C00081B0100081B01000893
:1000C0001B0100081B0100081B0100081B010008A0
:1000D0001B0100081B0100081B010008A1300008DB
:1000E000CD0800081B0100081B010008DFF80CD038
:1000F00000F0D8FB00480047653400089006002057
:100100000648804706480047FEE7FEE7FEE7FEE7B1
:10011000FEE7FEE7FEE7FEE7FEE7FEE7912A0008BE
:10012000ED000008202A04DB203A21FA02F0002129
:10013000704721FA02F3D040C2F1200291400843F7
:1001400019467047D2B201E000F8012B491EFBD2DC
:1001500070470022F6E710B513460A4604461946D2
:10016000FFF7F0FF204610BDF0B480EA0102D40F83
:100170004200B2EB410F02D20246084611464A0045
:1001800042D0C30DDDB2C1F3C752AD1A202D35DA0E
:10019000C1F3160141F4000204B15242C5F1200638
:1001A00002FA06F12A411044B3EBD05F23D0C4B168
:1001B000012DA0EBC35009DCF0BC4FF0004202EA75
:1001C000C352DBB200F5000000F0CABA400000F1F3
:1001D000807000EBC350A0F1807040EAD1704900FC
:1001E00009E0490841EAC071A0EBC35000F50000E6
:1001F000400800EBC350F0BC00F0A9BA61420122F4
:1002000002EB4101001BF6E7F0BC704781F00041B2
:10021000AAE780F00040A7E780EA010210B502F0EB
:100220000043400022D04A001FD0010E01EB1261B2
:10023000C0F35600C2F3560240F4000042F400023C
:10024000A0FB022000047F39140400D0401C50EAB7
:10025000124001D44000491EC2B20C0604EBD0107B
:10026000401C4008802A02D003E0002010BD20F08E
:100270000100002900DA0020184310BD30B480EAE4
:10028000010202F0004530F0004221F0004013D09E
:1002900090B1C30DD40DC2F31601C0F31600E41AD9
:1002A00041F4000140F400027D34914201D3641C0A
:1002B00000E04900002C02DA30BC002070474FF407
:1002C00000000023914201D3891A034340084FEAFA
:1002D0004101F7D151B1914202D14FF0004105E007
:1002E00002D24FF0010101E06FF0010103EBC450B5
:1002F000284430BC00F02BBA420005D0C0F3C752EE
:100300005242914201DC0020704700EBC15070471F
:100310002DE9FE4F804681EA0300C00F0C46009095
:1003200021F0004123F00045B8EB0200A94105D2BD
:100330004046214690461C460B46024623F00040AC
:10034000104347D0270DC7F30A00C3F30A510290A8
:10035000401A019040286BDAC3F3130040F4801B6D
:100360000098924620B10023D2EB030A63EB0B0BFB
:1003700001985946C0F14002504600F0C7F90646C0
:100380000D4650465946019A00F0CFF910EB08008F
:100390006141002487EA115284EAE7731A4340D08E
:1003A000009A62B3019A012A4FEA075215DC001B3A
:1003B00061EB02014FF0004202EA0752CDE9004230
:1003C000001C41F5801132462B4600F006FA03B0BE
:1003D000BDE8F08F40462146F9E7001B61EB0201C2
:1003E000001C41F5801300185B412018A2F500178E
:1003F00047EB030140EAD570B6196D4111E06D0875
:100400004FEA360645EAC0754FEA0752001B61EB1A
:100410000201001C41F5801149084FEA3000001923
:10042000514132462B4603B0BDE8F04F00F0C6B94B
:100430000098012240000023D0EB020263EBE0733E
:10044000009821464FEAE074B8EB000061EB04012C
:10045000E9E783F000435BE781F0004158E72DE9CD
:10046000FE4F81EA030404F0004421F000410094AF
:100470004FF0000B23F0004350EA01045ED052EA33
:1004800003045BD0C3F30A54C1F30A552C44A4F20D
:10049000F3340194A0FB0254C1F3130141F4801121
:1004A000C3F3130343F4801301FB024400FB034E28
:1004B000840A970A44EA815447EA8357A4FB0768F1
:1004C00002958D0A05FB07854FEA932C04FB0C541B
:1004D0002705029D4FEA065847EA1637B5EB08058F
:1004E0006EEB070C870E920E47EA811742EA8312E1
:1004F000A7FB0201B6EB0B0164EB00042B0D43EAF2
:100500000C335E1844EB1C50DA465146E7FB0201FF
:10051000C5F313044FEA0B3343EA14534FEA043292
:10052000019C43EA0603A4F10C040294009CCDE96B
:1005300000B400F052F903B0BDE8F08F002001468E
:10054000F9E72DE9F04D81EA030404F0004B21F0B6
:10055000004514464FF0000A23F0004150EA05021E
:1005600020D054EA01021DD0C5F30A570246C5F354
:100570001303C1F31300C1F30A5640F4801543F48A
:100580008013A7EB0608101BD64608F2FD3873EB64
:10059000050002D308F1010801E092185B41B8F1AF
:1005A000000F03DA00200146BDE8F08D00204FF473
:1005B0008011064684460EE0171B73EB050705D332
:1005C000121B63EB050306434CEA010C49084FEA92
:1005D000300092185B4150EA0107EDD152EA030066
:1005E00012D082EA040083EA0501084305D0101BFB
:1005F000AB4106D20122002306E000224FF0004367
:1006000002E06FF0010253101AEB06004CEB0851A8
:1006100010EB0A0041EB0B01BDE8F04D00F0CEB845
:10062000C10F80EAE0700844CA079623002100F059
:1006300097B80EB5C10F80EAE0700844CA070021E0
:1006400040F233438DE80E000A460B4600F0C5F831
:1006500003B000BD00F0004220F00040C10DC0F327
:10066000160040F400007F2901DA00207047962927
:1006700003DCC1F19601C84001E096398840002AA8
:10068000F4D04042704720F00040C10DC0F3160086
:1006900040F400007F2901DA00207047962903DC2E
:1006A000C1F19601C840704796398840704700F004
:1006B000004230F000400AD0C10D01F56071C0F376
:1006C000160042EA0151C20840071143704700205A
:1006D0000146704701F0004330B421F0004150EA78
:1006E000010206D00A0DA2F56072C1F31301002ABF
:1006F00002DC30BC00207047440F44EAC104C10052
:10070000E01830BC00EBC25000F021B8202A04DB16
:10071000203A00FA02F1002070479140C2F1200314
:1007200020FA03F3194390407047202A06DBCB17C9
:10073000203A41FA02F043EAE07306E041FA02F39C
:10074000D040C2F120029140084319467047002969
:10075000A8BF7047401C490008BF20F00100704747
:1007600010B4B0FA80FC00FA0CF050EA010404BFA7
:1007700010BC704749B1CCF1200421FA04F411FAFD
:100780000CF118BF012121430843A3EB0C01CB1D41
:100790004FEA00614FEA102042BF002010BC7047B2
:1007A00000EBC35010440029A4BF10BC7047401C8C
:1007B000490008BF20F0010010BC704710B5141E9E
:1007C00073F1000408DA401C41F1000192185B410A
:1007D0001A4301D120F0010010BD2DE9F04D9246E1
:1007E0009B4611B1B1FA81F202E0B0FA80F22032F8
:1007F0009046FFF78BFF04460F4640EA0A0041EAA5
:100800000B0153465A46084313D0114653EA0100E0
:1008100019D0C8F140025046FFF784FC05460E4649
:10082000504659464246FFF771FF084305D0012064
:1008300004E020463946BDE8F08D0020054346EA35
:10084000E0762C4337430A986305E40AA0EB0800DE
:100850000022FD0A44EA47540A3002D5002001462E
:10086000E9E7010510196941DDE908450019694109
:10087000BDE8F04DA2E770B521F0004303430CD072
:10088000C1F30A550024D5EB040564EB0403D61725
:10089000AD1AB34102DB0020014670BD201841EBC8
:1008A000025170BD064C074D06E0E06840F00103C0
:1008B00094E8070098471034AC42F6D3FFF71AFCCF
:1008C000A0380008C0380008FEE770474FF4004029
:1008D00000F0B6B8042000F0B3B8102000F0B0B8B3
:1008E00072B6FEE710B590F821100022022905D05B
:1008F0000421816380F82020012010BD01680B686D
:1009000023F00E030B6001680B6823F001030B60FA
:1009100090F84030C46B012101FA03F3636080F862
:10092000211080F82020104610BD000010B590F86E
:1009300021100024022903D00421816301243DE019
:1009400001680A6822F00E020A6001680A6822F053
:1009500001020A601A4A0168914201D1012121E095
:10096000174A1432914201D110211BE0144A283257
:10097000914201D1891515E0114A3C32914201D1D1
:1009800089140FE00E4A5032914202D14FF4803167
:1009900008E00B4A6432914202D14FF4801101E029
:1009A0004FF08071064A083A5160012180F8211009
:1009B000002180F82010416B01B18847204610BD0E
:1009C0000800024070B5044600F040F90546601C7E
:1009D00002D004480078044400F038F9401BA042DB
:1009E000FAD370BD1000002010B5114A042808D0B9
:1009F000102810D0B0F5004F02D10E4901208870A8
:100A000010BD0821104600F017F90B49012809D044
:100A10000BE0086010BD2021104600F00DF90749D9
:100A2000012802D00868401EF3E70868401CF0E780
:100A300000080140000000202000002024000020C9
:100A4000044910B50A68024202D00860FFF7CCFFE3
:100A500010BD0000140401402DE9F84FDFF8B891F3
:100A60000024A9F1040B23460F2709F1040AABF176
:100A7000040EC9E00125A5402A40AA427DD1674E57
:100A8000D1F804C0ACEB0608B44532D014DCBCF19C
:100A9000030F3AD009DCBCF1000F2AD0BCF1010FE2
:100AA0001CD0BCF1020F31D11DE0BCF1110F17D0E9
:100AB000BCF1120F2AD119E0B8F5881F19D006DC55
:100AC000B8F5803F15D0B8F5801F1FD111E0B8F5FB
:100AD000001F0ED0B8F5041F18D10AE0CB6815E04E
:100AE000CB681B1D12E0CB6808330FE0CB680C33DA
:100AF0000CE08B682BB1012B4FF0080303D045614C
:100B000004E0042302E0056100E00023FF2A01D88D
:100B1000064601E000F104064FEA840501D9A5F17B
:100B20002005D6F8008007FA05FC28EA0C0803FA2D
:100B300005F548EA0508C6F800804D68ED0062D565
:100B4000374DAE6946F00106AE61AD6924F003068B
:100B500005F001050095334D06EB050CDCF8085057
:100B6000A607360F07FA06F825EA0805DFF8B88069
:100B7000404503D14FF0000817E044E0DFF8AC80B7
:100B8000404502D14FF001080FE0DFF8A480404556
:100B900002D14FF0020808E0DFF89880404502D10A
:100BA0004FF0030801E04FF0040808FA06F848EA9D
:100BB0000508CCF808804D68D9F80060ED024D4674
:100BC00001D5164300E096432E604D68DAF80060C8
:100BD000AD02554601D5164300E096432E604D68A0
:100BE000DBF80060AD035D4601D5164300E0964397
:100BF0002E604D68DEF80060ED03754601D51643A2
:100C000000E096432E60641C0D682A46E5407FF4A0
:100C100031AFBDE8F88F000008040140000011105A
:100C2000001002400000014000080140000C01409B
:100C300000100140001401408068084000D00120ED
:100C400070470AB1016170470904FBE701488068F9
:100C5000704700001000002070B5040025D094F803
:100C60003D00002520B984F83C50204600F04EF9A4
:100C7000242084F83D002068016821F00101016012
:100C80002068016841F4004101602068016821F496
:100C90000041016000F096FA4D4A6168914201D826
:100CA0004C4900E04C49884201D2012070BD4B49BB
:100CB0002368B0FBF1F15E6826F03F060E435E60EC
:100CC0006368934206D94FF4967359434FF47A738D
:100CD000B1FBF3F12368491C1E6A26F03F0631433D
:100CE00019626168914210D84900401EB0FBF1F2D0
:100CF000521CC2F30B02042A01D2042022E0B0FBF2
:100D0000F1F0401CC0F30B001CE0A268F2B301EB51
:100D1000C10303EB0116431EB3FBF6F35B1C43F464
:100D200080431B0549D092B301EBC10202EB0111D4
:100D3000401EB0FBF1F0401CC0F30B0040F48040BB
:100D400040F400402168CA694CF6FF739A4310438F
:100D5000C861D4E9071001432068026822F0C0028C
:100D600011430160D4E9030101432068826848F21D
:100D7000FF339A4311438160D4E905010843216898
:100D8000CA6822F0FF021043C86001E00EE016E0DE
:100D90002068016841F0010101602564202084F889
:100DA0003D00256384F83E50002070BD01EB4106F4
:100DB000431EB3FBF6F35B1CB3E70120C2E701EB74
:100DC0004101401EB0FBF1F0401CC0F30B00B7E73F
:100DD000A086010080841E0000093D0040420F00F3
:100DE0002DE9F84F1F4690468A460446DDF82890C4
:100DF000FFF72CFF054694F83D0020287FD11923EA
:100E0000012240492046009501F03EF9002876D1A4
:100E100094F83C00012872D0012084F83C0020683E
:100E20000168C90703D1016841F001010160206830
:100E3000016821F400610160212084F83D00102048
:100E400084F83E0000262664C4F824806785608DFF
:100E500020852D48E0622B464A465146204601F047
:100E600099F890B9206841698069009036E02A4677
:100E70004946204601F0AEF950B1206C042804D157
:100E80002068016841F4007101600120BDE8F88F1D
:100E9000606A216800780861606A401C6062618D48
:100EA000491E6185218D491E89B2218522685369B9
:100EB000DB435B070BD451B100781061606A401CC2
:100EC0006062608D401E6085208D401E20852A4610
:100ED0004946204601F0ACF80028CED1208D0028EC
:100EE000C5D154F83D0B016841F400710160202028
:100EF00004F81E09E67766770020C7E7FFE70220BF
:100F0000C4E70000020010000000FFFF10B586B02B
:100F10000021009101910291039100680F498842DC
:100F20001AD10F4CA06940F00800A061A069694681
:100F300000F008000490C0200090122001900320CF
:100F400003900848FFF788FDE06940F40010E06175
:100F5000E06900F40010049006B010BD0054004099
:100F600000100240000C01400248816802781144E0
:100F70008160704710000020074810B5016841F0FB
:100F800010010160032000F075F80F2000F006F852
:100F900000F024F8002010BD0020024070B50D4D77
:100FA00004464FF47A712878B1FBF0F00A490968D9
:100FB000B1FBF0F000F0DCFA48B9102C07D20022A7
:100FC0002146501E00F036F800206C6070BD0120F4
:100FD00070BD0000100000201C0000200C4808B567
:100FE000816941F001018161816901F00101009194
:100FF000C16941F08051C161C06900F0805000902A
:101000000448416821F0E06141F00071416008BD91
:101010000010024000000140002809DB00F01F0220
:10102000012191404009800000F1E020C0F800114A
:1010300070470000F0B40E4B1B680C46C3F302234C
:10104000C3F10705042D00D90425191D072901D274
:10105000002300E0DB1E012606FA05F1491E2140AF
:1010600099409E40761E16403143F0BC02F033B8E2
:101070000CED00E0064900F0070208684FF6FF0398
:10108000184040EA0220034A1043086070470000FD
:101090000CED00E00000FA052DE9F0470F460500D1
:1010A00061D0434E306800F00700B84209D2306882
:1010B00020F0070038433060306800F00700B84285
:1010C00051D128683B4C810712D5400703D5606891
:1010D00040F4E06060602878000703D5606840F461
:1010E000605060606068A96820F0F00008436060AC
:1010F0002878C00728D06868012810D02168022805
:1011000010D0890700292EDA616821F0030101431C
:101110006160FFF79BFD804641F288390DE0216850
:101120008903EFE78901EDE7FFF790FDA0EB0801E8
:10113000494502D90320BDE8F0876068696800F07E
:101140000C00B0EB810FEFD1306800F00700B8421F
:101150000BD9306820F0070038433060306800F069
:101160000700B84201D00120E5E72878400705D5FF
:101170006068E96820F4E060084360602878000750
:1011800006D56068296920F4605040EAC1006060BB
:1011900000F038F86168084AC1F30311515CC84097
:1011A0000649086006480068FFF7F8FE0020C2E71D
:1011B0000020024000100240F03700081C00002010
:1011C000140000200448054900684968044AC1F336
:1011D0000221515CC84070471C00002000100240F2
:1011E000003800080448054900684968044AC1F30A
:1011F000C221515CC84070471C0000200010024012
:10120000003800080E4A51680E4801F00C03042B08
:1012100011D0082B0FD10C48C1F38343C903C05C24
:101220000AD55168084AC1F34041921E515C054AF3
:101230005043B0FBF1F07047044948437047000049
:101240000010024000127A00E037000800093D005B
:101250002DE9F84F040070D02078C04DC00749D068
:101260006868C0F38100012807D06868C0F3810076
:10127000022809D16868C00306D52868800339D5DB
:1012800060680028E7D035E06068B0F5803F0BD09B
:1012900010B1B0F5A02F11D0286820F4803028605C
:1012A000286820F4802002E0286840F4803028601C
:1012B000606890B1FFF7CAFC06460AE0286840F46F
:1012C00080202860F0E700BFFFF7C0FC801B642887
:1012D00073D828688003F7D50CE0FFF7B7FC064603
:1012E00005E000BFFFF7B2FC801B6428F0D8286837
:1012F0008003F7D420789A4E80074FF001094FF011
:10130000000839D5686810F00C0F07D06868C0F382
:101310008100022809D16868C00306D428688007C4
:1013200014D52069012808D110E02069B0B1C6F8B1
:101330000090FFF78BFC074605E00AE1FFF786FC0B
:10134000C01B0228C4D828688007F7D528686169BF
:1013500020F0F80040EAC10028600DE0C6F80080E7
:10136000FFF774FC074604E0FFF770FCC01B02287F
:1013700023D828688007F7D4207800072CD579482F
:10138000A169D9B1C0F80090FFF760FC074604E0FE
:10139000FFF75CFCC01B02280FD8686A8007F7D5EE
:1013A00071484FF4FA510068B0FBF1F0009000BFB3
:1013B0000098411E0091FAD20EE080E0C0F8008053
:1013C000FFF744FC074604E0FFF740FCC01B02287F
:1013D00075D8686A8007F7D42078400760D5E86937
:1013E0000027C00008D4E86940F08050E861E8694F
:1013F000012700F0805000905C480168C90513D4B3
:101400000168834641F480710160FFF71FFC82464A
:1014100006E000BFFFF71AFCA0EB0A0064284ED8D4
:10142000DBF80000C005F5D5E06801280AD008B156
:10143000052813D0286A20F001002862286A20F0CD
:10144000040002E0286A40F001002862E06841F2EE
:10145000883B98B1FFF7FAFB82460BE0286A40F020
:1014600004002862EEE700BFFFF7F0FBA0EB0A01E3
:1014700059455AD8286A8007F6D50CE0FFF7E6FBF5
:10148000824605E0FFF7E2FBA0EB0A0159454CD884
:10149000286A8007F6D41FB1E86920F08050E8611F
:1014A000E06988B36968C1F38101022944D0022848
:1014B000C6F8608004D0FFF7C9FB044638E034E08A
:1014C000FFF7C4FB074604E0FFF7C0FBC01B022880
:1014D0002BD828688001F7D4206AB0F5803F05D169
:1014E0006868A16820F4003008436860D4E9080106
:1014F0000843696821F4741108436860C6F8609075
:10150000FFF7A4FB044606E025E000BFFFF79EFBC3
:10151000001B022809D828688001F7D51BE000BF0E
:10152000FFF794FB001B022802D90320BDE8F88FC7
:1015300028688001F4D40EE00128F7D06868226A98
:1015400000F48031914204D1616A00F47010884245
:1015500001D00120EAE70020E8E700000010024087
:1015600000004242800442421C0000200070004003
:1015700010B5401EB0F1807F01D3012010BD4FF0A7
:10158000E02460610F21601701F0A5FD0020A0613B
:1015900007202061002010BD7047704770B590F89B
:1015A0003C20012A26D0012480F83C40022280F809
:1015B0003D2003685A689D6822F070060A6832432D
:1015C0005A600D4B02689A4208D0B2F1804F05D0A4
:1015D0000A4B9A4202D00A4B9A4204D1496825F03C
:1015E00080031943916080F83D40002180F83C1051
:1015F000084670BD022070BD002C01400004004070
:101600000008004010B5040003D094F83D0010B16C
:1016100007E0012010BD002084F83C00204600F0C7
:101620001FF8022084F83D00211D206801F0F0FA27
:10163000012084F8460084F83E0084F83F0084F8D6
:10164000400084F8410084F8420084F8430084F8A4
:10165000440084F8450084F83D00002010BD0000DF
:1016600008B501681448B1F1804F14D0134A914273
:1016700020D1C16941F00201C161C069002200F0BE
:101680000200009011461D20FFF7D4FC1D20BDE88C
:101690000840FFF7C1BCC16941F00101C161C069E7
:1016A000002200F00100009011461C20FFF7C2FC50
:1016B0001C20ECE708BD00000010024000040040C0
:1016C00090F83D10012901D001207047022180F8D7
:1016D0003D100168CA6842F00102CA6000680B4907
:1016E000884208D0B0F1804F05D00949884202D025
:1016F0000849884204D1816801F00701062903D016
:10170000016841F00101016000207047002C014098
:10171000000400400008004070B5044690F83C000A
:101720000025012817D0012684F83C60022084F8A7
:101730003D002068826822F0770222F47F428260B6
:101740000868502838D00DDC20284FD005DC90B335
:10175000102811D14AE0022070BD302846D0402820
:101760000AD13BE060282FD070280DD0B0F5805F03
:1017700003D0B0F5005F12D0012584F83D60002051
:1017800084F83C00284670BDCB68D1E9012120686F
:1017900001F087FA2068816841F0770109E0CB68A1
:1017A000D1E90121206801F07CFA2068816841F4C8
:1017B00080418160E1E719E0CA684968206801F06A
:1017C00025FB5021206806E0CA684968206801F0BE
:1017D0002EFB6021206801F06EFACEE7CA684968E6
:1017E000206801F013FB40212068F4E722680146DD
:1017F0001046F0E770472DE9F04104460068C668DE
:1018000005694FF00007A90713D5B10711D5F91ED7
:10181000016101202077206880698007204602D07E
:10182000FFF7E8FF04E000F0A3F8204600F035F9E8
:101830002777680716D5700714D521686FF0040064
:101840000861022020772068806910F4407F2046DC
:1018500002D0FFF7CFFF04E000F08AF8204600F046
:101860001CF92777280715D5300713D521686FF0A5
:1018700008000861042020772068C069800720469E
:1018800002D0FFF7B7FF04E000F072F8204600F046
:1018900004F92777E80616D5F00614D521686FF00D
:1018A00010000861082020772068C06910F4407F8C
:1018B000204602D0FFF79EFF04E000F059F82046D2
:1018C00000F0EBF82777E80708D0F00706D021688A
:1018D0006FF001000861204600F02EF9280608D5B7
:1018E000300606D521686FF0800008612046FFF7BA
:1018F00053FE680608D5700606D521686FF04000D3
:101900000861204600F030F9A8060AD5B00608D5CF
:1019100021686FF0200008612046BDE8F041FFF724
:101920003CBEBDE8F081000000B585B0002100910B
:101930000191029103910068B0F1804F11D10A48E2
:10194000816941F0040181618069694600F0040009
:101950000490032000900220019003900348FFF7B9
:101960007BF805B000BD00000010024000080140F7
:10197000704770B5044690F83C0000260D460128DB
:101980000FD0012084F83C006AB1042A1DD0082A37
:101990002FD00C2A3FD00126002084F83C0030468E
:1019A00070BD022070BD206801F08EF92068816949
:1019B00041F0080181612068816921F004018161A1
:1019C000206881692A69114311E0206801F0A4F9B7
:1019D0002068816941F4006181612068816921F496
:1019E00080618161206881692A6941EA02218161FF
:1019F000D2E7206801F0BCF92068C16941F0080114
:101A0000C1612068C16921F00401C1612068C16918
:101A10002A69114311E0206801F0D6F92068C169F4
:101A200041F40061C1612068C16921F48061C16134
:101A30002068C1692A6941EA0221C161ACE710B599
:101A4000040003D094F83D0010B107E0012010BD60
:101A5000002084F83C00204600F01EF8022084F8A4
:101A60003D00211D206801F0D3F8012084F84600D4
:101A700084F83E0084F83F0084F8400084F8410078
:101A800084F8420084F8430084F8440084F8450058
:101A900084F83D00002010BD7047704710B5044623
:101AA000022249B104290ED0082913D094F841002C
:101AB000012816D0012010BD94F83E000128F9D16C
:101AC00084F83E200FE094F83F000128F2D184F81A
:101AD0003F2008E094F840000128EBD184F8402032
:101AE00001E084F841200122206801F0CDF80F497F
:101AF0002068884203D1426C42F40042426420686C
:101B0000884208D0B0F1804F05D00949884202D000
:101B10000849884204D1816801F00701062903D0F1
:101B2000016841F001010160002010BD002C01405E
:101B3000000400400008004010B5006808498842D1
:101B40000CD100F00DFF07484178491CC9B2417023
:101B5000052903D3002141700121017010BD00004F
:101B600000040040000000207047704770470000EC
:101B7000F8B5016804460868CA684B6910F00F0F91
:101B80004FF0000559D003F0010602F49077374377
:101B900065D0C10705D0D10503D5616C41F00101C5
:101BA0006164410705D5D90703D0616C41F002019A
:101BB0006164810705D5D90703D0616C41F0040148
:101BC0006164010707D502F02001314303D0616C45
:101BD00041F008016164616C00293AD0800604D5A7
:101BE000900602D5204601F063F920684069616CD7
:101BF000C0F38010090700D460B3204601F031F92A
:101C000020684069400621D52068143050E8001F44
:101C100021F0400140E80012002AF5D1E06BA8B1A4
:101C20006D494163E06BFEF781FE002811D0E06B47
:101C3000416B01B0BDE8F040084783060FD593061D
:101C40000DD52046BDE8F84001F032B92046FFF737
:101C50008DFFF8BD2046FFF789FF6564F8BD266B50
:101C60002023012E7CD1C6067AD5D60678D5086801
:101C70004868009048694FF00206400640D5E16B85
:101C8000086840680004000CE8D0A28D8242E5D9C3
:101C9000E085886920282DD020680C3050E8001F8E
:101CA00021F4807140E80012002AF5D12068143038
:101CB00050E8001F21F0010140E80012002AF5D190
:101CC0002068143050E8001F21F0400140E8001265
:101CD000002AF5D184F84230256320680C3050E8A2
:101CE000001F21F0100140E80012002AF5D1E06B3E
:101CF000FEF7F8FD6663A08DE18D401A81B22AE0FF
:101D0000A08DE18D401A81B2E08D0028A6D0002977
:101D1000A4D022680C3252E8000F20F4907042E800
:101D20000007002FF5D12068143050E8002F22F072
:101D3000010240E80027002FF5D184F842302563E6
:101D400020680C3050E8002F22F0100240E80023F9
:101D5000002BF5D166632046FFF707FFF8BDFFE7CC
:101D600005062BD5150629D594F841002128F5D173
:101D7000A068B0F5805F01D12069B0B1206A411C34
:101D80002162216800784860E08C401E0004000C4D
:101D9000E084E3D12068C16821F08001C16020683F
:101DA000C16841F04001C160D8E7206A0088C0F3F3
:101DB00008004860206A801C2062E5E74006CDD517
:101DC0005006CBD5CA68204622F04002CA6084F88B
:101DD000413000F0C6F8C1E7532E000870B504008A
:101DE00004D094F84100002510B106E0012070BD38
:101DF00084F84050204600F023F8242084F8410065
:101E00002068C16821F40051C160204601F0B2F899
:101E10002068016921F4904101612068416921F045
:101E20002A0141612068C16841F40051C1606564C4
:101E3000202084F8410084F842006563002070BDD2
:101E400030B585B000240094019402940394006896
:101E5000184988422CD11848C16941F48021C161D8
:101E6000C16901F480210491816941F00801816117
:101E70008069124D00F0080004904FF480600090DB
:101E8000022001900320039069462846FEF7E4FDF6
:101E9000E814CDE90004694628460294FEF7DCFD0B
:101EA000002211462720FFF7C5F82720FFF7B4F8D6
:101EB00005B030BD0048004000100240000C014059
:101EC00070472DE9F843044690F8410098461646BD
:101ED0000D46202802D00220BDE8F88385B17EB1EE
:101EE00000206064212084F84100FEF7AFFEA68444
:101EF0008146E684A0682027B0F5805F02D003E029
:101F00000120E9E7206910B12E4600250EE00026E9
:101F10000CE08021204601F089F8A8B9C6B116F876
:101F2000010B21684860E08C401EE084E08C4B4649
:101F30004FF00002CDF800800028EAD14FF04001B8
:101F4000204601F073F840B184F841700320C3E7E4
:101F500035F8020BC0F30800E3E784F84170002075
:101F6000BAE77047FEE701684A69D24352050FD4C9
:101F70006FF480624A61002140F8301F20224273D2
:101F80008173026942F0040202610173012070470B
:101F900000207047F8B50446C06A1E460D46174635
:101FA000082807D0012805D010F5803F02D0206B0B
:101FB000122804D12068016841F480710160134641
:101FC00000224FF001112046009600F05DF840B16C
:101FD00020680068C00502D54FF40070206403201B
:101FE000F8BD2069B0F5804F0ED00620216800EAC8
:101FF000D51040F0F000086133463A460B492046C0
:1020000000F08AF878B902E005F0FE0000E0E8B2DE
:1020100021680861054933463A46891F204600F089
:102020007BF80028DCD00120F8BD0000080001008A
:1020300070B516460D4604461EE02046FFF793FF96
:1020400008B1012070BD681C16D0FEF7FFFD801B93
:10205000A84200D885B920684069C04340070BD525
:10206000002044F8300F20216173A073216941F0F2
:10207000200121612073E4E720684069C0434007E4
:10208000DBD4002070BD00002DE9F04798461746CC
:102090000D460446C1F30746DDF820902AE000BF54
:1020A000B8F1FF3F26D0FEF7D1FDA0EB0901414575
:1020B00002D8B8F1000F1DD12068012E16D080691A
:1020C00025EA00000004000C12D00020B84211D113
:1020D000002044F8300F20216173A073216941F082
:1020E0002001216120730120BDE8F0874069E7E706
:1020F0000120EBE72068012E0AD0806925EA000064
:102100000004000C06D00020B842C9D00020EBE744
:102110004069F3E70120F7E72DE9F04798461646B6
:102120000D4604464FF000094FF0200AC1F307475F
:1021300023E020684069C043400515D42068016849
:1021400041F40071016021686FF480604861C4F857
:10215000309084F83DA084F83E90216C41F0040159
:10216000216484F83C9021E0701C06D0FEF76EFDDF
:10217000A0EB0800B04203D816B1012F1FD021E018
:102180002068012F15D0806925EA00000004000CAA
:1021900018D000BF44F8309F84F80DA084F80E904A
:1021A000216941F02001216184F80C900120BDE8F3
:1021B000F087406925EA00000004000CEAD120689D
:1021C000406901E02068806925EA00000004000CF5
:1021D000AFD1ECE770B516460D4604461EE020462A
:1021E000FFF7C1FE08B1012070BD681C16D0FEF7D4
:1021F0002DFD801BA84200D885B920684069C043E6
:1022000000060BD5002044F8300F20216173A07325
:10221000216941F0200121612073E4E720684069D1
:10222000C0430006DBD4002070BD2DE9F74F044603
:1022300084B0C06A019001461046FDF7E7FFD4F86C
:102240001C804146FDF7E8FFA16AFDF78DFF83463C
:10225000A06941460290FDF7DFFF41460090FDF77F
:10226000DBFFD4E90457064639462846FDF77CFFD4
:102270004146FDF7D1FFE168FDF7CBFF3146FDF7A1
:1022800073FF2168FDF770FF824629460098FDF72D
:10229000C0FF814639460098FDF7BBFF8046616864
:1022A0000298FDF761FF00905046A168FDF75CFFC2
:1022B000054629465046FDF7E1FF074620622946BC
:1022C0004046FDF7DBFF0646606259460598FDF77C
:1022D0009DFF3946FDF7A0FF5946FDF745FF05462E
:1022E000A06229460598FDF791FF3146FDF794FF5E
:1022F0000199FDF739FFE06239464FF07E50FDF756
:1023000085FF07465146FDF787FF8246E060384665
:102310004946FDF781FF0746206131465046FDF7EB
:102320007BFF4146FDF775FF606131463846FDF79A
:1023300073FF0099FDF76DFFA06107B02846BDE867
:10234000F08F10B56420FEF73DFB02216B2000F0FA
:1023500017F82721192000F013F800211A2000F0A7
:102360000FF818211B2000F00BF800211C2000F0B2
:1023700007F80121BDE81040382000F001B8000046
:102380001CB502238DF804004FF0FF308DF80510C6
:10239000009001AAD0210248FEF722FD1CBD0000DA
:1023A000C4000020F0B585B000243D48009401949D
:1023B00002940394816941F010018161816901F007
:1023C00010010491816941F020018161816901F06E
:1023D00020010491816941F004018161816901F06A
:1023E00004010491816941F00801816180692D4FE8
:1023F00000F008004FF47076049000223146384611
:10240000FEF71FFC1420009027480125CDE90105A7
:1024100069463846FEF720FB28208DE831006946E2
:102420003846FEF719FB0220CDE90240CDE90065F0
:1024300069463846FEF710FBE80300901B48CDE9DB
:10244000010569463846FEF707FB38208DE8310064
:10245000174D69462846FEF7FFFA4FF44070CDE964
:102460000004694628460294FEF7F6FA0022114657
:102470000820FEF7DFFD0820FEF7CEFD0022114602
:102480000A20FEF7D7FD0A20FEF7C6FD00221146FE
:102490002820FEF7CFFD2820FEF7BEFD05B0F0BDD9
:1024A000001002400008014000002110000011103F
:1024B000000C01400D4810B50B4901600C4941600A
:1024C00000214FF480428160C0E9031241618161C3
:1024D000C1610162FEF7C0FB002803D0BDE81040D7
:1024E000FEF7FEB910BD000000540040C4000020FB
:1024F000A086010010B58EB00024079408940994BA
:102500000A940B941C2168460C94FDF722FE224885
:102510004FF0804101604721C0E9011444F61F617A
:10252000C0E9031480218161FFF76CF808B1FEF760
:10253000D7F94FF48050079007A91748FFF7ECF838
:1025400008B1FEF7CDF91448FFF779FA08B1FEF7A4
:10255000C7F90B940BA910480C94FFF71FF808B1AA
:10256000FEF7BEF96020CDE900040294002269461E
:1025700009480494FFF7FDF908B1FEF7B1F9042208
:1025800069460548FFF7F5F908B1FEF7A9F90248D1
:10259000FFF7CAF90EB010BD1801002010B586B0C3
:1025A000002417480094019402940394049413495E
:1025B0000594016041F61F41C0E901146321C0E99F
:1025C000031480218161FFF71DF808B1FEF788F937
:1025D0004FF48050009069460948FFF79DF808B114
:1025E000FEF77EF9049404A905480594FEF7D6FF8A
:1025F000002801D0FEF774F906B010BD00040040B9
:10260000600100200C4810B50A4901604FF4E13127
:102610004160002181600C22C160C0E90412816127
:10262000C161FFF7DBFB002803D0BDE81040FEF7D7
:1026300057B910BD00480040A8010020FEE7000087
:1026400070B582B200210A4801F0B0F8094C0A4D79
:10265000402122782846FEF7F4FA207830B1002293
:102660002846BDE870408021FEF7EBBA0122F7E76B
:1026700018010020280000200008014070B582B237
:1026800004210C4801F092F80B4C0C4D4FF4807172
:1026900062782846FEF7D5FA607840B15FF0000214
:1026A0002846BDE870404FF40071FEF7CABA012217
:1026B000F6E7000018010020280000200008014073
:1026C0002DE9F0410C460E490E4D01260027002849
:1026D00001DB0E7001E00F704042FDF7A1FF2860A2
:1026E000084D09483435002C02DB0670204601E015
:1026F00007706042FDF794FF2860BDE8F08100009C
:1027000028000020F001002029000020FEE770B51D
:1027100000240021204600F0EFF80025002000F002
:102720000DF96D1CEDB2802DF8D3641CE4B2082CB9
:10273000EFD370BD10B586B00020029010488169BB
:1027400041F00801816180690E4C00F0080004909E
:102750004FF44070009011200190032003906946CF
:102760002046FEF779F9012211022046FEF769FAA8
:10277000012251022046FEF764FA06B010BD0000A7
:1027800000100240000C01402DE9F047144E0024D7
:1027900007464FF080084FF40079B51528FA04F287
:1027A0003A4049463046FEF74CFA01222946304667
:1027B000FEF747FA002229463046FEF742FA641C2B
:1027C000E4B2082CEAD3012229463046FEF739FA52
:1027D00029463046BDE8F0470022FEF732BA000035
:1027E000000C014070B501220B4D540221462846D1
:1027F000FEF727FA0122160231462846FEF721FA93
:10280000002221462846FEF71CFA31462846BDE83C
:1028100070400022FEF715BA000C014070B50A4D59
:102820004FF40074002221462846FEF70AFA0122DE
:1028300011022846FEF705FA21462846BDE87040F9
:102840000122FEF7FEB90000000C014010B5002087
:102850004FF47A720021491C9142FCD3401C9042F3
:10286000F8D3FFF767FFAE2000F057F8D52000F04F
:1028700054F8802000F051F8A82000F04EF83F20D6
:1028800000F04BF8D32000F048F8002000F045F8A5
:10289000402000F042F8A12000F03FF8C82000F0EE
:1028A0003CF8DA2000F039F8122000F036F88120E8
:1028B00000F033F8CF2000F030F8D92000F02DF8E8
:1028C000F12000F02AF8DB2000F027F8302000F09B
:1028D00024F8A42000F021F8A62000F01EF88D2096
:1028E00000F01BF8142000F018F8AF2000F015F8E5
:1028F000BDE81040FFF70BBF10B50C4640F0B0002C
:1029000000F00BF8102040EA141000F006F804F074
:102910000F00BDE81040AFF3008010B50446FFF78C
:1029200061FF7820FFF730FF0020FFF72DFF2046E2
:10293000FFF72AFFBDE81040FFF770BF10B504464F
:10294000FFF750FF7820FFF71FFF4020FFF71CFF25
:102950002046FFF719FFBDE81040FFF75FBF0000FA
:102960002DE9F041DFF89C80274A294ED8F808006D
:10297000136806F134071844244BC8F80800D8F847
:102980000C401D6825440024C8F80C5014601C60DD
:10299000B8F80420521C92B2A8F80420052A17D3D4
:1029A0001C49097841B100BFFDF73AFE70601A4832
:1029B000007818B1284602E04042F5E76842FDF78A
:1029C0002FFE7860C8F80840C8F80C40A8F804400A
:1029D0000F4800F091FE0E48343000F08DFE0C4898
:1029E00000F07CFE0A48343000F078FEF06AFDF713
:1029F00031FEFFF725FEF86AFDF72CFEBDE8F04139
:102A0000FFF73CBE2C000020200000202400002006
:102A1000F0010020280000202900002010B5029CB1
:102A20000163143080E81C0010BD70477047FEF74A
:102A30009BBA30B58FB028216846FDF78AFB142178
:102A40000AA8FDF786FB01210804CDE90010002447
:102A5000029402250491CDE907504FF4E01009904B
:102A60006846FEF7F5FB08B172B6FEE70F20CDE928
:102A70000A054FF48060CDE90C4002210AA80E94AB
:102A8000FEF70AFB002801D072B6FEE70FB030BD9A
:102A9000704700002DE9F041554C08212046FEF713
:102AA000CBF8544D20B910212046FEF7C5F860B38D
:102AB00008212046FEF7C0F848B910212046FEF74D
:102AC000BBF820B920212046FEF7B6F8E8B108216E
:102AD0002046FEF7B1F84FF4807670B910212046F9
:102AE000FEF7AAF848B920212046FEF7A5F820B93C
:102AF00031462046FEF7A0F838B131462046FEF7B1
:102B00009BF84FF4007710B106E001204DE0394604
:102B10002046FEF791F8E0B320212046FEF78CF81E
:102B200048B931462046FEF787F820B93946204695
:102B3000FEF782F868B320212046FEF77DF870B9D1
:102B400031462046FEF778F848B939462046FEF768
:102B500073F820B910212046FEF76EF8C8B1202185
:102B60002046FEF769F8B8B110212046FEF764F858
:102B7000A0B131462046FEF75FF888B10821204613
:102B8000FEF75AF870B139462046FEF755F858B1AD
:102B90000CE0FFE7022008E0032006E0042004E048
:102BA000052002E0062000E00720287029786FF059
:102BB0001300082919D2DFE801F0180406080B0EEB
:102BC00010161E210BE0014600E01E211E2006E02B
:102BD0001E21142003E01421F8E71E210520BDE882
:102BE000F041FFF76DBD0521F0E7BDE8F081000081
:102BF000000C01403C0000200148FEF7FCBD000035
:102C0000180100200148FEF7F6BD00006001002019
:102C1000F0B50268194B1A4C1A4D4FF08047984294
:102C200005D0B84203D0A04201D0A84203D122F07F
:102C300070064A683243984205D0B84203D0A04299
:102C400001D0A84203D122F44074CA6822434C69DF
:102C500022F08002224302608A68C2620A688262AD
:102C6000984201D109690163012141610169C907E4
:102C700003D0016921F001010161F0BD002C014088
:102C8000000400400008004010B501F01F030121BE
:102C9000046A99408C430462016A9A4011430162BC
:102CA00010BD10B5846842EA032224F47F440A432D
:102CB0002243826010BD826822F070020A4342F013
:102CC000070181607047000030B5036A026A22F094
:102CD000010202624268846924F073050C682C4387
:102CE00023F002058B682B430A4DA8420BD123F039
:102CF0000805CB6822F440722B434D6923F004038E
:102D000015438A692A4342608461496841630362CA
:102D100030BD0000002C014030B5026A036A23F088
:102D200010030362436884690D6824F4E64444EAAE
:102D300005248D6822F0200242EA05120B4DA842BC
:102D40000ED1CD6822F0800242EA05124D6923F4CB
:102D5000406343EA85038D6922F0400243EA85031C
:102D60004360846149688163026230BD002C014088
:102D700030B5036A026A22F4807202624268C46952
:102D800023F4007324F073050C682C438D6843EA28
:102D900005230C4DA8420ED1CD6823F4006343EA0D
:102DA00005234D6922F4405242EA05128D6923F44D
:102DB000806342EA05124260C4614968C1630362EC
:102DC00030BD0000002C014030B5046A026A22F4D4
:102DD000805202624268C3690D6823F4E64343EA05
:102DE00005238D6824F4005444EA0534064DA842B6
:102DF00004D14D6922F4804242EA85124260C361E7
:102E000049680164046230BD002C014010B5036ABA
:102E1000046A24F001040462846924F0F00444EAA2
:102E2000021423F00A020A438461026210BD10B545
:102E3000036A046A24F010040462846923F0A00386
:102E400024F4704444EA023243EA011182610162CF
:102E500010BD10B5406A0021C185C184FEF786FE11
:102E600010BD01680C3151E8002F22F4907241E846
:102E70000023002BF5D10168143151E8002F22F016
:102E8000010241E80023002BF5D1016B012909D192
:102E900001680C3151E8002F22F0100241E80023B4
:102EA000002BF5D1202180F84210002101637047EA
:102EB00008B590F84210222901D0022008BD82688E
:102EC0004FF480539A4201D1016921B1816A9A423B
:102ED0001BD04AB10AE00268816A5268C2F3080254
:102EE0000A80816A891C08E0026972B1026852682E
:102EF00002F07F020A70816A491C8162C18D491EFD
:102F00000904090CC18503D01BE002685268F1E78F
:102F10000168CA6822F02002CA600168CA6822F407
:102F20008072CA6001684A6922F001024A61202168
:102F300080F8421000214163026B012A03D0FEF7A2
:102F4000BFFF002008BD016301680C3151E8002F6C
:102F500022F0100241E80023002BF5D101680A6835
:102F6000D20602D50A6849680091818DFEF7FDFD01
:102F7000E7E7000070B5044600680169E26821F4E3
:102F80004051114301612169A06808436169084308
:102F90002168CA6841F20C639A430243CA60206800
:102FA0004169A26921F44071114341611E492068C1
:102FB000884202D1FEF716F901E0FEF703F900EBB3
:102FC000C00101EB0012606864218000B2FBF0F3E5
:102FD000B3FBF1F36FF018067343B2FBF0F5B2FBED
:102FE000F0F605EB8305322303EB0515B5FBF1F590
:102FF000B6FBF1F605F0F00505EB0615B2FBF0F6B1
:10300000B2FBF0F0B0FBF1F06FF01802504306EBAA
:10301000800003EB0010B0FBF1F0216800F00F001E
:103020002844886070BD0000003801402DE9F84355
:10303000984617460D460446089E24E0701C22D090
:10304000FDF704FEA0EB0800B0421AD8CEB120680C
:10305000C168490717D5802D15D0402D13D00168C0
:10306000C94309070FD40168002540680090204635
:10307000FFF7F7FE0820606484F840500120BDE8A7
:10308000F8830320FBE72068006835EA000004D0DD
:103090000020B842D2D00020F1E70120F9E700007B
:1030A0000148FEF765BD0000A8010020FEE74900C9
:1030B00050EAC12018BF04204A0D18BF40F001009B
:1030C00040F2FF72B2EB515F08BF40F002000128EE
:1030D00008BF052070470907090E002804DB00F12E
:1030E000E02080F80014704700F00F0000F1E020AD
:1030F00080F8141D70472DE9F0414F1E00EBC70109
:103100000446D1E9000115461E4637F006020DD0EF
:103110002A463346FDF7A3F97F1E04EBC703D3E924
:103120000023FDF7F5F837F00602F1D1022F25D084
:10313000042F13D0062F18BFBDE8F0812A4633466E
:10314000FDF78DF9D4E90A23FDF7E2F82A46334664
:10315000FDF785F9D4E90823FDF7DAF82A46334666
:10316000FDF77DF9D4E90623FDF7D2F82A46334668
:10317000FDF775F9D4E90423FDF7CAF82A4633466A
:10318000FDF76DF9D4E90223FDF7C2F82A4633466C
:10319000FDF765F9D4E90023BDE8F041FDF7B8B8C3
:1031A0000122FDF768BB0000024A00201107FDF76D
:1031B00062BB000001FDFFFF02E008C8121F08C14A
:1031C000002AFAD170477047002001E001C1121FA8
:1031D000002AFBD1704700002DE9F84F04460D4648
:1031E00021F0004000917349814211DC724988420C
:1031F00001DC06D12CB120462946BDE8F84FFFF787
:10320000CFBF6E48002DCCBF6D496E49BDE8F88F29
:103210006D49814211DD6D498142D8BF4FF0FF36C3
:103220006DDD20462946FFF742FF042808BFFFF75F
:10323000BBFF20462946BDE8F88F6549654F25F05C
:103240000045814233DD6449814219DD0026324662
:103250004FF0804320462946FDF75AF880468A46BB
:10326000012220462946FDF706FB00223B46FDF7DA
:10327000F0F842465346FDF764F904460D463EE039
:1032800001260022BA463B4620462946FDF740F873
:1032900080460F460022534620462946FDF7D9F8BE
:1032A00042463B46FDF74DF904460D4627E04B49A3
:1032B00081421BDDDFF828A102260022534620466A
:1032C0002946FDF7CCF800223B46FDF721F8804661
:1032D0000F460022534620462946FDF7BAF84246DB
:1032E0003B46FDF72EF904460D4608E0032622462C
:1032F0002B4600203B49FDF724F904460D462246A3
:103300002B4610461946FDF7AAF88B468246024620
:103310000B46FDF7A4F807460246334888460B469D
:1033200006217844FFF7E7FE52465B46FDF797F823
:1033300082462E488B463A46434605217844FFF79D
:10334000DAFE3A464346FDF78AF802460B46002E5F
:10335000504659460CDAFCF7DBFF22462B46FDF7B8
:103360007EF801B022462B46BDE8F04FFDF774B859
:10337000FCF7CEFF22462B46FDF771F81C4A7A4433
:1033800002EBC603D3E90023FDF763F822462B4680
:10339000FDF75FF8174A7A4402EBC603D3E900232E
:1033A000FDF75AF8009A002AB8BF81F00041BDE845
:1033B000F88F0000000010440000F07F182D4454E6
:1033C000FB21F93FFB21F9BF0000DC3F0000203E5C
:1033D0000000F33F0000F03F0000E63F00800340A4
:1033E0000000F83F0000F0BF4A050000080500009B
:1033F000A60400006E040000F8B5174C2068FDF725
:1034000042F906466068FDF73EF904F134070546C7
:103410003868FDF738F904467868FDF734F98DF817
:1034200000608DF801508DF802408DF803000A23EA
:1034300002220A490A48FEF744FD0A23042269468B
:103440000748FEF73EFD05490A230222891C04486D
:10345000FEF737FDF8BD0000F00100202C00002031
:10346000A801002088B0FDF787FDFFF7E2FAFEF71C
:1034700099FFFFF73FF8FFF791F8FFF7C3F8FFF761
:1034800019F800217C48FEF709FB04217A48FEF771
:1034900005FB7A48FEF714F9794C002523461A46B5
:1034A000012178480095FFF7B9FA23461A46012111
:1034B00075480095FFF7B2FA744800230090744AEB
:1034C00019467448FFF7AAFAFFF7C0F9FEF739FF6B
:1034D000714C00BFFFF7DEFA207810B12570FFF7BE
:1034E0008BFFA07800287DD0B4F90A00FDF7A1F881
:1034F0004FF06632694BFDF724F8DFF8A4A1DFF83E
:10350000A4B1064652465B460191FCF7A8FFDFF8DE
:10351000989107468846D9F80000FDF7C8F83A4662
:103520004346FCF7F5FEFDF7D5F8C9F80000B4F9FD
:103530000C00FDF77EF84FF06632584BFDF701F8AE
:1035400052465B46FCF78BFFDFF8609107468846E2
:10355000D9F80000FDF7ABF83A464346FCF7D8FE31
:10356000FDF7B8F8C9F80000B4F90E00FDF761F8EE
:103570004FF06632494BFCF7E4FF52465B46FCF7DE
:103580006EFF4B4F804689463868FDF790F84246FB
:103590004B46FCF7BDFEFDF79DF83860B4F9080016
:1035A000FDF73EF88146C846B4F90600FDF738F845
:1035B00041460590FCF762FEFDF779F8FFF70CFE37
:1035C000DFF8F0B0DFF8F0A05A465346FCF747FFAB
:1035D000FDF780F8394980460860B4F90400FDF72A
:1035E0001FF800E043E049460690FCF747FEFDF770
:1035F0005EF8FFF7F1FD5A465346FCF730FFFDF742
:1036000069F8DFF8BC90C9F80000DDE90501FCF7B6
:1036100035FEFDF74CF8FFF7DFFD5A465346FCF741
:103620001EFFFDF757F827490860A570304601993D
:10363000FDF750F8024641462348FEF7F6FD2349C0
:103640000860B4F90C00FCF7F4FF4FF06632134B3E
:10365000FCF777FFFDF73EF802461D48D9F8001049
:10366000FEF7E3FD1B4908601B49386808600A2023
:10367000FDF7A8F92EE700001801002060010020E6
:1036800000004842F0010020240200200000A04079
:1036900000002041580200200000002066663040F3
:1036A0007B14AE47E17A743F4000002044000020C4
:1036B00048000020D9CEF753E3A54C404C00002031
:1036C000500000205400002064000020580000201A
:1036D000940000205C000020600000200549C26AC0
:1036E0008A4201DBC1627047B2F5000FFBDA0021AC
:1036F000F8E70000005043472DE9F0470446D4E9BD
:103700000001FCF783FD0646A060206BE5680128F8
:1037100001D038B346E029463046FCF777FD6169B1
:10372000FCF77AFD814620623146A069FCF774FD02
:103730008046A06201212846FCF7DEFD3146FCF7F9
:1037400068FD2169FCF710FDE169FCF765FD07469E
:10375000606241464846FCF707FD3946FCF704FD28
:10376000E16A1CE031466069FCF756FD8146206243
:103770003146A069FCF750FDA16AFCF7F5FC8046D4
:10378000A06229463046FCF741FDE169FCF744FDA3
:103790000746606241464846FCF7E6FC3946FCF7BE
:1037A000E3FCE062C4E90365BDE8F08710B54CF2C4
:1037B00050339A4200D31A460068C46A641C6243BC
:1037C000B2FBF3F229B1042905D0082905D002641F
:1037D00010BD426310BD826310BDC26310BD010203
:1037E00002030405060708090A0B0C0D0E0F101042
:1037F00000000000000000000102030406070809A1
:1038000000000000010203044FBB610567ACDD3F0F
:10381000182D4454FB21E93F9BF681D20B73EF3FF7
:10382000182D4454FB21F93FE2652F227F2B7A3C6F
:10383000075C143326A6813CBDCBF07A8807703C28
:10384000075C143326A6913CC4EB98999999C9BF9B
:10385000711623FEC671BCBF6D9A74AFF2B0B3BFD0
:103860009AFDDE522DDEADBF2F6C6A2C44B4A2BF90
:103870000D5555555555D53FFF8300922449C23FFC
:103880006E204CC5CD45B73F513DD0A0660DB13F30
:10389000EB0D76244B7BA93F11DA22E33AAD903F42
:1038A000C038000800000020C4000000B831000843
:1038B00084390008C4000020CC050000C83100088D
:1038C00000000000000000000000000000000000F8
:1038D00001000000100000000000000000127A004B
:1038E00000000000000000000101000003FCFC03D8
:1038F00000000000000000000000000000000000C8
:1039000000000000000000000000000000000000B7
:1039100000000000000000000000000000000000A7
:10392000000000006F12833AA69B443B0000003F5A
:103930000000803F00000000000000000000803F09
:10394000CDCC4C3D00000000000000000000000055
:10395000000000006F12833AA69B443B0000003F2A
:103960000000803F00000000000000000000803FD9
:10397000CDCC4C3D00000000000000000000000025
:043980000000000043
:04000005080000ED02
:00000001FF
