:020000040800F2
:10000000B0060020010100081D2D00087122000823
:100010004D2C0008A1080008A536000800000000CB
:100020000000000000000000000000003531000862
:10003000A308000800000000333100083731000831
:100040001B0100081B0100081B0100081B01000820
:100050001B0100081B0100081B0100081B01000810
:10006000AD0800081B010008B30800081B010008C8
:100070001B0100081B0100081B0100081B010008F0
:100080001B0100081B0100081B0100081B010008E0
:100090001B0100081B0100081B0100081B010008D0
:1000A0001B0100081B0100081B0100081B010008C0
:1000B00065320008713200081B0100081B010008AE
:1000C0001B0100081B0100081B0100081B010008A0
:1000D0001B0100081B0100081B01000899360008DD
:1000E000A50800081B0100081B010008DFF80CD060
:1000F00000F0C4FB00480047F53B0008B0060020B4
:100100000648804706480047FEE7FEE7FEE7FEE7B1
:10011000FEE7FEE7FEE7FEE7FEE7FEE799310008AF
:10012000ED000008202A04DB203A21FA02F0002129
:10013000704721FA02F3D040C2F1200291400843F7
:1001400019467047D2B201E000F8012B491EFBD2DC
:1001500070470022F6E710B513460A4604461946D2
:10016000FFF7F0FF204610BDF0B480EA0102D40F83
:100170004200B2EB410F02D20246084611464A0045
:1001800042D0C30DDDB2C1F3C752AD1A202D35DA0E
:10019000C1F3160141F4000204B15242C5F1200638
:1001A00002FA06F12A411044B3EBD05F23D0C4B168
:1001B000012DA0EBC35009DCF0BC4FF0004202EA75
:1001C000C352DBB200F5000000F0B6BA400000F107
:1001D000807000EBC350A0F1807040EAD1704900FC
:1001E00009E0490841EAC071A0EBC35000F50000E6
:1001F000400800EBC350F0BC00F095BA6142012208
:1002000002EB4101001BF6E7F0BC704781F00041B2
:10021000AAE780F00040A7E780EA010210B502F0EB
:100220000043400022D04A001FD0010E01EB1261B2
:10023000C0F35600C2F3560240F4000042F400023C
:10024000A0FB022000047F39140400D0401C50EAB7
:10025000124001D44000491EC2B20C0604EBD0107B
:10026000401C4008802A02D003E0002010BD20F08E
:100270000100002900DA0020184310BD30B480EAE4
:10028000010202F0004530F0004221F0004013D09E
:1002900090B1C30DD40DC2F31601C0F31600E41AD9
:1002A00041F4000140F400027D34914201D3641C0A
:1002B00000E04900002C02DA30BC002070474FF407
:1002C00000000023914201D3891A034340084FEAFA
:1002D0004101F7D151B1914202D14FF0004105E007
:1002E00002D24FF0010101E06FF0010103EBC450B5
:1002F000284430BC00F017BA420005D0C0F3C75202
:100300005242914201DC0020704700EBC15070471F
:100310002DE9FE4F804681EA0300C00F0C46009095
:1003200021F0004123F00045B8EB0200A94105D2BD
:100330004046214690461C460B46024623F00040AC
:10034000104347D0270DC7F30A00C3F30A510290A8
:10035000401A019040286BDAC3F3130040F4801B6D
:100360000098924620B10023D2EB030A63EB0B0BFB
:1003700001985946C0F14002504600F0B3F90646D4
:100380000D4650465946019A00F0BBF910EB0800A3
:100390006141002487EA115284EAE7731A4340D08E
:1003A000009A62B3019A012A4FEA075215DC001B3A
:1003B00061EB02014FF0004202EA0752CDE9004230
:1003C000001C41F5801132462B4600F0F2F903B0D3
:1003D000BDE8F08F40462146F9E7001B61EB0201C2
:1003E000001C41F5801300185B412018A2F500178E
:1003F00047EB030140EAD570B6196D4111E06D0875
:100400004FEA360645EAC0754FEA0752001B61EB1A
:100410000201001C41F5801149084FEA3000001923
:10042000514132462B4603B0BDE8F04F00F0B2B95F
:100430000098012240000023D0EB020263EBE0733E
:10044000009821464FEAE074B8EB000061EB04012C
:10045000E9E783F000435BE781F0004158E72DE9CD
:10046000FE4F81EA030404F0004421F000410094AF
:100470004FF0000B23F0004350EA01045ED052EA33
:1004800003045BD0C3F30A54C1F30A552C44A4F20D
:10049000F3340194A0FB0254C1F3130141F4801121
:1004A000C3F3130343F4801301FB024400FB034E28
:1004B000840A970A44EA815447EA8357A4FB0768F1
:1004C00002958D0A05FB07854FEA932C04FB0C541B
:1004D0002705029D4FEA065847EA1637B5EB08058F
:1004E0006EEB070C870E920E47EA811742EA8312E1
:1004F000A7FB0201B6EB0B0164EB00042B0D43EAF2
:100500000C335E1844EB1C50DA465146E7FB0201FF
:10051000C5F313044FEA0B3343EA14534FEA043292
:10052000019C43EA0603A4F10C040294009CCDE96B
:1005300000B400F03EF903B0BDE8F08F00200146A2
:10054000F9E72DE9F04D81EA030404F0004B21F0B6
:10055000004514464FF0000A23F0004150EA05021E
:1005600020D054EA01021DD0C5F30A570246C5F354
:100570001303C1F31300C1F30A5640F4801543F48A
:100580008013A7EB0608101BD64608F2FD3873EB64
:10059000050002D308F1010801E092185B41B8F1AF
:1005A000000F03DA00200146BDE8F08D00204FF473
:1005B0008011064684460EE0171B73EB050705D332
:1005C000121B63EB050306434CEA010C49084FEA92
:1005D000300092185B4150EA0107EDD152EA030066
:1005E00012D082EA040083EA0501084305D0101BFB
:1005F000AB4106D20122002306E000224FF0004367
:1006000002E06FF0010253101AEB06004CEB0851A8
:1006100010EB0A0041EB0B01BDE8F04D00F0BAB859
:10062000C10F80EAE0700844CA079623002100F059
:1006300083B80EB5C10F80EAE0700844CA070021F4
:1006400040F233438DE80E000A460B4600F0B1F845
:1006500003B000BD00F0004220F00040C10DC0F327
:10066000160040F400007F2901DA00207047962927
:1006700003DCC1F19601C84001E096398840002AA8
:10068000F4D04042704700F0004230F000400AD001
:10069000C10D01F56071C0F3160042EA0151C208B4
:1006A00040071143704700200146704701F00043A6
:1006B00030B421F0004150EA010206D00A0DA2F543
:1006C0006072C1F31301002A02DC30BC00207047C5
:1006D000440F44EAC104C100E01830BC00EBC25032
:1006E00000F021B8202A04DB203A00FA02F10020B1
:1006F00070479140C2F1200320FA03F31943904060
:100700007047202A06DBCB17203A41FA02F043EA71
:10071000E07306E041FA02F3D040C2F120029140BA
:100720000843194670470029A8BF7047401C49007C
:1007300008BF20F00100704710B4B0FA80FC00FA46
:100740000CF050EA010404BF10BC704749B1CCF171
:10075000200421FA04F411FA0CF118BF01212143FD
:100760000843A3EB0C01CB1D4FEA00614FEA1020B8
:1007700042BF002010BC704700EBC350104400295A
:10078000A4BF10BC7047401C490008BF20F0010006
:1007900010BC704710B5141E73F1000408DA401C39
:1007A00041F1000192185B411A4301D120F0010090
:1007B00010BD2DE9F04D92469B4611B1B1FA81F280
:1007C00002E0B0FA80F220329046FFF78BFF044639
:1007D0000F4640EA0A0041EA0B0153465A460843D5
:1007E00013D0114653EA010019D0C8F14002504617
:1007F000FFF798FC05460E46504659464246FFF71D
:1008000071FF084305D0012004E020463946BDE8C9
:10081000F08D0020054346EAE0762C4337430A98E2
:100820006305E40AA0EB08000022FD0A44EA4754ED
:100830000A3002D500200146E9E701051019694197
:10084000DDE9084500196941BDE8F04DA2E770B542
:1008500021F0004303430CD0C1F30A550024D5EB2B
:10086000040564EB0403D617AD1AB34102DB002084
:10087000014670BD201841EB025170BD064C074D7A
:1008800006E0E06840F0010394E807009847103460
:10089000AC42F6D3FFF72EFCA03E0008C03E000895
:1008A000FEE770474FF4004000F042B9042000F02A
:1008B0003FB9102000F03CB972B6FEE710B590F8D1
:1008C00021100022022905D00421816380F8202014
:1008D000012010BD01680B6823F00E030B60016856
:1008E0000B6823F001030B6090F84030C46B0121CA
:1008F00001FA03F3636080F8211080F8202010468D
:1009000010BD000010B590F821100024022903D07A
:100910000421816301243DE001680A6822F00E028F
:100920000A6001680A6822F001020A601A4A016836
:10093000914201D1012121E0174A1432914201D1A3
:1009400010211BE0144A2832914201D1891515E08B
:10095000114A3C32914201D189140FE00E4A5032C3
:10096000914202D14FF4803108E00B4A6432914247
:1009700002D14FF4801101E04FF08071064A083A2D
:100980005160012180F82110002180F82010416B76
:1009900001B18847204610BD0800024070B50446EA
:1009A00000F0CCF90546601C02D0044800780444ED
:1009B00000F0C4F9401BA042FAD370BD040000202F
:1009C0002DE9F04300233E4F0F2573E001229A40AA
:1009D0000A406DD023F00304E619D6F808809C077E
:1009E0004FEA147C05FA0CF909EA0804DFF8D48010
:1009F000404502D14FF0000816E0DFF8CC804045BA
:100A000002D14FF001080FE0DFF8C080404502D16D
:100A10004FF0020808E0DFF8B880404502D14FF0FF
:100A2000030801E04FF0040808FA0CF8A04522D1B1
:100A3000284CD4F800C02CEA020CC4F800C0241DD5
:100A4000D4F800C02CEA020CC4F800C0214C0C34CD
:100A5000D4F800C02CEA020CC4F800C0241FD4F85B
:100A600000C02CEA020CC4F800C0D6F808C02CEA7A
:100A7000090CC6F808C0FF2A01D8064601E000F1BB
:100A800004064FEA830401D9A4F12004D6F800C07B
:100A900005FA04F82CEA080C4FF0040808FA04F8E8
:100AA0004CEA080CC6F800C0C46824EA0204C4601A
:100AB00003F1010331FA03F288D1BDE8F0830000AD
:100AC0000000014000080140000C014000100140FE
:100AD000001401400004014010B5114A042808D058
:100AE000102810D0B0F5004F02D10E4901208870B7
:100AF00010BD0821104600F017F90B49012809D054
:100B00000BE0086010BD2021104600F00DF90749E8
:100B1000012802D00868401EF3E70868401CF0E78F
:100B200000080140000000201400002018000020F0
:100B3000044910B50A68024202D00860FFF7CCFFF2
:100B400010BD0000140401402DE9F84FDFF8B89102
:100B50000024A9F1040B23460F2709F1040AABF185
:100B6000040EC9E00125A5402A40AA427DD1674E66
:100B7000D1F804C0ACEB0608B44532D014DCBCF1AB
:100B8000030F3AD009DCBCF1000F2AD0BCF1010FF1
:100B90001CD0BCF1020F31D11DE0BCF1110F17D0F8
:100BA000BCF1120F2AD119E0B8F5881F19D006DC64
:100BB000B8F5803F15D0B8F5801F1FD111E0B8F50A
:100BC000001F0ED0B8F5041F18D10AE0CB6815E05D
:100BD000CB681B1D12E0CB6808330FE0CB680C33E9
:100BE0000CE08B682BB1012B4FF0080303D045615B
:100BF00004E0042302E0056100E00023FF2A01D89D
:100C0000064601E000F104064FEA840501D9A5F18A
:100C10002005D6F8008007FA05FC28EA0C0803FA3C
:100C200005F548EA0508C6F800804D68ED0062D574
:100C3000374DAE6946F00106AE61AD6924F003069A
:100C400005F001050095334D06EB050CDCF8085066
:100C5000A607360F07FA06F825EA0805DFF8B88078
:100C6000404503D14FF0000817E044E0DFF8AC80C6
:100C7000404502D14FF001080FE0DFF8A480404565
:100C800002D14FF0020808E0DFF89880404502D119
:100C90004FF0030801E04FF0040808FA06F848EAAC
:100CA0000508CCF808804D68D9F80060ED024D4683
:100CB00001D5164300E096432E604D68DAF80060D7
:100CC000AD02554601D5164300E096432E604D68AF
:100CD000DBF80060AD035D4601D5164300E09643A6
:100CE0002E604D68DEF80060ED03754601D51643B1
:100CF00000E096432E60641C0D682A46E5407FF4B0
:100D000031AFBDE8F88F0000080401400000111069
:100D1000001002400000014000080140000C0140AA
:100D200000100140001401408068084000D00120FC
:100D300070470AB1016170470904FBE70148806808
:100D4000704700000400002010B5040013D02420D8
:100D500084F83D002068016821F00101016020460F
:100D600000F08EFA0020206484F83D0044F8300F33
:100D7000A073207310BD012010BD000070B50400E9
:100D800025D094F83D00002520B984F83C50204639
:100D900000F092FA242084F83D002068016821F0D8
:100DA000010101602068016841F400410160206890
:100DB000016821F40041016000F0DAFB4D4A6168EE
:100DC000914201D84C4900E04C49884201D20120AF
:100DD00070BD4B492368B0FBF1F15E6826F03F0619
:100DE0000E435E606368934206D94FF4967359438D
:100DF0004FF47A73B1FBF3F12368491C1E6A26F0A5
:100E00003F06314319626168914210D84900401E83
:100E1000B0FBF1F2521CC2F30B02042A01D20420EF
:100E200022E0B0FBF1F0401CC0F30B001CE0A26814
:100E3000F2B301EBC10303EB0116431EB3FBF6F360
:100E40005B1C43F480431B0549D092B301EBC10204
:100E500002EB0111401EB0FBF1F0401CC0F30B008F
:100E600040F4804040F400402168CA694CF6FF73AA
:100E70009A431043C861D4E907100143206802680F
:100E800022F0C00211430160D4E90301014320684C
:100E9000826848F2FF339A4311438160D4E9050127
:100EA00008432168CA6822F0FF021043C86001E0CD
:100EB0000EE016E02068016841F001010160256440
:100EC000202084F83D00256384F83E50002070BD4A
:100ED00001EB4106431EB3FBF6F35B1CB3E70120B5
:100EE000C2E701EB4101401EB0FBF1F0401CC0F332
:100EF0000B00B7E7A086010080841E0000093D00BA
:100F000040420F002DE9F84F0025DDF82890984663
:100F100017468A4604460095FFF710FF064694F8E8
:100F20003D0020287AD119230122864920460096C7
:100F300001F010FB0028F5D194F83C0001286DD099
:100F4000012084F83C0020680168C90703D10168CA
:100F500041F0010101602068016821F40061016035
:100F6000222084F83D00102084F83E00256467624A
:100F7000A4F82A80608D20857348E06233464A4693
:100F80005146204601F0F6F900287CD1208DDFF88B
:100F9000BC81202768B1012814D00228206801688C
:100FA0001ED041F480610160206841698069009031
:100FB000BBE02068416981690091016841F40071DA
:100FC0000160B2E02068016821F48061016072B6BE
:100FD0002068416981690091016841F400710AE06B
:100FE00041F40061016072B6206841698169009135
:100FF000016821F48061016062B696E0032865D83B
:1010000001280CD002284B464FF0000241462046F2
:1010100000960BD001F09EFAA8BB0CE090E032469F
:101020004946204601F03CFB68BB71E001F092FAB2
:1010300048BB72B633E02068016821F4806101602A
:1010400072B620680069616A0870606A401C60625C
:10105000208D401E2085608D401E60853C4846F2F4
:10106000A8110068B0FBF1F0C0EBC00000EB8000FD
:101070000090401E009007D020684069C0434007A0
:101080000DD50098F5E727E044F8305F6773A57346
:10109000206940F02000206162B625731CE02068C2
:1010A000016841F40071016020680069616A08709C
:1010B000606A401C6062218D491E2185618D491E38
:1010C000618562B621680969017025E032464946AA
:1010D000204601F0E5FA10B10120BDE8F88F206844
:1010E0000069616A0870606A401C6062208D401E61
:1010F00081B22185608D401E608520684269D2439F
:10110000520712D4032903D1016821F480610160E0
:1011100020680069616A0870606A401C6062208D06
:10112000401E2085608D401E6085208D00287FF444
:1011300065AF84F83D7084F83E5084F83C50CCE7AD
:101140000220CAE7020010000000FFFF04000100B7
:10115000100000202DE9F84F1F4690468A460446AD
:10116000DDF82890FFF7EAFD054694F83D002028B9
:101170007FD11923012240492046009501F0EAF968
:10118000002876D194F83C00012872D0012084F820
:101190003C0020680168C90703D1016841F00101E2
:1011A00001602068016821F400610160212084F859
:1011B0003D00102084F83E0000262664C4F82480F8
:1011C0006785608D20852D48E0622B464A46514652
:1011D000204601F045F990B9206841698069009086
:1011E00036E02A464946204601F092FA50B1206C7A
:1011F000042804D12068016841F4007101600120D5
:10120000BDE8F88F606A216800780861606A401C58
:101210006062618D491E6185218D491E89B22185DB
:1012200022685369DB435B070BD451B1007810612E
:10123000606A401C6062608D401E6085208D401E8B
:1012400020852A464946204601F058F90028CED18B
:10125000208D0028C5D154F83D0B016841F4007180
:101260000160202004F81E09E67766770020C7E7B2
:10127000FFE70220C4E70000020010000000FFFFAB
:1012800010B50068094988420FD10948C16921F4A5
:101290000011C161074C40212046FFF791FB204619
:1012A000BDE810408021FFF78BBB10BD005400400B
:1012B00000100240000C014010B586B000210091E2
:1012C00001910291039100680F4988421AD10F4C95
:1012D000A06940F00800A061A069694600F008001C
:1012E0000490C02000901220019003200390084831
:1012F000FFF72AFCE06940F40010E061E06900F4C7
:101300000010049006B010BD0054004000100240D0
:10131000000C0140024881680278114481607047E6
:1013200004000020074810B5016841F01001016079
:10133000032000F075F80F2000F006F800F024F804
:10134000002010BD0020024070B50D4D04464FF442
:101350007A712878B1FBF0F00A490968B1FBF0F026
:1013600000F0DCFA48B9102C07D200222146501EAA
:1013700000F036F800206C6070BD012070BD0000E8
:1013800004000020100000200C4808B5816941F0DD
:1013900001018161816901F001010091C16941F0A0
:1013A0008051C161C06900F08050009004484168DC
:1013B00021F0E06141F00071416008BD0010024081
:1013C00000000140002809DB00F01F0201219140CC
:1013D0004009800000F1E020C0F8001170470000D3
:1013E000F0B40E4B1B680C46C3F30223C3F1070590
:1013F000042D00D90425191D072901D2002300E07E
:10140000DB1E012606FA05F1491E214099409E4047
:10141000761E16403143F0BC02F062B90CED00E0DC
:10142000064900F0070208684FF6FF03184040EA3B
:101430000220034A10430860704700000CED00E0F2
:101440000000FA052DE9F0470F46050061D0434E34
:10145000306800F00700B84209D2306820F0070079
:1014600038433060306800F00700B84251D1286836
:101470003B4C810712D5400703D5606840F4E0601B
:1014800060602878000703D5606840F460506060B1
:101490006068A96820F0F000084360602878C00701
:1014A00028D06868012810D02168022810D0890748
:1014B00000292EDA616821F0030101436160FFF722
:1014C0003DFC804641F288390DE021688903EFE751
:1014D0008901EDE7FFF732FCA0EB0801494502D98D
:1014E0000320BDE8F0876068696800F00C00B0EB8D
:1014F000810FEFD1306800F00700B8420BD9306897
:1015000020F0070038433060306800F00700B84230
:1015100001D00120E5E72878400705D56068E96833
:1015200020F4E060084360602878000706D5606812
:10153000296920F4605040EAC100606000F038F88A
:101540006168084AC1F30311515CC840064908604C
:1015500006480068FFF7F8FE0020C2E700200240BE
:1015600000100240EC3D00081000002008000020A0
:101570000448054900684968044AC1F30221515CE6
:10158000C84070471000002000100240FC3D0008D9
:101590000448054900684968044AC1F3C221515C06
:1015A000C84070471000002000100240FC3D0008B9
:1015B0000E4A51680E4801F00C03042B11D0082B81
:1015C0000FD10C48C1F38343C903C05C0AD55168ED
:1015D000084AC1F34041921E515C054A5043B0FB9A
:1015E000F1F0704704494843704700000010024082
:1015F00000127A00DC3D000800093D002DE9F84F9B
:10160000040070D02078C04DC00749D06868C0F38E
:101610008100012807D06868C0F38100022809D141
:101620006868C00306D52868800339D5606800283B
:10163000E7D035E06068B0F5803F0BD010B1B0F571
:10164000A02F11D0286820F480302860286820F46A
:10165000802002E0286840F480302860606890B103
:10166000FFF76CFB06460AE0286840F480202860FB
:10167000F0E700BFFFF762FB801B642873D828687F
:101680008003F7D50CE0FFF759FB064605E000BFE5
:10169000FFF754FB801B6428F0D828688003F7D438
:1016A00020789A4E80074FF001094FF0000839D595
:1016B000686810F00C0F07D06868C0F3810002283A
:1016C00009D16868C00306D42868800714D520694A
:1016D000012808D110E02069B0B1C6F80090FFF7EA
:1016E0002DFB074605E00AE1FFF728FBC01B022897
:1016F000C4D828688007F7D52868616920F0F80009
:1017000040EAC10028600DE0C6F80080FFF716FB34
:10171000074604E0FFF712FBC01B022823D8286805
:101720008007F7D4207800072CD57948A169D9B172
:10173000C0F80090FFF702FB074604E0FFF7FEFA4F
:10174000C01B02280FD8686A8007F7D571484FF48C
:10175000FA510068B0FBF1F0009000BF0098411E04
:101760000091FAD20EE080E0C0F80080FFF7E6FAC0
:10177000074604E0FFF7E2FAC01B022875D8686A42
:101780008007F7D42078400760D5E8690027C000BB
:1017900008D4E86940F08050E861E869012700F06A
:1017A000805000905C480168C90513D401688346E5
:1017B00041F480710160FFF7C1FA824606E000BF84
:1017C000FFF7BCFAA0EB0A0064284ED8DBF8000053
:1017D000C005F5D5E06801280AD008B1052813D066
:1017E000286A20F001002862286A20F0040002E044
:1017F000286A40F001002862E06841F2883B98B115
:10180000FFF79CFA82460BE0286A40F00400286249
:10181000EEE700BFFFF792FAA0EB0A0159455AD84C
:10182000286A8007F6D50CE0FFF788FA824605E0C3
:10183000FFF784FAA0EB0A0159454CD8286A8007C3
:10184000F6D41FB1E86920F08050E861E06988B300
:101850006968C1F38101022944D00228C6F860807A
:1018600004D0FFF76BFA044638E034E0FFF766FA7D
:10187000074604E0FFF762FAC01B02282BD828684D
:101880008001F7D4206AB0F5803F05D16868A1686F
:1018900020F4003008436860D4E90801084369680F
:1018A00021F4741108436860C6F86090FFF746FAA7
:1018B000044606E025E000BFFFF740FA001B0228BF
:1018C00009D828688001F7D51BE000BFFFF736FA7A
:1018D000001B022802D90320BDE8F88F2868800188
:1018E000F4D40EE00128F7D06868226A00F4803151
:1018F000914204D1616A00F47010884201D0012045
:10190000EAE70020E8E70000001002400000424241
:1019100080044242100000200070004010B5401EBC
:10192000B0F1807F01D3012010BD4FF0E024606151
:101930000F21601701F0D4FE0020A0610720206174
:10194000002010BD7047704770B590F83C20012A08
:1019500026D0012480F83C40022280F83D20036814
:101960005A689D6822F070060A6832435A600D4B2F
:1019700002689A4208D0B2F1804F05D00A4B9A42D1
:1019800002D00A4B9A4204D1496825F080031943DA
:10199000916080F83D40002180F83C10084670BD01
:1019A000022070BD002C01400004004000080040EF
:1019B00010B5040003D094F83D0010B107E00120F9
:1019C00010BD002084F83C00204600F01FF80220E3
:1019D00084F83D00211D206801F050FC012084F8AE
:1019E000460084F83E0084F83F0084F8400084F804
:1019F000410084F8420084F8430084F8440084F8ED
:101A0000450084F83D00002010BD000008B50168C5
:101A10001448B1F1804F14D0134A914220D1C169CA
:101A200041F00201C161C069002200F00200009093
:101A300011461D20FFF7D4FC1D20BDE80840FFF72C
:101A4000C1BCC16941F00101C161C069002200F05F
:101A50000100009011461C20FFF7C2FC1C20ECE79F
:101A600008BD0000001002400004004090F83D1046
:101A7000012901D001207047022180F83D10016842
:101A8000CA6842F00102CA6000680B49884208D067
:101A9000B0F1804F05D00949884202D008498842F8
:101AA00004D1816801F00701062903D0016841F0E3
:101AB0000101016000207047002C0140000400403B
:101AC0000008004070B5044690F83C00002501284D
:101AD00017D0012684F83C60022084F83D0020687D
:101AE000826822F0770222F47F42826008685028E0
:101AF00038D00DDC20284FD005DC90B3102811D150
:101B00004AE0022070BD302846D040280AD13BE090
:101B100060282FD070280DD0B0F5805F03D0B0F5CD
:101B2000005F12D0012584F83D60002084F83C005D
:101B3000284670BDCB68D1E90121206801F0E7FBA0
:101B40002068816841F0770109E0CB68D1E9012183
:101B5000206801F0DCFB2068816841F480418160ED
:101B6000E1E719E0CA684968206801F085FC502166
:101B7000206806E0CA684968206801F08EFC602190
:101B8000206801F0CEFBCEE7CA684968206801F002
:101B900073FC40212068F4E7226801461046F0E714
:101BA00070472DE9F04104460068C66805694FF0AA
:101BB0000007A90713D5B10711D5F91E016101204E
:101BC0002077206880698007204602D0FFF7E8FF71
:101BD00004E000F0A3F8204600F035F92777680705
:101BE00016D5700714D521686FF004000861022033
:101BF00020772068806910F4407F204602D0FFF7EC
:101C0000CFFF04E000F08AF8204600F01CF92777A7
:101C1000280715D5300713D521686FF00800086133
:101C2000042020772068C0698007204602D0FFF793
:101C3000B7FF04E000F072F8204600F004F92777BF
:101C4000E80616D5F00614D521686FF0100008617B
:101C5000082020772068C06910F4407F204602D019
:101C6000FFF79EFF04E000F059F8204600F0EBF883
:101C70002777E80708D0F00706D021686FF0010049
:101C80000861204600F02EF9280608D5300606D552
:101C900021686FF0800008612046FFF753FE680658
:101CA00008D5700606D521686FF04000086120460F
:101CB00000F030F9A8060AD5B00608D521686FF003
:101CC000200008612046BDE8F041FFF73CBEBDE8BA
:101CD000F081000000B585B00021009101910291D2
:101CE00003910068B0F1804F11D10A48816941F039
:101CF000040181618069694600F0040004900320BA
:101D000000900220019003900348FEF71DFF05B0EC
:101D100000BD00000010024000080140704770B58F
:101D2000044690F83C0000260D4601280FD0012003
:101D300084F83C006AB1042A1DD0082A2FD00C2A4E
:101D40003FD00126002084F83C00304670BD0220C0
:101D500070BD206801F0EEFA2068816941F0080149
:101D600081612068816921F00401816120688169B5
:101D70002A69114311E0206801F004FB20688169A1
:101D800041F4006181612068816921F48061816191
:101D9000206881692A6941EA02218161D2E72068CD
:101DA00001F01CFB2068C16941F00801C161206895
:101DB000C16921F00401C1612068C1692A69114328
:101DC00011E0206801F036FB2068C16941F4006130
:101DD000C1612068C16921F48061C1612068C16965
:101DE0002A6941EA0221C161ACE710B5040003D0C1
:101DF00094F83D0010B107E0012010BD002084F8E8
:101E00003C00204600F01EF8022084F83D00211D11
:101E1000206801F033FA012084F8460084F83E007F
:101E200084F83F0084F8400084F8410084F84200C0
:101E300084F8430084F8440084F8450084F83D00A9
:101E4000002010BD7047704710B50446022249B10A
:101E500004290ED0082913D094F84100012816D087
:101E6000012010BD94F83E000128F9D184F83E20ED
:101E70000FE094F83F000128F2D184F83F2008E0F9
:101E800094F840000128EBD184F8402001E084F868
:101E900041200122206801F02DFA0F492068884274
:101EA00003D1426C42F4004242642068884208D068
:101EB000B0F1804F05D00949884202D008498842D4
:101EC00004D1816801F00701062903D0016841F0BF
:101ED00001010160002010BD002C01400004004001
:101EE0000008004010B50068084988420CD101F094
:101EF00089F807484178491CC9B24170052903D3C4
:101F0000002141700121017010BD0000000400405B
:101F1000000000207047704770470000F8B5016866
:101F200004460868CA684B6910F00F0F4FF00005AF
:101F300059D003F0010602F49077374365D0C1070A
:101F400005D0D10503D5616C41F001016164410701
:101F500005D5D90703D0616C41F0020161648107A6
:101F600005D5D90703D0616C41F004016164010714
:101F700007D502F02001314303D0616C41F0080124
:101F80006164616C00293AD0800604D5900602D5C0
:101F9000204601F0C3FA20684069616CC0F38010EC
:101FA000090700D460B3204601F091FA2068406927
:101FB000400621D52068143050E8001F21F0400170
:101FC00040E80012002AF5D1E06BA8B16D494163E9
:101FD000E06BFEF797FC002811D0E06B416B01B07D
:101FE000BDE8F040084783060FD593060DD520467F
:101FF000BDE8F84001F092BA2046FFF78DFFF8BD2A
:102000002046FFF789FF6564F8BD266B2023012E6B
:102010007CD1C6067AD5D60678D50868486800907F
:1020200048694FF00206400640D5E16B08684068F9
:102030000004000CE8D0A28D8242E5D9E0858869D1
:1020400020282DD020680C3050E8001F21F480712A
:1020500040E80012002AF5D12068143050E8001F33
:1020600021F0010140E80012002AF5D12068143067
:1020700050E8001F21F0400140E80012002AF5D18D
:1020800084F84230256320680C3050E8001F21F0AE
:10209000100140E80012002AF5D1E06BFEF70EFCBB
:1020A0006663A08DE18D401A81B22AE0A08DE18D9A
:1020B000401A81B2E08D0028A6D00029A4D0226861
:1020C0000C3252E8000F20F4907042E80007002F15
:1020D000F5D12068143050E8002F22F0010240E8CA
:1020E0000027002FF5D184F84230256320680C309A
:1020F00050E8002F22F0100240E80023002BF5D119
:1021000066632046FFF707FFF8BDFFE705062BD5FE
:10211000150629D594F841002128F5D1A068B0F51D
:10212000805F01D12069B0B1206A411C2162216821
:1021300000784860E08C401E0004000CE084E3D18D
:102140002068C16821F08001C1602068C16841F049
:102150004001C160D8E7206A0088C0F308004860E9
:10216000206A801C2062E5E74006CDD55006CBD51D
:10217000CA68204622F04002CA6084F8413000F06C
:1021800076F8C1E7BF34000870B5040004D094F8B5
:102190004100002510B106E0012070BD84F84050D8
:1021A000204600F023F8242084F841002068C1680C
:1021B00021F40051C160204601F012FA2068016943
:1021C00021F4904101612068416921F02A014161B7
:1021D0002068C16841F40051C1606564202084F822
:1021E000410084F842006563002070BD30B585B0C1
:1021F00000240094019402940394006818498842D2
:102200002CD11848C16941F48021C161C16901F430
:1022100080210491816941F0080181618069124D3A
:1022200000F0080004904FF48060009002200190BC
:102230000320039069462846FEF786FCE814CDE9A2
:102240000004694628460294FEF77EFC00221146EF
:102250002720FFF7C5F82720FFF7B4F805B030BDF9
:102260000048004000100240000C014070477047D9
:10227000FEE7000030B585B000200090019002908C
:1022800003902D48FEF760FD2C48816941F008015C
:10229000816180692A4C00F00800049011200190AF
:1022A000032003904020009069462046FEF74CFC36
:1022B0008020009069462046FEF746FC012240211E
:1022C0002046FEF736FD012280212046FEF731FD33
:1022D0000120FEF763FB0025002240212046FEF787
:1022E00028FD0120FEF75AFB012240212046FEF77F
:1022F00020FD0120FEF752FB6D1C092DECDB0022B6
:1023000080212046FEF715FD0120FEF747FB012244
:1023100040212046FEF70DFD0120FEF73FFB012284
:1023200080212046FEF705FD0120FEF737FB00F077
:10233000C9FB05B030BD0000E800002000100240DD
:10234000000C014001684A69D24352050FD46FF472
:1023500080624A61002140F8301F2022427381735D
:10236000026942F0040202610173012070470020FB
:10237000704700002DE9F84F0446C06A1E46934698
:102380000D4621680A6842F480620A60082807D076
:10239000012805D010F5803F02D0206B112804D110
:1023A0002068016841F4807101604FF001195B46BB
:1023B000002249462046009600F0CCF84FF4007801
:1023C00040B120680068C00501D5C4F840800320F2
:1023D000BDE8F88F2069DFF884A0B0F5804F0FD0FA
:1023E0000620216800EAD51747F0F000086133465F
:1023F0005A460AF10601204600F0F4F858BB03E003
:10240000E8B240F001001CE02168E8B20861334600
:102410005A465146204600F0E5F8E0B92068416987
:1024200081690091016841F4807101605B4600227E
:1024300049462046009600F08DF80028C1D147F0AB
:10244000F1002168086133465A465146204600F0A3
:10245000C9F80028BCD00120BAE700000200010042
:10246000F8B50446C06A1E460D461746082807D030
:10247000012805D010F5803F02D0206B122804D12E
:102480002068016841F480710160134600224FF01A
:1024900001112046009600F05DF840B12068006808
:1024A000C00502D54FF4007020640320F8BD2069F8
:1024B000B0F5804F0ED00620216800EAD51040F01C
:1024C000F000086133463A460B49204600F08AF88E
:1024D00078B902E005F0FE0000E0E8B2216808618A
:1024E000054933463A46891F204600F07BF800280C
:1024F000DCD00120F8BD00000800010070B51646D0
:102500000D4604461EE02046FFF71CFF08B10120DF
:1025100070BD681C16D0FEF711FC801BA84200D8C5
:1025200085B920684069C04340070BD5002044F8B6
:10253000300F20216173A073216941F020012161D6
:102540002073E4E720684069C0434007DBD40020E3
:1025500070BD00002DE9F047984617460D46044629
:10256000C1F30746DDF820902AE000BFB8F1FF3F35
:1025700026D0FEF7E3FBA0EB0901414502D8B8F1F4
:10258000000F1DD12068012E16D0806925EA0000B9
:102590000004000C12D00020B84211D1002044F8F1
:1025A000300F20216173A073216941F02001216166
:1025B00020730120BDE8F0874069E7E70120EBE7E1
:1025C0002068012E0AD0806925EA00000004000C72
:1025D00006D00020B842C9D00020EBE74069F3E7FD
:1025E0000120F7E72DE9F047984616460D460446C8
:1025F0004FF000094FF0200AC1F3074723E020689D
:102600004069C043400515D42068016841F4007159
:10261000016021686FF480604861C4F8309084F8EC
:102620003DA084F83E90216C41F00401216484F8BF
:102630003C9021E0701C06D0FEF780FBA0EB080068
:10264000B04203D816B1012F1FD021E02068012F1E
:1026500015D0806925EA00000004000C18D000BFE6
:1026600044F8309F84F80DA084F80E90216941F061
:102670002001216184F80C900120BDE8F0874069B9
:1026800025EA00000004000CEAD12068406901E05E
:102690002068806925EA00000004000CAFD1ECE757
:1026A0002DE9F041002590460E460446202728E0FB
:1026B0004069C043C0060CD454F8301B6FF01000C2
:1026C000486144F810596777A577206A206225771A
:1026D00014E0FEF733FBA0EB0800B04200D886B947
:1026E00020684069C04340060BD544F8305F6773EB
:1026F000A573206940F02000206125730120BDE80A
:10270000F08120684169C9434906D1D40020F6E729
:1027100070B516460D4604461EE02046FFF712FE31
:1027200008B1012070BD681C16D0FEF707FB801BA6
:10273000A84200D885B920684069C04300060BD57F
:10274000002044F8300F20216173A073216941F00B
:10275000200121612073E4E720684069C04300063E
:10276000DBD4002070BD2DE9F74F044684B0C06A69
:10277000019001461046FDF749FDD4F81C80414602
:10278000FDF74AFDA16AFDF7EFFC8346A0694146CB
:102790000290FDF741FD41460090FDF73DFDD4E973
:1027A0000457064639462846FDF7DEFC4146FDF74C
:1027B00033FDE168FDF72DFD3146FDF7D5FC2168BD
:1027C000FDF7D2FC824629460098FDF722FD81469E
:1027D00039460098FDF71DFD804661680298FDF7B7
:1027E000C3FC00905046A168FDF7BEFC0546294693
:1027F0005046FDF743FD0746206229464046FDF757
:102800003DFD0646606259460598FDF7FFFC3946D6
:10281000FDF702FD5946FDF7A7FC0546A0622946D3
:102820000598FDF7F3FC3146FDF7F6FC0199FDF73D
:102830009BFCE06239464FF07E50FDF7E7FC07460F
:102840005146FDF7E9FC8246E06038464946FDF70F
:10285000E3FC0746206131465046FDF7DDFC41466A
:10286000FDF7D7FC606131463846FDF7D5FC00998D
:10287000FDF7CFFCA06107B02846BDE8F08F00004F
:102880002DE9F04F87B08046DFF8D4A03B208DF8CB
:102890001400DAF80000DDE9109480691D46164640
:1028A0000F46C043800701D4FFF7E4FCDAF80000CC
:1028B00042694FF4E06191430AD16FF4E0614161F4
:1028C0002748FEF741FA0A20FEF768F800F0FAF808
:1028D0004FF0640B012305AAD0212148CDF800B0A8
:1028E000FEF738FC4FF0000A40B90E2301AAD021B0
:1028F0001B48CDF800B0FEF705FB70B1A6F800A0AC
:10290000A7F800A0A8F800A0A4F800A0A9F800A0CB
:10291000A5F800A007B0BDE8F08FBDF8040040BAEC
:10292000A8F80000BDF8060040BA3880BDF80800DD
:1029300040BA3080BDF80C0040BA2880BDF80E00C7
:1029400040BAA9F80000BDF8100040BA0F3800B234
:10295000208013302628DDD8A4F800A0DAE7000094
:10296000E800002010B56420FEF718F802216B2063
:1029700000F016F82721192000F012F800211A2083
:1029800000F00EF818211B2000F00AF800211C208E
:1029900000F006F80121BDE810403820AFF30080B8
:1029A0001CB502238DF804000A208DF80510009054
:1029B00001AAD0210148FEF7CDFB1CBDE800002094
:1029C000F0B585B000253A4800950195029503952C
:1029D000816941F010018161816901F01001049168
:1029E000816941F020018161816901F02001049138
:1029F000816941F004018161816901F00401049160
:102A0000816941F00801816180692A4F00F0080066
:102A10004FF470760490002231463846FEF789F96B
:102A20001420009024480124CDE901046946384669
:102A3000FEF78AF840F62800CDE9000569460294C1
:102A40003846FEF781F80220CDE90250CDE9006456
:102A500069463846FEF778F8E00300901748CDE95C
:102A6000010469463846FEF76FF84FF44E70CDE921
:102A70000005694602941248FEF766F800221146E6
:102A80000820FEF7ADFC0820FEF79CFC0022114652
:102A90000A20FEF7A5FC0A20FEF794FC002211464E
:102AA0002820FEF79DFC2820FEF78CFC05B0F0BD29
:102AB0000010024000080140000021100000111029
:102AC000000C01400D4810B50B4901600C494160F4
:102AD00000214FF480428160C0E9031241618161AD
:102AE000C1610162FEF74AF9002803D0BDE8104039
:102AF000FDF7E2BE10BD000000540040E8000020D9
:102B0000A086010010B58EB00024079408940994A3
:102B10000A940B941C2168460C94FDF71AFB22487A
:102B20004FF0804101604721C0E9011444F61F6164
:102B3000C0E9031480218161FEF73AFF08B1FDF777
:102B4000BBFE4FF48050079007A91748FEF7BAFF65
:102B500008B1FDF7B1FE1448FFF747F908B1FDF7DA
:102B6000ABFE0B940BA910480C94FEF7EDFE08B1D8
:102B7000FDF7A2FE6020CDE9000402940022694620
:102B800009480494FFF7CBF808B1FDF795FE04223D
:102B900069460548FFF7C3F808B1FDF78DFE024806
:102BA000FFF798F80EB010BD3C01002010B586B0BC
:102BB0000024174800940194029403940494134948
:102BC0000594016041F61F41C0E901146321C0E989
:102BD000031480218161FEF7EBFE08B1FDF76CFE66
:102BE0004FF48050009069460948FEF76BFF08B12A
:102BF000FDF762FE049404A905480594FEF7A4FEBF
:102C0000002801D0FDF758FE06B010BD00040040BA
:102C1000840100200C4810B50A4901604FF4165198
:102C20004160002181600C22C160C0E90412816111
:102C3000C161FFF7A9FA002803D0BDE81040FDF7F5
:102C40003BBE10BD00480040CC010020FEE7000064
:102C500070B582B200210A4801F0A6F8094C0A4D6D
:102C6000402122782846FEF764F8207830B100220F
:102C70002846BDE870408021FEF75BB80122F7E7E7
:102C80003C0100201C0000200008014070B582B209
:102C900004210C4801F088F80B4C0C4D4FF4807166
:102CA00062782846FEF745F8607840B15FF0000290
:102CB0002846BDE870404FF40071FEF73AB8012293
:102CC000F6E700003C0100201C0000200008014045
:102CD0002DE9F0410C460E490E4D01260027002833
:102CE00001DB0E7001E00F704042FDF799FC286097
:102CF000084D09483435002C02DB0670204601E0FF
:102D000007706042FDF78CFC2860BDE8F081000090
:102D10001C000020140200201D000020FEE700001F
:102D200070B522480021C160817811B96FF00302AB
:102D3000C260C27812B9C3689B1EC360037944792C
:102D400014B9C568AD1CC560857915B9C668361D4E
:102D5000C660012907D1012A05D1012B03D1012C1D
:102D600001D1012D10D0C1680161C068FDF758FC88
:102D7000FDF770FC00F11E02C0F11E016FF027008C
:102D8000282A04DD282205E00169C160EDE78242BE
:102D900000DA0246282901DD282102E0814200DA1A
:102DA0000146BDE870401046FFF792BF3400002096
:102DB00070B500240021204600F0F0F80025002026
:102DC00000F00EF96D1CEDB2802DF8D3641CE4B256
:102DD000082CEFD370BD000010B586B00020029023
:102DE0001048816941F00801816180690E4C00F052
:102DF000080004904FF440700090112001900320CF
:102E0000039069462046FDF79FFE012211022046ED
:102E1000FDF78FFF012251022046FDF78AFF06B021
:102E200010BD000000100240000C01402DE9F047E9
:102E3000144E002407464FF080084FF40079B51572
:102E400028FA04F23A4049463046FDF772FF012263
:102E500029463046FDF76DFF002229463046FDF732
:102E600068FF641CE4B2082CEAD3012229463046EC
:102E7000FDF75FFF29463046BDE8F0470022FDF729
:102E800058BF0000000C014070B501220B4D5402E8
:102E900021462846FDF74DFF0122160231462846FD
:102EA000FDF747FF002221462846FDF742FF314645
:102EB0002846BDE870400022FDF73BBF000C0140F2
:102EC00070B50A4D4FF40074002221462846FDF7E4
:102ED00030FF012211022846FDF72BFF214628462C
:102EE000BDE870400122FDF724BF0000000C014046
:102EF00010B500204FF47A720021491C9142FCD396
:102F0000401C9042F8D3FFF767FFAE2000F057F85F
:102F1000D52000F054F8802000F051F8A82000F0EF
:102F20004EF83F2000F04BF8D32000F048F8002086
:102F300000F045F8402000F042F8A12000F03FF8F2
:102F4000C82000F03CF8DA2000F039F8122000F038
:102F500036F8812000F033F8CF2000F030F8D92087
:102F600000F02DF8F12000F02AF8DB2000F027F81F
:102F7000302000F024F8A42000F021F8A62000F072
:102F80001EF88D2000F01BF8142000F018F8AF2078
:102F900000F015F8BDE81040FFF70ABF10B50C4669
:102FA00040F0B00000F00BF8102040EA141000F0E0
:102FB00006F804F00F00BDE81040AFF3008010B534
:102FC0000446FFF761FF7820FFF730FF0020FFF78E
:102FD0002DFF2046FFF72AFFBDE81040FFF770BF26
:102FE00010B50446FFF750FF7820FFF71FFF402081
:102FF000FFF71CFF2046FFF719FFBDE81040FFF761
:103000005FBF00002DE9F0413A483B4C00780128B1
:1030100023D13A48007801281FD13949394A3A4822
:103020000B78156813B9012205600A7037492161D0
:103030000068FDF799F8364EC6E90005304600F005
:1030400059FEF56A2846FDF705FB064685F0004067
:10305000FDF700FB3146FFF73BFE2E4AA0682E4BE2
:1030600011684FF000080844A060E1681D68284E10
:103070000D44E560C2F80080C3F80080A188683E76
:10308000491C89B2A18006F13407052916D32349CA
:10309000097839B1FDF7C4FA70602148007818B199
:1030A000284602E04042F5E76842FDF7B9FA786049
:1030B000C4F80880C4F80C80A4F804801448683868
:1030C00000F018FE1248343800F014FE104868383A
:1030D00000F002FE0E48343800F0FEFDF06AFDF705
:1030E000B9FAFFF7B5FDF86AFDF7B4FABDE8F041AB
:1030F000FFF7CCBD48000020200000204900002040
:10310000800000207C0000204C0000200000A04037
:103110007C02002014000020180000201C00002069
:103120001D00002010B5029C0163143080E81C00D3
:1031300010BD70477047FEF7EDB830B58FB028214D
:103140006846FDF706F814210AA8FDF702F80121E8
:103150000804CDE900100024029402250491CDE971
:1031600007504FF4E01009906846FEF747FA08B19F
:1031700072B6FEE70F20CDE90A054FF48060CDE975
:103180000C4002210AA80E94FEF75CF9002801D039
:1031900072B6FEE70FB030BD7047000070B52F4D1E
:1031A00008212846FDF7C0FD2D4C1021A0702846AF
:1031B000FDF7BAFDE07020212846FDF7B5FD20712E
:1031C000A9152846FDF7B0FD607169152846FDF781
:1031D000ABFDA07121780225A9B101292ED00229C9
:1031E00010D161786FF01300012935D001461E20FF
:1031F000FFF76EFD2089401E0004000C208101D1E4
:103200002070206170BDA278E1784FF001030A437D
:103210000DD021790A430AD0627952EA000608D01B
:103220001143014305D0BDE87040FFF779BD6370DD
:1032300000E0657023701420608170BD1E21084677
:10324000FFF746FD6089401E0004000C6081F4D148
:1032500025702820208170BD1E21C9E7000C014087
:10326000340000200148FEF79CBC00003C01002017
:103270000148FEF796BC000084010020F0B502680A
:10328000194B1A4C1A4D4FF08047984205D0B8425E
:1032900003D0A04201D0A84203D122F070064A68B0
:1032A0003243984205D0B84203D0A04201D0A84290
:1032B00003D122F44074CA6822434C6922F0800290
:1032C000224302608A68C2620A688262984201D11F
:1032D00009690163012141610169C90703D00169DD
:1032E00021F001010161F0BD002C0140000400400B
:1032F0000008004010B501F01F030121046A994045
:103300008C430462016A9A401143016210BD10B5FA
:10331000846842EA032224F47F440A432243826001
:1033200010BD826822F070020A4342F007018160FA
:103330007047000030B5036A026A22F0010202629F
:103340004268846924F073050C682C4323F002055D
:103350008B682B430A4DA8420BD123F00805CB689C
:1033600022F440722B434D6923F0040315438A690C
:103370002A434260846149684163036230BD0000B2
:10338000002C014030B5026A036A23F01003036287
:10339000436884690D6824F4E64444EA05248D6892
:1033A00022F0200242EA05120B4DA8420ED1CD6850
:1033B00022F0800242EA05124D6923F4406343EA99
:1033C00085038D6922F0400243EA850343608461EE
:1033D00049688163026230BD002C014030B5036A48
:1033E000026A22F4807202624268C46923F40073A4
:1033F00024F073050C682C438D6843EA05230C4DBB
:10340000A8420ED1CD6823F4006343EA05234D6939
:1034100022F4405242EA05128D6923F4806342EAA5
:1034200005124260C4614968C163036230BD000097
:10343000002C014030B5046A026A22F48052026214
:103440004268C3690D6823F4E64343EA05238D68A7
:1034500024F4005444EA0534064DA84204D14D69D1
:1034600022F4804242EA85124260C36149680164E5
:10347000046230BD002C014010B5036A046A24F0D8
:1034800001040462846924F0F00444EA021423F085
:103490000A020A438461026210BD10B5036A046A1D
:1034A00024F010040462846923F0A00324F470441F
:1034B00044EA023243EA01118261016210BD10B593
:1034C000406A0021C185C184FEF726FD10BD016858
:1034D0000C3151E8002F22F4907241E80023002BB8
:1034E000F5D10168143151E8002F22F0010241E8C2
:1034F0000023002BF5D1016B012909D101680C31A2
:1035000051E8002F22F0100241E80023002BF5D1F2
:10351000202180F8421000210163704708B590F81F
:103520004210222901D0022008BD82684FF4805346
:103530009A4201D1016921B1816A9A421BD04AB1F4
:103540000AE00268816A5268C2F308020A80816A4E
:10355000891C08E0026972B10268526802F07F02B9
:103560000A70816A491C8162C18D491E0904090CD7
:10357000C18503D01BE002685268F1E70168CA68A0
:1035800022F02002CA600168CA6822F48072CA6010
:1035900001684A6922F001024A61202180F8421044
:1035A00000214163026B012A03D0FEF75FFE002079
:1035B00008BD016301680C3151E8002F22F01002B0
:1035C00041E80023002BF5D101680A68D20602D534
:1035D0000A6849680091818DFEF79DFCE7E70000CD
:1035E00070B5044600680169E26821F44051114356
:1035F00001612169A0680843616908432168CA68BC
:1036000041F20C639A430243CA6020684169A2698F
:1036100021F44071114341611E492068884202D162
:10362000FDF7B6FF01E0FDF7A3FF00EBC00101EBE2
:103630000012606864218000B2FBF0F3B3FBF1F389
:103640006FF018067343B2FBF0F5B2FBF0F605EB32
:103650008305322303EB0515B5FBF1F5B6FBF1F657
:1036600005F0F00505EB0615B2FBF0F6B2FBF0F045
:10367000B0FBF1F06FF01802504306EB800003EB53
:103680000010B0FBF1F0216800F00F0028448860C2
:1036900070BD0000003801400148FEF73FBC00004B
:1036A000CC010020FEE70000014A024900F097B873
:1036B000C53B0008E4000020490050EAC12018BFC3
:1036C00004204A0D18BF40F0010040F2FF72B2EB37
:1036D000515F08BF40F00200012808BF0520704775
:1036E0000907090E002804DB00F1E02080F800142F
:1036F000704700F00F0000F1E02080F8141D7047C3
:103700002DE9F0414F1E00EBC7010446D1E900014D
:1037100015461E4637F006020DD02A463346FCF702
:103720009EFE7F1E04EBC703D3E90023FCF7F0FDE8
:1037300037F00602F1D1022F25D0042F13D0062F27
:1037400018BFBDE8F0812A463346FCF788FED4E96D
:103750000A23FCF7DDFD2A463346FCF780FED4E958
:103760000823FCF7D5FD2A463346FCF778FED4E95A
:103770000623FCF7CDFD2A463346FCF770FED4E95C
:103780000423FCF7C5FD2A463346FCF768FED4E95E
:103790000223FCF7BDFD2A463346FCF760FED4E960
:1037A0000023BDE8F041FCF7B3BD0122FDF74FB89F
:1037B000024A00201107FDF74AB8000001FDFFFF93
:1037C00002E008C8121F08C1002AFAD170477047EA
:1037D000002001E001C1121F002AFBD170472DE932
:1037E000F04116460F460446002503E03946B0472F
:1037F000641C6D1C20780028F8D12846BDE8F081B3
:103800002DE9F04F5F4987B0881ECDE90001831E86
:10381000021F811F0838FFF733F85A4C0A3CB4F9ED
:103820000600FCF706FFDFF860B14FF0663A52463B
:103830005B46FCF786FEDFF85481DFF854910546BD
:1038400042464B460191FCF70AFE07460E46E068E9
:10385000FCF719FF3A463346FCF75AFDFCF726FF02
:10386000E060B4F90800FCF7E4FE52465B46FCF762
:1038700068FE42464B46FCF7F2FD06460F462069BD
:10388000FCF701FF3B463246FCF742FDFCF70EFF1A
:103890002061B4F90A00FCF7CCFE52465B46FCF707
:1038A00050FE42464B46FCF7DAFD07460E4660697D
:1038B000FCF7E9FE3A463346FCF72AFDFCF7F6FE34
:1038C0006061B4F90400FCF7ABFE81464E46B4F9E2
:1038D0000200FCF7A5FE31460590FCF7CFFCFCF793
:1038E000D2FE00F05FF82B4FDFF8AC803A4643463B
:1038F000FCF7B5FDFCF7DAFEA0610646CDF81090A6
:10390000B4F90000FCF78CFE81460499FCF7B6FC84
:10391000FCF7B9FE00F046F83A464346FCF79FFD37
:10392000FCF7C4FEE06149460598FCF7A7FCFCF7EC
:10393000AAFE00F037F83A464346FCF790FDFCF744
:10394000B5FE206228460199FCF7B0FE02463146DA
:103950001248FEF708FF6062B4F90800FCF769FE40
:1039600052465B46FCF7EDFDFCF7A0FE02460C4814
:10397000E169FEF7F8FEA0626069E06207B0BDE8A9
:10398000F08F00005A000020666630407B14AE477E
:10399000E17A743FD9CEF753E3A54C408400002070
:1039A000B40000202DE9F84F04460D4621F00040F8
:1039B00000917349814211DC7249884201DC06D1D1
:1039C0002CB120462946BDE8F84FFFF7EEBE6E4801
:1039D000002DCCBF6D496E49BDE8F88F6D4981421D
:1039E00011DD6D498142D8BF4FF0FF366DDD2046B5
:1039F0002946FFF761FE042808BFFFF7D9FE2046DD
:103A00002946BDE8F88F6549654F25F0004581429C
:103A100033DD6449814219DD002632464FF0804390
:103A200020462946FCF774FC80468A46012220463F
:103A30002946FCF70CFF00223B46FCF70AFD4246F4
:103A40005346FCF77EFD04460D463EE0012600226B
:103A5000BA463B4620462946FCF75AFC80460F46AC
:103A60000022534620462946FCF7F3FC42463B46DB
:103A7000FCF767FD04460D4627E04B4981421BDDFC
:103A8000DFF828A102260022534620462946FCF7EB
:103A9000E6FC00223B46FCF73BFC80460F4600223A
:103AA000534620462946FCF7D4FC42463B46FCF7E9
:103AB00048FD04460D4608E0032622462B4600201A
:103AC0003B49FCF73EFD04460D4622462B46104678
:103AD0001946FCF7C4FC8B46824602460B46FCF7AF
:103AE000BEFC07460246334888460B46062178440A
:103AF000FFF706FE52465B46FCF7B1FC82462E48B5
:103B00008B463A46434605217844FFF7F9FD3A468D
:103B10004346FCF7A4FC02460B46002E504659468D
:103B20000CDAFCF7F5FB22462B46FCF798FC01B0BB
:103B300022462B46BDE8F04FFCF78EBCFCF7E8FBB5
:103B400022462B46FCF78BFC1C4A7A4402EBC60348
:103B5000D3E90023FCF77DFC22462B46FCF779FCD9
:103B6000174A7A4402EBC603D3E90023FCF774FC3E
:103B7000009A002AB8BF81F00041BDE8F88F00002C
:103B8000000010440000F07F182D4454FB21F93F41
:103B9000FB21F9BF0000DC3F0000203E0000F33FA6
:103BA0000000F03F0000E63F008003400000F83FC7
:103BB0000000F0BF7E0300003C030000DA020000BA
:103BC000A202000070B50646FDF7B8F800F1320514
:103BD000074C03E0FDF7B2F8A84204D8206800685B
:103BE000C0430006F6D42168F0B24860304670BD8C
:103BF000CC01002008B5FDF795FBFFF79EFAFEF714
:103C0000DFFEFEF77FFFFEF7D1FFFFF703F8FEF7B9
:103C100059FF00212348FEF717F904212148FEF738
:103C200013F92148FDF722FF204D214E00242B4699
:103C3000324601211F480094FFF774FA2B463246A2
:103C400001211D480094FFF76DFA4FF07E500023CC
:103C50000090F20219461948FFF764FAFFF748F995
:103C600018491748184D194E194F4FF47A780860C3
:103C700028783178084312D0FEF774FEFFF7C0FDB4
:103C80004046FCF78BFE2C70347012A0FFF70CFD41
:103C9000387800B13C700A20FCF780FEE8E7FFF7B7
:103CA0007DFAF2E73C010020840100200000F04191
:103CB0000000484214020020480200207C0200203C
:103CC0000000204130000020480000204900002072
:103CD00000000020310000000549C26A8A4201DB71
:103CE000C1627047B2F5000FFBDA0021F8E700006F
:103CF000005043472DE9F0470446D4E90001FCF7A2
:103D000085FA0646A060206BE568012801D038B32B
:103D100046E029463046FCF779FA6169FCF77CFAFF
:103D2000814620623146A069FCF776FA8046A0629F
:103D300001212846FCF7E0FA3146FCF76AFA2169CE
:103D4000FCF712FAE169FCF767FA07466062414640
:103D50004846FCF709FA3946FCF706FAE16A1CE026
:103D600031466069FCF758FA814620623146A06905
:103D7000FCF752FAA16AFCF7F7F98046A0622946DF
:103D80003046FCF743FAE169FCF746FA0746606201
:103D900041464846FCF7E8F93946FCF7E5F9E062A8
:103DA000C4E90365BDE8F08710B54CF250339A4280
:103DB00000D31A460068C46A641C6243B2FBF3F283
:103DC00029B1042905D0082905D0026410BD426339
:103DD00010BD826310BDC26310BD01020203040561
:103DE000060708090A0B0C0D0E0F1010000000004A
:103DF000000000000102030406070809000000009B
:103E000001020304000000004FBB610567ACDD3F09
:103E1000182D4454FB21E93F9BF681D20B73EF3FF1
:103E2000182D4454FB21F93FE2652F227F2B7A3C69
:103E3000075C143326A6813CBDCBF07A8807703C22
:103E4000075C143326A6913CC4EB98999999C9BF95
:103E5000711623FEC671BCBF6D9A74AFF2B0B3BFCA
:103E60009AFDDE522DDEADBF2F6C6A2C44B4A2BF8A
:103E70000D5555555555D53FFF8300922449C23FF6
:103E80006E204CC5CD45B73F513DD0A0660DB13F2A
:103E9000EB0D76244B7BA93F11DA22E33AAD903F3C
:103EA000C03E000800000020E8000000C037000805
:103EB000A83F0008E8000020C8050000D03700082F
:103EC00000000000010000001000000000000000E1
:103ED00000127A0000000000000000000101000054
:103EE00003FCFC03000000000000000000000000D4
:103EF00000000000000000000000000000000000C2
:103F000000000000000000000000000000000000B1
:103F100000000000000000000000000000000000A1
:103F20000000000000000000000000000000000091
:103F30000000000000000000000000000000000081
:103F4000000000006F12833AA69B443B0000003F34
:103F50000000803F00000000000000000000803FE3
:103F6000CDCC4C3D0000000000000000000000002F
:103F7000000000006F12833AA69B443B0000003F04
:103F80000000803F00000000000000000000803FB3
:103F9000CDCC4C3D000000000000000000000000FF
:083FA000000000000000000019
:04000005080000ED02
:00000001FF
