:020000040800F2
:10000000D8050020010100086D1C00081119000826
:100010009D1B0008A10300088D25000800000000BA
:10002000000000000000000000000000811F000828
:10003000A3030008000000007F1F0008831F0008C2
:100040001B0100081B0100081B0100081B01000820
:100050001B0100081B0100081B0100081B01000810
:10006000AD0300081B010008B30300081B010008D2
:100070001B0100081B0100081B0100081B010008F0
:100080001B0100081B0100081B0100081B010008E0
:100090001B0100081B0100081B0100081B010008D0
:1000A0001B0100081B0100081B0100081B010008C0
:1000B000D9200008E52000081B0100081B010008EA
:1000C0001B0100081B0100081B0100081B010008A0
:1000D0001B0100081B0100081B0100088125000806
:1000E000A50300081B0100081B010008DFF80CD065
:1000F00000F044F900480047C9270008D80500204F
:100100000648804706480047FEE7FEE7FEE7FEE7B1
:10011000FEE7FEE7FEE7FEE7FEE7FEE7E51F000875
:10012000ED000008D2B201E000F8012B491EFBD21D
:1001300070470022F6E710B513460A4604461946F2
:10014000FFF7F0FF204610BDF0B480EA0102D40FA3
:100150004200B2EB410F02D20246084611464A0065
:1001600042D0C30DDDB2C1F3C752AD1A202D35DA2E
:10017000C1F3160141F4000204B15242C5F1200658
:1001800002FA06F12A411044B3EBD05F23D0C4B188
:10019000012DA0EBC35009DCF0BC4FF0004202EA95
:1001A000C352DBB200F5000000F0B9B8400000F126
:1001B000807000EBC350A0F1807040EAD17049001C
:1001C00009E0490841EAC071A0EBC35000F5000006
:1001D000400800EBC350F0BC00F098B86142012227
:1001E00002EB4101001BF6E7F0BC704781F00041D3
:1001F000AAE780F00040A7E780EA010210B502F00C
:100200000043400022D04A001FD0010E01EB1261D2
:10021000C0F35600C2F3560240F4000042F400025C
:10022000A0FB022000047F39140400D0401C50EAD7
:10023000124001D44000491EC2B20C0604EBD0109B
:10024000401C4008802A02D003E0002010BD20F0AE
:100250000100002900DA0020184310BD420005D03B
:10026000C0F3C7525242914201DC0020704700EBBC
:10027000C1507047C10F80EAE0700844CA07962356
:10028000002100F04CB800F0004220F00040C10D09
:10029000C0F3160040F400007F2901DA0020704707
:1002A000962903DCC1F19601C84001E096398840E7
:1002B000002AF4D04042704720F00040C10DC0F346
:1002C000160040F400007F2901DA002070479629CB
:1002D00003DCC1F19601C8407047963988407047E9
:1002E00030B50B46014600202022012409E021FA06
:1002F00002F59D4205D303FA02F5491B04FA02F503
:100300002844151EA2F10102F1DC30BD0029A8BF6E
:100310007047401C490008BF20F00100704710B42E
:10032000B0FA80FC00FA0CF050EA010404BF10BCE3
:10033000704749B1CCF1200421FA04F411FA0CF110
:1003400018BF012121430843A3EB0C01CB1D4FEA49
:1003500000614FEA102042BF002010BC704700EB44
:10036000C35010440029A4BF10BC7047401C490072
:1003700008BF20F0010010BC70470000064C074D7C
:1003800006E0E06840F0010394E807009847103465
:10039000AC42F6D3FFF7AEFECC290008EC290008EA
:1003A000FEE770474FF4004000F0ACB8042000F0C6
:1003B000A9B8102000F0A6B872B6FEE710B590F804
:1003C00021100022022905D00421816380F8202019
:1003D000012010BD01680B6823F00E030B6001685B
:1003E0000B6823F001030B6090F84030C46B0121CF
:1003F00001FA03F3636080F8211080F82020104692
:1004000010BD000010B590F821100024022903D07F
:100410000421816301243DE001680A6822F00E0294
:100420000A6001680A6822F001020A601A4A01683B
:10043000914201D1012121E0174A1432914201D1A8
:1004400010211BE0144A2832914201D1891515E090
:10045000114A3C32914201D189140FE00E4A5032C8
:10046000914202D14FF4803108E00B4A643291424C
:1004700002D14FF4801101E04FF08071064A083A32
:100480005160012180F82110002180F82010416B7B
:1004900001B18847204610BD0800024070B50446EF
:1004A00000F036F90546601C02D004480078044488
:1004B00000F02EF9401BA042FAD370BD10000020BE
:1004C00010B50D4A042809D0102811D1202110465A
:1004D00000F014F90949012807D00AE00821104664
:1004E00000F00CF90649012803D00868401C086098
:1004F00010BD0868401EFAE70008014024000020F3
:1005000020000020044910B50A68024202D00860A9
:10051000FFF7D6FF10BD0000140401402DE9F84F8D
:10052000DFF8B8910024A9F1040B23460F2709F145
:10053000040AABF1040EC9E00125A5402A40AA42F5
:100540007DD1674ED1F804C0ACEB0608B44532D07B
:1005500014DCBCF1030F3AD009DCBCF1000F2AD047
:10056000BCF1010F1CD0BCF1020F31D11DE0BCF178
:10057000110F17D0BCF1120F2AD119E0B8F5881F5E
:1005800019D006DCB8F5803F15D0B8F5801F1FD113
:1005900011E0B8F5001F0ED0B8F5041F18D10AE01D
:1005A000CB6815E0CB681B1D12E0CB6808330FE069
:1005B000CB680C330CE08B682BB1012B4FF0080398
:1005C00003D0456104E0042302E0056100E000235C
:1005D000FF2A01D8064601E000F104064FEA84052F
:1005E00001D9A5F12005D6F8008007FA05FC28EA14
:1005F0000C0803FA05F548EA0508C6F800804D68BE
:10060000ED0062D5374DAE6946F00106AE61AD69C9
:1006100024F0030605F001050095334D06EB050CAB
:10062000DCF80850A607360F07FA06F825EA080591
:10063000DFF8B880404503D14FF0000817E044E0F0
:10064000DFF8AC80404502D14FF001080FE0DFF841
:10065000A480404502D14FF0020808E0DFF89880FE
:10066000404502D14FF0030801E04FF0040808FABA
:1006700006F848EA0508CCF808804D68D9F800600B
:10068000ED024D4601D5164300E096432E604D68BD
:10069000DAF80060AD02554601D5164300E09643F6
:1006A0002E604D68DBF80060AD035D4601D5164352
:1006B00000E096432E604D68DEF80060ED0375465D
:1006C00001D5164300E096432E60641C0D682A464F
:1006D000E5407FF431AFBDE8F88F00000804014029
:1006E000000011100010024000000140000801400D
:1006F000000C0140001001400014014080680840D7
:1007000000D0012070470AB1016170470904FBE77E
:1007100001488068704700001000002070B5040098
:1007200025D094F83D00002520B984F83C5020469F
:1007300000F0B8F8242084F83D002068016821F01A
:10074000010101602068016841F4004101602068F6
:10075000016821F40041016000F00AFA4D4A616825
:10076000914201D84C4900E04C49884201D2012015
:1007700070BD4B492368B0FBF1F15E6826F03F067F
:100780000E435E606368934206D94FF496735943F3
:100790004FF47A73B1FBF3F12368491C1E6A26F00B
:1007A0003F06314319626168914210D84900401EEA
:1007B000B0FBF1F2521CC2F30B02042A01D2042056
:1007C00022E0B0FBF1F0401CC0F30B001CE0A2687B
:1007D000F2B301EBC10303EB0116431EB3FBF6F3C7
:1007E0005B1C43F480431B0549D092B301EBC1026B
:1007F00002EB0111401EB0FBF1F0401CC0F30B00F6
:1008000040F4804040F400402168CA694CF6FF7310
:100810009A431043C861D4E9071001432068026875
:1008200022F0C00211430160D4E9030101432068B2
:10083000826848F2FF339A4311438160D4E905018D
:1008400008432168CA6822F0FF021043C86001E033
:100850000EE016E02068016841F0010101602564A6
:10086000202084F83D00256384F83E50002070BDB0
:1008700001EB4106431EB3FBF6F35B1CB3E701201B
:10088000C2E701EB4101401EB0FBF1F0401CC0F398
:100890000B00B7E7A086010080841E0000093D0020
:1008A00040420F0010B586B00021009101910291E5
:1008B000039100681349884222D1134CA06940F08B
:1008C0000800A061A069694600F0080004904FF498
:1008D0004070009012200190032003900B48FFF716
:1008E0001DFE0B48416841F0E06141F002014160AA
:1008F000E06940F40010E061E06900F40010049049
:1009000006B010BD0054004000100240000C014031
:1009100000000140024881680278114481607047FC
:1009200010000020074810B5016841F01001016077
:10093000032000F075F80F2000F006F800F024F80E
:10094000002010BD0020024070B50D4D04464FF44C
:100950007A712878B1FBF0F00A490968B1FBF0F030
:1009600000F0DCFA48B9102C07D200222146501EB4
:1009700000F036F800206C6070BD012070BD0000F2
:10098000100000201C0000200C4808B5816941F0CF
:1009900001018161816901F001010091C16941F0AA
:1009A0008051C161C06900F08050009004484168E6
:1009B00021F0E06141F00071416008BD001002408B
:1009C00000000140002809DB00F01F0201219140D6
:1009D0004009800000F1E020C0F8001170470000DD
:1009E000F0B40E4B1B680C46C3F30223C3F107059A
:1009F000042D00D90425191D072901D2002300E088
:100A0000DB1E012606FA05F1491E214099409E4051
:100A1000761E16403143F0BC01F0CABD0CED00E07B
:100A2000064900F0070208684FF6FF03184040EA45
:100A30000220034A10430860704700000CED00E0FC
:100A40000000FA052DE9F0470F46050061D0434E3E
:100A5000306800F00700B84209D2306820F0070083
:100A600038433060306800F00700B84251D1286840
:100A70003B4C810712D5400703D5606840F4E06025
:100A800060602878000703D5606840F460506060BB
:100A90006068A96820F0F000084360602878C0070B
:100AA00028D06868012810D02168022810D0890752
:100AB00000292EDA616821F0030101436160FFF72C
:100AC00027FE804641F288390DE021688903EFE76F
:100AD0008901EDE7FFF71CFEA0EB0801494502D9AB
:100AE0000320BDE8F0876068696800F00C00B0EB97
:100AF000810FEFD1306800F00700B8420BD93068A1
:100B000020F0070038433060306800F00700B8423A
:100B100001D00120E5E72878400705D56068E9683D
:100B200020F4E060084360602878000706D560681C
:100B3000296920F4605040EAC100606000F038F894
:100B40006168084AC1F30311515CC8400649086056
:100B500006480068FFF7F8FE0020C2E700200240C8
:100B600000100240B42900081C00002014000020DE
:100B70000448054900684968044AC1F30221515CF0
:100B8000C84070471C00002000100240C429000823
:100B90000448054900684968044AC1F3C221515C10
:100BA000C84070471C00002000100240C429000803
:100BB0000E4A51680E4801F00C03042B11D0082B8B
:100BC0000FD10C48C1F38343C903C05C0AD55168F7
:100BD000084AC1F34041921E515C054A5043B0FBA4
:100BE000F1F070470449484370470000001002408C
:100BF00000127A00A429000800093D002DE9F84FF1
:100C0000040070D02078C04DC00749D06868C0F398
:100C10008100012807D06868C0F38100022809D14B
:100C20006868C00306D52868800339D56068002845
:100C3000E7D035E06068B0F5803F0BD010B1B0F57B
:100C4000A02F11D0286820F480302860286820F474
:100C5000802002E0286840F480302860606890B10D
:100C6000FFF756FD06460AE0286840F48020286019
:100C7000F0E700BFFFF74CFD801B642873D828689D
:100C80008003F7D50CE0FFF743FD064605E000BF03
:100C9000FFF73EFD801B6428F0D828688003F7D456
:100CA00020789A4E80074FF001094FF0000839D59F
:100CB000686810F00C0F07D06868C0F38100022844
:100CC00009D16868C00306D42868800714D5206954
:100CD000012808D110E02069B0B1C6F80090FFF7F4
:100CE00017FD074605E00AE1FFF712FDC01B0228C9
:100CF000C4D828688007F7D52868616920F0F80013
:100D000040EAC10028600DE0C6F80080FFF700FD52
:100D1000074604E0FFF7FCFCC01B022823D8286824
:100D20008007F7D4207800072CD57948A169D9B17C
:100D3000C0F80090FFF7ECFC074604E0FFF7E8FC82
:100D4000C01B02280FD8686A8007F7D571484FF496
:100D5000FA510068B0FBF1F0009000BF0098411E0E
:100D60000091FAD20EE080E0C0F80080FFF7D0FCDE
:100D7000074604E0FFF7CCFCC01B022875D8686A60
:100D80008007F7D42078400760D5E8690027C000C5
:100D900008D4E86940F08050E861E869012700F074
:100DA000805000905C480168C90513D401688346EF
:100DB00041F480710160FFF7ABFC824606E000BFA2
:100DC000FFF7A6FCA0EB0A0064284ED8DBF8000071
:100DD000C005F5D5E06801280AD008B1052813D070
:100DE000286A20F001002862286A20F0040002E04E
:100DF000286A40F001002862E06841F2883B98B11F
:100E0000FFF786FC82460BE0286A40F00400286267
:100E1000EEE700BFFFF77CFCA0EB0A0159455AD86A
:100E2000286A8007F6D50CE0FFF772FC824605E0E1
:100E3000FFF76EFCA0EB0A0159454CD8286A8007E1
:100E4000F6D41FB1E86920F08050E861E06988B30A
:100E50006968C1F38101022944D00228C6F8608084
:100E600004D0FFF755FC044638E034E0FFF750FCAF
:100E7000074604E0FFF74CFCC01B02282BD828686B
:100E80008001F7D4206AB0F5803F05D16868A16879
:100E900020F4003008436860D4E908010843696819
:100EA00021F4741108436860C6F86090FFF730FCC5
:100EB000044606E025E000BFFFF72AFC001B0228DD
:100EC00009D828688001F7D51BE000BFFFF720FC98
:100ED000001B022802D90320BDE8F88F2868800192
:100EE000F4D40EE00128F7D06868226A00F480315B
:100EF000914204D1616A00F47010884201D001204F
:100F0000EAE70020E8E7000000100240000042424B
:100F1000800442421C0000200070004010B5401EBA
:100F2000B0F1807F01D3012010BD4FF0E02460615B
:100F30000F21601701F03CFB0020A0610720206119
:100F4000002010BD7047704770B590F83C20012A12
:100F500026D0012480F83C40022280F83D2003681E
:100F60005A689D6822F070060A6832435A600D4B39
:100F700002689A4208D0B2F1804F05D00A4B9A42DB
:100F800002D00A4B9A4204D1496825F080031943E4
:100F9000916080F83D40002180F83C10084670BD0B
:100FA000022070BD002C01400004004000080040F9
:100FB00010B5040003D094F83D0010B107E0012003
:100FC00010BD002084F83C00204600F01FF80220ED
:100FD00084F83D00211D206801F08AF8012084F882
:100FE000460084F83E0084F83F0084F8400084F80E
:100FF000410084F8420084F8430084F8440084F8F7
:10100000450084F83D00002010BD000008B50168CF
:101010001448B1F1804F14D0134A914220D1C169D4
:1010200041F00201C161C069002200F0020000909D
:1010300011461D20FFF7D4FC1D20BDE80840FFF736
:10104000C1BCC16941F00101C161C069002200F069
:101050000100009011461C20FFF7C2FC1C20ECE7A9
:1010600008BD0000001002400004004090F83D1050
:10107000012901D001207047022180F83D1001684C
:10108000CA6842F00102CA6000680B49884208D071
:10109000B0F1804F05D00949884202D00849884202
:1010A00004D1816801F00701062903D0016841F0ED
:1010B0000101016000207047002C01400004004045
:1010C0000008004070B5044690F83C000025012857
:1010D00017D0012684F83C60022084F83D00206887
:1010E000826822F0770222F47F42826008685028EA
:1010F00038D00DDC20284FD005DC90B3102811D15A
:101100004AE0022070BD302846D040280AD13BE09A
:1011100060282FD070280DD0B0F5805F03D0B0F5D7
:10112000005F12D0012584F83D60002084F83C0067
:10113000284670BDCB68D1E90121206801F021F873
:101140002068816841F0770109E0CB68D1E901218D
:10115000206801F016F82068816841F480418160C0
:10116000E1E719E0CA684968206801F0BFF850213A
:10117000206806E0CA684968206801F0C8F8602164
:10118000206801F008F8CEE7CA684968206801F0D5
:10119000ADF840212068F4E7226801461046F0E7E8
:1011A00070472DE9F04104460068C66805694FF0B4
:1011B0000007A90713D5B10711D5F91E0161012058
:1011C0002077206880698007204602D0FFF7E8FF7B
:1011D00004E000F0A3F8204600F035F9277768070F
:1011E00016D5700714D521686FF00400086102203D
:1011F00020772068806910F4407F204602D0FFF7F6
:10120000CFFF04E000F08AF8204600F01CF92777B1
:10121000280715D5300713D521686FF0080008613D
:10122000042020772068C0698007204602D0FFF79D
:10123000B7FF04E000F072F8204600F004F92777C9
:10124000E80616D5F00614D521686FF01000086185
:10125000082020772068C06910F4407F204602D023
:10126000FFF79EFF04E000F059F8204600F0EBF88D
:101270002777E80708D0F00706D021686FF0010053
:101280000861204600F02EF9280608D5300606D55C
:1012900021686FF0800008612046FFF753FE680662
:1012A00008D5700606D521686FF040000861204619
:1012B00000F030F9A8060AD5B00608D521686FF00D
:1012C000200008612046BDE8F041FFF73CBEBDE8C4
:1012D000F081000000B585B00021009101910291DC
:1012E00003910068B0F1804F11D10A48816941F043
:1012F000040181618069694600F0040004900320C4
:1013000000900220019003900348FFF707F905B011
:1013100000BD00000010024000080140704770B599
:10132000044690F83C0000260D4601280FD001200D
:1013300084F83C006AB1042A1DD0082A2FD00C2A58
:101340003FD00126002084F83C00304670BD0220CA
:1013500070BD206800F028FF2068816941F0080115
:1013600081612068816921F00401816120688169BF
:101370002A69114311E0206800F03EFF206881696E
:1013800041F4006181612068816921F4806181619B
:10139000206881692A6941EA02218161D2E72068D7
:1013A00000F056FF2068C16941F00801C161206862
:1013B000C16921F00401C1612068C1692A69114332
:1013C00011E0206800F070FF2068C16941F40061FD
:1013D000C1612068C16921F48061C1612068C1696F
:1013E0002A6941EA0221C161ACE710B5040003D0CB
:1013F00094F83D0010B107E0012010BD002084F8F2
:101400003C00204600F01EF8022084F83D00211D1B
:10141000206800F06DFE012084F8460084F83E004C
:1014200084F83F0084F8400084F8410084F84200CA
:1014300084F8430084F8440084F8450084F83D00B3
:10144000002010BD7047704710B50446022249B114
:1014500004290ED0082913D094F84100012816D091
:10146000012010BD94F83E000128F9D184F83E20F7
:101470000FE094F83F000128F2D184F83F2008E003
:1014800094F840000128EBD184F8402001E084F872
:1014900041200122206800F067FE0F492068884241
:1014A00003D1426C42F4004242642068884208D072
:1014B000B0F1804F05D00949884202D008498842DE
:1014C00004D1816801F00701062903D0016841F0C9
:1014D00001010160002010BD002C0140000400400B
:1014E0000008004010B50068084988420CD100F09F
:1014F000E7FC07484178491CC9B24170052903D36C
:10150000002141700121017010BD00000004004065
:10151000000000207047704770470000F8B5016870
:1015200004460868CA684B6910F00F0F4FF00005B9
:1015300059D003F0010602F49077374365D0C10714
:1015400005D0D10503D5616C41F00101616441070B
:1015500005D5D90703D0616C41F0020161648107B0
:1015600005D5D90703D0616C41F00401616401071E
:1015700007D502F02001314303D0616C41F008012E
:101580006164616C00293AD0800604D5900602D5CA
:10159000204600F0FDFE20684069616CC0F38010B9
:1015A000090700D460B3204600F0CBFE20684069F4
:1015B000400621D52068143050E8001F21F040017A
:1015C00040E80012002AF5D1E06BA8B16D494163F3
:1015D000E06BFEF717FF002811D0E06B416B01B004
:1015E000BDE8F040084783060FD593060DD5204689
:1015F000BDE8F84000F0CCBE2046FFF78DFFF8BDF7
:101600002046FFF789FF6564F8BD266B2023012E75
:101610007CD1C6067AD5D60678D508684868009089
:1016200048694FF00206400640D5E16B0868406803
:101630000004000CE8D0A28D8242E5D9E0858869DB
:1016400020282DD020680C3050E8001F21F4807134
:1016500040E80012002AF5D12068143050E8001F3D
:1016600021F0010140E80012002AF5D12068143071
:1016700050E8001F21F0400140E80012002AF5D197
:1016800084F84230256320680C3050E8001F21F0B8
:10169000100140E80012002AF5D1E06BFEF78EFE43
:1016A0006663A08DE18D401A81B22AE0A08DE18DA4
:1016B000401A81B2E08D0028A6D00029A4D022686B
:1016C0000C3252E8000F20F4907042E80007002F1F
:1016D000F5D12068143050E8002F22F0010240E8D4
:1016E0000027002FF5D184F84230256320680C30A4
:1016F00050E8002F22F0100240E80023002BF5D123
:1017000066632046FFF707FFF8BDFFE705062BD508
:10171000150629D594F841002128F5D1A068B0F527
:10172000805F01D12069B0B1206A411C216221682B
:1017300000784860E08C401E0004000CE084E3D197
:101740002068C16821F08001C1602068C16841F053
:101750004001C160D8E7206A0088C0F308004860F3
:10176000206A801C2062E5E74006CDD55006CBD527
:10177000CA68204622F04002CA6084F8413000F076
:10178000C6F8C1E73323000870B5040004D094F80C
:101790004100002510B106E0012070BD84F84050E2
:1017A000204600F023F8242084F841002068C16816
:1017B00021F40051C160204600F04CFE2068016910
:1017C00021F4904101612068416921F02A014161C1
:1017D0002068C16841F40051C1606564202084F82C
:1017E000410084F842006563002070BD30B585B0CB
:1017F00000240094019402940394006818498842DC
:101800002CD11848C16941F48021C161C16901F43A
:1018100080210491816941F0080181618069124D44
:1018200000F0080004904FF48060009002200190C6
:101830000320039069462846FEF770FEE814CDE9C0
:101840000004694628460294FEF768FE002211460D
:101850002720FFF7C5F82720FFF7B4F805B030BD03
:101860000048004000100240000C014070472DE984
:10187000F843044690F84100984616460D46202845
:1018800002D00220BDE8F88385B17EB100206064FB
:10189000212084F84100FEF73BFFA6848146E684C0
:1018A000A0682027B0F5805F02D003E00120E9E7BF
:1018B000206910B12E4600250EE000260CE08021A4
:1018C000204600F023FEA8B9C6B116F8010B216826
:1018D0004860E08C401EE084E08C4B464FF00002F4
:1018E000CDF800800028EAD14FF04001204600F0FA
:1018F0000DFE40B184F841700320C3E735F8020BB8
:10190000C0F30800E3E784F841700020BAE77047AD
:10191000FEE70000F0B585B0002539480095019537
:1019200002950395816941F010018161816901F09F
:1019300010010491816941F020018161816901F008
:1019400020010491816941F004018161816901F004
:1019500004010491816941F0080181618069294F86
:1019600000F008004FF470760490002231463846AB
:10197000FEF7C9FE1420009023480124CDE901049C
:1019800069463846FEF7CAFD2820CDE900056946BC
:1019900002943846FEF7C2FD0220CDE90250CDE99F
:1019A000006469463846FEF7B9FDE0030090174829
:1019B000CDE9010469463846FEF7B0FDF820CDE9CF
:1019C0000005694602941248FEF7A8FD0022114660
:1019D0000820FFF705F80820FEF7F4FF0022114663
:1019E0000A20FEF7FDFF0A20FEF7ECFF0022114659
:1019F0002820FEF7F5FF2820FEF7E4FF05B0F0BD34
:101A000000100240000801400000211000001110E9
:101A1000000C01400D4810B50B4901600C494160B4
:101A200000214FF480428160C0E90312416181616D
:101A3000C1610162FEF772FE002803D0BDE81040CC
:101A4000FEF7BABC10BD0000005400404400002066
:101A5000A086010010B58EB0002407940894099464
:101A60000A940B941C2168460C94FEF762FB2248F2
:101A70004FF0804101604721C0E9011444F61F6125
:101A8000C0E9031480218161FFF792FA08B1FEF7E3
:101A900093FC4FF48050079007A91748FFF712FBFB
:101AA00008B1FEF789FC1448FFF79FFC08B1FEF768
:101AB00083FC0B940BA910480C94FFF745FA08B16E
:101AC000FEF77AFC6020CDE900040294002269460A
:101AD00009480494FFF723FC08B1FEF76DFC0422CB
:101AE00069460548FFF71BFC08B1FEF765FC024894
:101AF000FFF7F0FB0EB010BD9800002010B586B0C7
:101B00000024174800940194029403940494134908
:101B10000594016041F61F41C0E901146321C0E949
:101B2000031480218161FFF743FA08B1FEF744FCFA
:101B30004FF48050009069460948FFF7C3FA08B196
:101B4000FEF73AFC049404A905480594FFF7FCF954
:101B5000002801D0FEF730FC06B010BD00040040A4
:101B6000E00000200C4810B50A4901604FF4E13153
:101B70004160002181600C22C160C0E904128161D2
:101B8000C161FFF701FE002803D0BDE81040FEF759
:101B900013BC10BD0048004028010020FEE70000F3
:101BA00070B582B200210A4800F0E2FE094C0A4DED
:101BB000402122782846FEF7A6FD207830B1002289
:101BC0002846BDE870408021FEF79DBD0122F7E761
:101BD00098000020280000200008014070B582B263
:101BE00004210C4800F0C4FE0B4C0C4D4FF48071E6
:101BF00062782846FEF787FD607840B15FF000020A
:101C00002846BDE870404FF40071FEF77CBD01220C
:101C1000F6E700009800002028000020000801409E
:101C20002DE9F0410C460E490E4D012600270028F3
:101C300001DB0E7001E00F704042FEF71BFB2860D5
:101C4000084D09483435002C02DB0670204601E0BF
:101C500007706042FEF70EFB2860BDE8F0810000CF
:101C6000280000207001002029000020FEE770B548
:101C700000240021204600F0EFF80025002000F0AD
:101C80000DF96D1CEDB2802DF8D3641CE4B2082C64
:101C9000EFD370BD10B586B0002002901048816966
:101CA00041F00801816180690E4C00F00800049049
:101CB0004FF440700090112001900320039069467A
:101CC0002046FEF72BFC012211022046FEF71BFDE9
:101CD000012251022046FEF716FD06B010BD00009D
:101CE00000100240000C01402DE9F047144E002482
:101CF00007464FF080084FF40079B51528FA04F232
:101D00003A4049463046FEF7FEFC0122294630465D
:101D1000FEF7F9FC002229463046FEF7F4FC641C6D
:101D2000E4B2082CEAD3012229463046FEF7EBFC48
:101D300029463046BDE8F0470022FEF7E4BC00002B
:101D4000000C014070B501220B4D5402214628467B
:101D5000FEF7D9FC0122160231462846FEF7D3FCD5
:101D6000002221462846FEF7CEFC31462846BDE833
:101D700070400022FEF7C7BC000C014070B50A4D50
:101D80004FF40074002221462846FEF7BCFC0122D5
:101D900011022846FEF7B7FC21462846BDE87040F0
:101DA0000122FEF7B0BC0000000C014010B500207D
:101DB0004FF47A720021491C9142FCD3401C90429E
:101DC000F8D3FFF767FFAE2000F057F8D52000F0FA
:101DD00054F8802000F051F8A82000F04EF83F2081
:101DE00000F04BF8D32000F048F8002000F045F850
:101DF000402000F042F8A12000F03FF8C82000F099
:101E00003CF8DA2000F039F8122000F036F8812092
:101E100000F033F8CF2000F030F8D92000F02DF892
:101E2000F12000F02AF8DB2000F027F8302000F045
:101E300024F8A42000F021F8A62000F01EF88D2040
:101E400000F01BF8142000F018F8AF2000F015F88F
:101E5000BDE81040FFF70BBF10B50C4640F0B000D6
:101E600000F00BF8102040EA141000F006F804F01F
:101E70000F00BDE81040AFF3008010B50446FFF737
:101E800061FF7820FFF730FF0020FFF72DFF20468D
:101E9000FFF72AFFBDE81040FFF770BF10B50446FA
:101EA000FFF750FF7820FFF71FFF4020FFF71CFFD0
:101EB0002046FFF719FFBDE81040FFF75FBF0000A5
:101EC0002DE9F041DFF89080244A264ED8F808002A
:101ED000136806F134071844214BC8F80800D8F8F5
:101EE0000C401D6825440024C8F80C5014601C6088
:101EF000B8F80420521C92B2A8F80420052A17D37F
:101F00001949097841B100BFFEF7B4F9706017486C
:101F1000007818B1284602E04042F5E76842FEF733
:101F2000A9F97860C8F80840C8F80C40A8F804403F
:101F30000C4800F0B5FC0B48343000F0B1FCF06AFE
:101F4000FEF7A1F9FFF72CFEF86AFEF79CF9BDE851
:101F5000F041FFF743BE00002C00002020000020CD
:101F6000240000207001002028000020290000200B
:101F700010B5029C0163143080E81C0010BD70474E
:101F80007047FEF7C7BC30B58FB028216846FEF712
:101F9000D0F814210AA8FEF7CCF801210804CDE9F5
:101FA00000100024029402250491CDE907504FF45B
:101FB000E01009906846FEF721FE08B172B6FEE710
:101FC0000F20CDE90A054FF48060CDE90C400221D5
:101FD0000AA80E94FEF736FD002801D072B6FEE77F
:101FE0000FB030BD7047000070B5394D082128464C
:101FF000FEF784FB374C48B910212846FEF77EFBDC
:1020000020B920212846FEF779FB28B12021284657
:10201000FEF774FB10B10BE001203EE040212846A2
:10202000FEF76CFB20B980212846FEF767FBC8B19C
:1020300020212846FEF762FBB0B110212846FEF7AA
:102040005DFBB8B140212846FEF758FBC0B108211E
:102050002846FEF753FBC8B180212846FEF74EFB09
:10206000D0B11BE0022018E01E210846FFF7D8FD82
:10207000032012E01E211920FFF7D2FD04200CE0FE
:1020800019211E20FFF7CCFD052006E01E2114209B
:10209000FFF7C6FD062000E0072020702078082802
:1020A00015D2DFE800F0140412070A1004121E21F2
:1020B0000A2004E01E211E2001E01E211420BDE89C
:1020C0007040FFF7ADBD1421F5E70A21F3E770BDBD
:1020D000000C01403C0000200148FFF762B80000FE
:1020E000980000200148FFF75CB80000E0000020E5
:1020F000F0B50268194B1A4C1A4D4FF080479842C0
:1021000005D0B84203D0A04201D0A84203D122F0AA
:1021100070064A683243984205D0B84203D0A042C4
:1021200001D0A84203D122F44074CA6822434C690A
:1021300022F08002224302608A68C2620A688262D8
:10214000984201D109690163012141610169C9070F
:1021500003D0016921F001010161F0BD002C0140B3
:10216000000400400008004010B501F01F030121E9
:10217000046A99408C430462016A9A4011430162E7
:1021800010BD10B5846842EA032224F47F440A4358
:102190002243826010BD826822F070020A4342F03E
:1021A000070181607047000030B5036A026A22F0BF
:1021B000010202624268846924F073050C682C43B2
:1021C00023F002058B682B430A4DA8420BD123F064
:1021D0000805CB6822F440722B434D6923F00403B9
:1021E00015438A692A4342608461496841630362F6
:1021F00030BD0000002C014030B5026A036A23F0B4
:1022000010030362436884690D6824F4E64444EAD9
:1022100005248D6822F0200242EA05120B4DA842E7
:102220000ED1CD6822F0800242EA05124D6923F4F6
:10223000406343EA85038D6922F0400243EA850347
:102240004360846149688163026230BD002C0140B3
:1022500030B5036A026A22F4807202624268C4697D
:1022600023F4007324F073050C682C438D6843EA53
:1022700005230C4DA8420ED1CD6823F4006343EA38
:1022800005234D6922F4405242EA05128D6923F478
:10229000806342EA05124260C4614968C163036217
:1022A00030BD0000002C014030B5046A026A22F4FF
:1022B000805202624268C3690D6823F4E64343EA30
:1022C00005238D6824F4005444EA0534064DA842E1
:1022D00004D14D6922F4804242EA85124260C36112
:1022E00049680164046230BD002C014010B5036AE6
:1022F000046A24F001040462846924F0F00444EACE
:10230000021423F00A020A438461026210BD10B570
:10231000036A046A24F010040462846923F0A003B1
:1023200024F4704444EA023243EA011182610162FA
:1023300010BD10B5406A0021C185C184FFF7ECF8DB
:1023400010BD01680C3151E8002F22F4907241E871
:102350000023002BF5D10168143151E8002F22F041
:10236000010241E80023002BF5D1016B012909D1BD
:1023700001680C3151E8002F22F0100241E80023DF
:10238000002BF5D1202180F8421000210163704715
:1023900008B590F84210222901D0022008BD8268B9
:1023A0004FF480539A4201D1016921B1816A9A4266
:1023B0001BD04AB10AE00268816A5268C2F308027F
:1023C0000A80816A891C08E0026972B10268526859
:1023D00002F07F020A70816A491C8162C18D491E28
:1023E0000904090CC18503D01BE002685268F1E7BB
:1023F0000168CA6822F02002CA600168CA6822F433
:102400008072CA6001684A6922F001024A61202193
:1024100080F8421000214163026B012A03D0FFF7CC
:1024200025FA002008BD016301680C3151E8002F36
:1024300022F0100241E80023002BF5D101680A6860
:10244000D20602D50A6849680091818DFFF763F8CA
:10245000E7E7000070B5044600680169E26821F40E
:102460004051114301612169A06808436169084333
:102470002168CA6841F20C639A430243CA6020682B
:102480004169A26921F44071114341611E492068EC
:10249000884202D1FEF77CFB01E0FEF769FB00EB0E
:1024A000C00101EB0012606864218000B2FBF0F310
:1024B000B3FBF1F36FF018067343B2FBF0F5B2FB18
:1024C000F0F605EB8305322303EB0515B5FBF1F5BB
:1024D000B6FBF1F605F0F00505EB0615B2FBF0F6DC
:1024E000B2FBF0F0B0FBF1F06FF01802504306EBD6
:1024F000800003EB0010B0FBF1F0216800F00F004A
:102500002844886070BD0000003801402DE9F84380
:10251000984617460D460446089E24E0701C22D0BB
:10252000FEF7F6F8A0EB0800B0421AD8CEB120684A
:10253000C168490717D5802D15D0402D13D00168EB
:10254000C94309070FD40168002540680090204660
:10255000FFF7F7FE0820606484F840500120BDE8D2
:10256000F8830320FBE72068006835EA000004D008
:102570000020B842D2D00020F1E70120F9E70000A6
:102580000148FEF7CBBF000028010020FEE7000055
:102590000FB4054B10B503A9044A029800F028F8BF
:1025A00010BC5DF814FB0000B127000840000020BB
:1025B0000907090E002804DB00F1E02080F8001470
:1025C000704700F00F0000F1E02080F8141D704704
:1025D00002E008C8121F08C1002AFAD170477047EC
:1025E000002001E001C1121F002AFBD1704700004A
:1025F0002DE9FF4F89B09B460446002506E02528BB
:102600000BD05A460B999047641C6D1C207800280B
:10261000F5D10DB02846BDE8F08F0027B84601225D
:10262000474900E0074314F8013F203B02FA03F05A
:102630000842F7D120782E2819D114F8010F47F05D
:1026400004072A280ED06FF02F022078A0F1300165
:1026500009290CD808EB880102EB410100EB0108C5
:10266000641CF2E70A98641C50F8048B0A902078E6
:102670000028CED0642808D0692806D075281ED03E
:102680005A460B9990476D1C58E00A994FF00A0979
:1026900001C90A91002802DA40422D2102E03905E1
:1026A00004D52B218DF82010012103E0F90704D077
:1026B0002021F7E78A4608AE0DE00021FAE70A99E3
:1026C0004FF00A0901C90A91F7E74946FDF708FEEC
:1026D000303106F8011D0028F7D1ADEB060000F1FE
:1026E0002009780701D44FF00108C84502DDA8EBA6
:1026F000090000E000208046002706E008A85A46AE
:10270000C05D0B9990476D1C7F1C5745F6DB04E0BC
:1027100030205A460B9990476D1CB8F10001A8F182
:102720000108F5DC05E016F8010B5A460B999047B5
:102730006D1CB9F10001A9F10109F4DC641C65E725
:1027400009280100F8B5174C2068FDF7B5FD0646CD
:102750006068FDF7B1FD04F1340705463868FDF700
:10276000ABFD04467868FDF7A7FD8DF800608DF895
:1027700001508DF802408DF803000A2302220A4915
:102780000A48FFF774F80A23042269460748FFF74E
:102790006EF805490A230222891C0448FFF767F8EE
:1027A000F8BD0000700100202C000020280100204E
:1027B00013B54FF0FF33012269460248FFF757F87F
:1027C00000981CBD280100200EB5FEF7ABF8FFF7FE
:1027D000DAFBFFF79FF8FFF73DF9FFF78FF9FFF7F7
:1027E000C1F9FFF717F900211C48FEF72DFE04215F
:1027F0001A48FEF729FE1A48FEF738FC194C002546
:1028000023461A46012118480095FFF7B1FB2346DD
:102810001A46012115480095FFF7AAFBFFF7C6FAF3
:10282000134C00BFFFF7E0FBB4F90800B4F90C202B
:10283000B4F90A108DE80700B4F90630B4F90420A1
:10284000B4F902100BA0FFF7A3FE207810B1257099
:10285000FFF778FF0A20FDF721FEE3E7980000204C
:10286000E00000200000484270010020A401002088
:102870000000002041583A25642C2041593A256433
:102880002C20415A3A25642C2047583A25642C20A4
:1028900047593A25642C20475A3A25640000000025
:1028A0002DE9F0470446D4E90001FDF79FFC0646F8
:1028B000A060206BE568012801D038B346E02946C6
:1028C0003046FDF793FC6169FDF796FC8146206276
:1028D0003146A069FDF790FC8046A06201212846A0
:1028E000FDF7BCFC3146FDF784FC2169FDF72CFCAB
:1028F000E169FDF781FC0746606241464846FDF705
:1029000023FC3946FDF720FCE16A1CE03146606992
:10291000FDF772FC814620623146A069FDF76CFC30
:10292000A16AFDF711FC8046A06229463046FDF7FA
:102930005DFCE169FDF760FC074660624146484680
:10294000FDF702FC3946FDF7FFFBE062C4E90365D1
:102950000649E06A884202DBE162BDE8F087B0F533
:10296000000FFADA0020E062F7E70000005043476A
:1029700010B54CF250339A4200D31A460068C46A2C
:10298000641C6243B2FBF3F229B1042905D0082983
:1029900005D0026410BD426310BD826310BDC263E6
:1029A00010BD010202030405060708090A0B0C0DFD
:1029B0000E0F1010000000000000000001020304D0
:1029C000060708090000000001020304EC290008C2
:1029D0000000002044000000D0250008302A000834
:1029E0004400002094050000E025000800000000DD
:1029F00000000000000000000000000001000000D6
:102A0000100000000000000000127A00000000002A
:102A1000000000000101000003FCFC0300000000B6
:102A200000000000000000000000000000000000A6
:04000005080000ED02
:00000001FF
