:020000040800F2
:100000007005002001010008B5190008C11600089C
:10001000E518000875030008E5210008000000004D
:10002000000000000000000000000000C91C0008E3
:100030007703000800000000C71C0008CB1C000864
:100040001B0100081B0100081B0100081B01000820
:100050001B0100081B0100081B0100081B01000810
:10006000790300081B0100087F0300081B0100083A
:100070001B0100081B0100081B0100081B010008F0
:100080001B0100081B0100081B0100081B010008E0
:100090001B0100081B0100081B0100081B010008D0
:1000A0001B0100081B0100081B0100081B010008C0
:1000B000311D00083D1D00081B0100081B01000840
:1000C0001B0100081B0100081B0100081B010008A0
:1000D0001B0100081B0100081B010008D9210008B2
:1000E0001B0100081B0100081B010008DFF80CD0F1
:1000F00000F02EF90048004791220008700500200A
:100100000648804706480047FEE7FEE7FEE7FEE7B1
:10011000FEE7FEE7FEE7FEE7FEE7FEE72D1D00082F
:10012000ED000008D2B201E000F8012B491EFBD21D
:1001300070470022F6E710B513460A4604461946F2
:10014000FFF7F0FF204610BDF0B480EA0102D40FA3
:100150004200B2EB410F02D20246084611464A0065
:1001600042D0C30DDDB2C1F3C752AD1A202D35DA2E
:10017000C1F3160141F4000204B15242C5F1200658
:1001800002FA06F12A411044B3EBD05F23D0C4B188
:10019000012DA0EBC35009DCF0BC4FF0004202EA95
:1001A000C352DBB200F5000000F0A3B8400000F13C
:1001B000807000EBC350A0F1807040EAD17049001C
:1001C00009E0490841EAC071A0EBC35000F5000006
:1001D000400800EBC350F0BC00F082B8614201223D
:1001E00002EB4101001BF6E7F0BC704781F00041D3
:1001F000AAE780F00040A7E780EA010210B502F00C
:100200000043400022D04A001FD0010E01EB1261D2
:10021000C0F35600C2F3560240F4000042F400025C
:10022000A0FB022000047F39140400D0401C50EAD7
:10023000124001D44000491EC2B20C0604EBD0109B
:10024000401C4008802A02D003E0002010BD20F0AE
:100250000100002900DA0020184310BD420005D03B
:10026000C0F3C7525242914201DC0020704700EBBC
:10027000C1507047C10F80EAE0700844CA07962356
:10028000002100F036B800F0004220F00040C10D1F
:10029000C0F3160040F400007F2901DA0020704707
:1002A000962903DCC1F19601C84001E096398840E7
:1002B000002AF4D04042704720F00040C10DC0F346
:1002C000160040F400007F2901DA002070479629CB
:1002D00003DCC1F19601C8407047963988407047E9
:1002E0000029A8BF7047401C490008BF20F001004A
:1002F000704710B4B0FA80FC00FA0CF050EA010428
:1003000004BF10BC704749B1CCF1200421FA04F4B9
:1003100011FA0CF118BF012121430843A3EB0C0192
:10032000CB1D4FEA00614FEA102042BF002010BCF5
:10033000704700EBC35010440029A4BF10BC7047A5
:10034000401C490008BF20F0010010BC70470000AD
:10035000064C074D06E0E06840F0010394E8070012
:1003600098471034AC42F6D3FFF7C4FE4824000887
:1003700068240008FEE77047042000F097B81020BA
:1003800000F094B872B6FEE710B590F82110002284
:10039000022905D00421816380F82020012010BDAE
:1003A00001680B6823F00E030B6001680B6823F0F3
:1003B00001030B6090F84030C46B012101FA03F394
:1003C000636080F8211080F82020104610BD0000E6
:1003D00010B590F821100024022903D00421816374
:1003E00001243DE001680A6822F00E020A600168FB
:1003F0000A6822F001020A601A4A0168914201D19A
:10040000012121E0174A1432914201D110211BE051
:10041000144A2832914201D1891515E0114A3C3223
:10042000914201D189140FE00E4A5032914202D11B
:100430004FF4803108E00B4A6432914202D14FF40C
:10044000801101E04FF08071064A083A51600121A5
:1004500080F82110002180F82010416B01B18847FD
:10046000204610BD0800024010B50D4A042809D0EE
:10047000102811D12021104600F014F90949012853
:1004800007D00AE00821104600F00CF906490128BF
:1004900003D00868401C086010BD0868401EFAE7D9
:1004A000000801401800002014000020044910B585
:1004B0000A68024202D00860FFF7D6FF10BD0000B4
:1004C000140401402DE9F84FDFF8B8910024A9F198
:1004D000040B23460F2709F1040AABF1040EC9E00F
:1004E0000125A5402A40AA427DD1674ED1F804C01B
:1004F000ACEB0608B44532D014DCBCF1030F3AD0A3
:1005000009DCBCF1000F2AD0BCF1010F1CD0BCF1FA
:10051000020F31D11DE0BCF1110F17D0BCF1120F49
:100520002AD119E0B8F5881F19D006DCB8F5803F4C
:1005300015D0B8F5801F1FD111E0B8F5001F0ED0FF
:10054000B8F5041F18D10AE0CB6815E0CB681B1D75
:1005500012E0CB6808330FE0CB680C330CE08B68FB
:100560002BB1012B4FF0080303D0456104E00423B5
:1005700002E0056100E00023FF2A01D8064601E001
:1005800000F104064FEA840501D9A5F12005D6F84B
:10059000008007FA05FC28EA0C0803FA05F548EA8A
:1005A0000508C6F800804D68ED0062D5374DAE698C
:1005B00046F00106AE61AD6924F0030605F00105C1
:1005C0000095334D06EB050CDCF80850A607360FF6
:1005D00007FA06F825EA0805DFF8B880404503D198
:1005E0004FF0000817E044E0DFF8AC80404502D14E
:1005F0004FF001080FE0DFF8A480404502D14FF032
:10060000020808E0DFF89880404502D14FF0030867
:1006100001E04FF0040808FA06F848EA0508CCF8AB
:1006200008804D68D9F80060ED024D4601D51643AB
:1006300000E096432E604D68DAF80060AD02554642
:1006400001D5164300E096432E604D68DBF800604C
:10065000AD035D4601D5164300E096432E604D681C
:10066000DEF80060ED03754601D5164300E09643C1
:100670002E60641C0D682A46E5407FF431AFBDE86A
:10068000F88F000008040140000011100010024023
:100690000000014000080140000C01400010014032
:1006A000001401408068084000D0012070470AB162
:1006B000016170470904FBE701488068704700004A
:1006C000040000200248816802781144816070476C
:1006D00004000020074810B5016841F010010160D6
:1006E000032000F075F80F2000F006F800F024F861
:1006F000002010BD0020024070B50D4D04464FF49F
:100700007A712878B1FBF0F00A490968B1FBF0F082
:1007100000F0DCFA48B9102C07D200222146501E06
:1007200000F036F800206C6070BD012070BD000044
:1007300004000020100000200C4808B5816941F039
:1007400001018161816901F001010091C16941F0FC
:100750008051C161C06900F0805000900448416838
:1007600021F0E06141F00071416008BD00100240DD
:1007700000000140002809DB00F01F020121914028
:100780004009800000F1E020C0F80011704700002F
:10079000F0B40E4B1B680C46C3F30223C3F10705EC
:1007A000042D00D90425191D072901D2002300E0DA
:1007B000DB1E012606FA05F1491E214099409E40A4
:1007C000761E16403143F0BC01F00DBD0CED00E08B
:1007D000064900F0070208684FF6FF03184040EA98
:1007E0000220034A10430860704700000CED00E04F
:1007F0000000FA052DE9F0470F46050061D0434E91
:10080000306800F00700B84209D2306820F00700D5
:1008100038433060306800F00700B84251D1286892
:100820003B4C810712D5400703D5606840F4E06077
:1008300060602878000703D5606840F4605060600D
:100840006068A96820F0F000084360602878C0075D
:1008500028D06868012810D02168022810D08907A4
:1008600000292EDA616821F0030101436160FFF77E
:1008700023FF804641F288390DE021688903EFE7C4
:100880008901EDE7FFF718FFA0EB0801494502D900
:100890000320BDE8F0876068696800F00C00B0EBE9
:1008A000810FEFD1306800F00700B8420BD93068F3
:1008B00020F0070038433060306800F00700B8428D
:1008C00001D00120E5E72878400705D56068E96890
:1008D00020F4E060084360602878000706D560686F
:1008E000296920F4605040EAC100606000F038F8E7
:1008F0006168084AC1F30311515CC84006490860A9
:1009000006480068FFF7F8FE0020C2E7002002401A
:1009100000100240302400081000002008000020D1
:100920000448054900684968044AC1F30221515C42
:10093000C84070471000002000100240402400080A
:100940000448054900684968044AC1F3C221515C62
:10095000C8407047100000200010024040240008EA
:100960000E4A51680E4801F00C03042B11D0082BDD
:100970000FD10C48C1F38343C903C05C0AD5516849
:10098000084AC1F34041921E515C054A5043B0FBF6
:10099000F1F07047044948437047000000100240DE
:1009A00000127A002024000800093D002DE9F84FCC
:1009B000040070D02078C04DC00749D06868C0F3EB
:1009C0008100012807D06868C0F38100022809D19E
:1009D0006868C00306D52868800339D56068002898
:1009E000E7D035E06068B0F5803F0BD010B1B0F5CE
:1009F000A02F11D0286820F480302860286820F4C7
:100A0000802002E0286840F480302860606890B15F
:100A1000FFF752FE06460AE0286840F4802028606E
:100A2000F0E700BFFFF748FE801B642873D82868F2
:100A30008003F7D50CE0FFF73FFE064605E000BF58
:100A4000FFF73AFE801B6428F0D828688003F7D4AB
:100A500020789A4E80074FF001094FF0000839D5F1
:100A6000686810F00C0F07D06868C0F38100022896
:100A700009D16868C00306D42868800714D52069A6
:100A8000012808D110E02069B0B1C6F80090FFF746
:100A900013FE074605E00AE1FFF70EFEC01B022821
:100AA000C4D828688007F7D52868616920F0F80065
:100AB00040EAC10028600DE0C6F80080FFF7FCFDA9
:100AC000074604E0FFF7F8FDC01B022823D828687A
:100AD0008007F7D4207800072CD57948A169D9B1CF
:100AE000C0F80090FFF7E8FD074604E0FFF7E4FDDB
:100AF000C01B02280FD8686A8007F7D571484FF4E9
:100B0000FA510068B0FBF1F0009000BF0098411E60
:100B10000091FAD20EE080E0C0F80080FFF7CCFD33
:100B2000074604E0FFF7C8FDC01B022875D8686AB5
:100B30008007F7D42078400760D5E8690027C00017
:100B400008D4E86940F08050E861E869012700F0C6
:100B5000805000905C480168C90513D40168834641
:100B600041F480710160FFF7A7FD824606E000BFF7
:100B7000FFF7A2FDA0EB0A0064284ED8DBF80000C6
:100B8000C005F5D5E06801280AD008B1052813D0C2
:100B9000286A20F001002862286A20F0040002E0A0
:100BA000286A40F001002862E06841F2883B98B171
:100BB000FFF782FD82460BE0286A40F004002862BD
:100BC000EEE700BFFFF778FDA0EB0A0159455AD8C0
:100BD000286A8007F6D50CE0FFF76EFD824605E037
:100BE000FFF76AFDA0EB0A0159454CD8286A800737
:100BF000F6D41FB1E86920F08050E861E06988B35D
:100C00006968C1F38101022944D00228C6F86080D6
:100C100004D0FFF751FD044638E034E0FFF74CFD07
:100C2000074604E0FFF748FDC01B02282BD82868C0
:100C30008001F7D4206AB0F5803F05D16868A168CB
:100C400020F4003008436860D4E90801084369686B
:100C500021F4741108436860C6F86090FFF72CFD1A
:100C6000044606E025E000BFFFF726FD001B022832
:100C700009D828688001F7D51BE000BFFFF71CFDED
:100C8000001B022802D90320BDE8F88F28688001E4
:100C9000F4D40EE00128F7D06868226A00F48031AD
:100CA000914204D1616A00F47010884201D00120A1
:100CB000EAE70020E8E7000000100240000042429E
:100CC00080044242100000200070004010B5401E19
:100CD000B0F1807F01D3012010BD4FF0E0246061AE
:100CE0000F21601701F07FFA0020A061072020612A
:100CF000002010BD7047704770B590F83C20012A65
:100D000026D0012480F83C40022280F83D20036870
:100D10005A689D6822F070060A6832435A600D4B8B
:100D200002689A4208D0B2F1804F05D00A4B9A422D
:100D300002D00A4B9A4204D1496825F08003194336
:100D4000916080F83D40002180F83C10084670BD5D
:100D5000022070BD002C014000040040000800404B
:100D600010B5040003D094F83D0010B107E0012055
:100D700010BD002084F83C00204600F01FF802203F
:100D800084F83D00211D206800F0DEFF012084F87A
:100D9000460084F83E0084F83F0084F8400084F860
:100DA000410084F8420084F8430084F8440084F849
:100DB000450084F83D00002010BD000008B5016822
:100DC0001448B1F1804F14D0134A914220D1C16927
:100DD00041F00201C161C069002200F002000090F0
:100DE00011461D20FFF7D4FC1D20BDE80840FFF789
:100DF000C1BCC16941F00101C161C069002200F0BC
:100E00000100009011461C20FFF7C2FC1C20ECE7FB
:100E100008BD0000001002400004004090F83D10A2
:100E2000012901D001207047022180F83D1001689E
:100E3000CA6842F00102CA6000680B49884208D0C3
:100E4000B0F1804F05D00949884202D00849884254
:100E500004D1816801F00701062903D0016841F03F
:100E60000101016000207047002C01400004004097
:100E70000008004070B5044690F83C0000250128A9
:100E800017D0012684F83C60022084F83D002068D9
:100E9000826822F0770222F47F428260086850283C
:100EA00038D00DDC20284FD005DC90B3102811D1AC
:100EB0004AE0022070BD302846D040280AD13BE0ED
:100EC00060282FD070280DD0B0F5805F03D0B0F52A
:100ED000005F12D0012584F83D60002084F83C00BA
:100EE000284670BDCB68D1E90121206800F075FF6C
:100EF0002068816841F0770109E0CB68D1E90121E0
:100F0000206800F06AFF2068816841F480418160B8
:100F1000E1E719E0CA684968206801F013F8502138
:100F2000206806E0CA684968206801F01CF8602162
:100F3000206800F05CFFCEE7CA684968206801F0CD
:100F400001F840212068F4E7226801461046F0E7E6
:100F500070472DE9F04104460068C66805694FF006
:100F60000007A90713D5B10711D5F91E01610120AA
:100F70002077206880698007204602D0FFF7E8FFCD
:100F800004E000F0A3F8204600F035F92777680761
:100F900016D5700714D521686FF00400086102208F
:100FA00020772068806910F4407F204602D0FFF748
:100FB000CFFF04E000F08AF8204600F01CF9277704
:100FC000280715D5300713D521686FF00800086190
:100FD000042020772068C0698007204602D0FFF7F0
:100FE000B7FF04E000F072F8204600F004F927771C
:100FF000E80616D5F00614D521686FF010000861D8
:10100000082020772068C06910F4407F204602D075
:10101000FFF79EFF04E000F059F8204600F0EBF8DF
:101020002777E80708D0F00706D021686FF00100A5
:101030000861204600F02EF9280608D5300606D5AE
:1010400021686FF0800008612046FFF753FE6806B4
:1010500008D5700606D521686FF04000086120466B
:1010600000F030F9A8060AD5B00608D521686FF05F
:10107000200008612046BDE8F041FFF73CBEBDE816
:10108000F081000000B585B000210091019102912E
:1010900003910068B0F1804F11D10A48816941F095
:1010A000040181618069694600F004000490032016
:1010B00000900220019003900348FFF703FA05B067
:1010C00000BD00000010024000080140704770B5EC
:1010D000044690F83C0000260D4601280FD0012060
:1010E00084F83C006AB1042A1DD0082A2FD00C2AAB
:1010F0003FD00126002084F83C00304670BD02201D
:1011000070BD206800F07CFE2068816941F0080114
:1011100081612068816921F0040181612068816911
:101120002A69114311E0206800F092FE206881696D
:1011300041F4006181612068816921F480618161ED
:10114000206881692A6941EA02218161D2E7206829
:1011500000F0AAFE2068C16941F00801C161206861
:10116000C16921F00401C1612068C1692A69114384
:1011700011E0206800F0C4FE2068C16941F40061FC
:10118000C1612068C16921F48061C1612068C169C1
:101190002A6941EA0221C161ACE710B5040003D01D
:1011A00094F83D0010B107E0012010BD002084F844
:1011B0003C00204600F01EF8022084F83D00211D6E
:1011C000206800F0C1FD012084F8460084F83E004C
:1011D00084F83F0084F8400084F8410084F842001D
:1011E00084F8430084F8440084F8450084F83D0006
:1011F000002010BD7047704710B50446022249B167
:1012000004290ED0082913D094F84100012816D0E3
:10121000012010BD94F83E000128F9D184F83E2049
:101220000FE094F83F000128F2D184F83F2008E055
:1012300094F840000128EBD184F8402001E084F8C4
:1012400041200122206800F0BBFD0F492068884240
:1012500003D1426C42F4004242642068884208D0C4
:10126000B0F1804F05D00949884202D00849884230
:1012700004D1816801F00701062903D0016841F01B
:1012800001010160002010BD002C0140000400405D
:101290000008004010B50068084988420CD100F0F1
:1012A000B3FC07484178491CC9B24170052903D3F2
:1012B000002141700121017010BD000000040040B8
:1012C000000000207047704770470000F8B50168C3
:1012D00004460868CA684B6910F00F0F4FF000050C
:1012E00059D003F0010602F49077374365D0C10767
:1012F00005D0D10503D5616C41F00101616441075E
:1013000005D5D90703D0616C41F002016164810702
:1013100005D5D90703D0616C41F004016164010770
:1013200007D502F02001314303D0616C41F0080180
:101330006164616C00293AD0800604D5900602D51C
:10134000204600F051FE20684069616CC0F38010B7
:10135000090700D460B3204600F01FFE20684069F2
:10136000400621D52068143050E8001F21F04001CC
:1013700040E80012002AF5D1E06BA8B16D49416345
:10138000E06BFFF725F8002811D0E06B416B01B04E
:10139000BDE8F040084783060FD593060DD52046DB
:1013A000BDE8F84000F020BE2046FFF78DFFF8BDF5
:1013B0002046FFF789FF6564F8BD266B2023012EC8
:1013C0007CD1C6067AD5D60678D5086848680090DC
:1013D00048694FF00206400640D5E16B0868406856
:1013E0000004000CE8D0A28D8242E5D9E08588692E
:1013F00020282DD020680C3050E8001F21F4807187
:1014000040E80012002AF5D12068143050E8001F8F
:1014100021F0010140E80012002AF5D120681430C3
:1014200050E8001F21F0400140E80012002AF5D1E9
:1014300084F84230256320680C3050E8001F21F00A
:10144000100140E80012002AF5D1E06BFEF79CFF86
:101450006663A08DE18D401A81B22AE0A08DE18DF6
:10146000401A81B2E08D0028A6D00029A4D02268BD
:101470000C3252E8000F20F4907042E80007002F71
:10148000F5D12068143050E8002F22F0010240E826
:101490000027002FF5D184F84230256320680C30F6
:1014A00050E8002F22F0100240E80023002BF5D175
:1014B00066632046FFF707FFF8BDFFE705062BD55B
:1014C000150629D594F841002128F5D1A068B0F57A
:1014D000805F01D12069B0B1206A411C216221687E
:1014E00000784860E08C401E0004000CE084E3D1EA
:1014F0002068C16821F08001C1602068C16841F0A6
:101500004001C160D8E7206A0088C0F30800486045
:10151000206A801C2062E5E74006CDD55006CBD579
:10152000CA68204622F04002CA6084F8413000F0C8
:10153000C6F8C1E78B1F000870B5040004D094F80A
:101540004100002510B106E0012070BD84F8405034
:10155000204600F023F8242084F841002068C16868
:1015600021F40051C160204600F0A0FD206801690F
:1015700021F4904101612068416921F02A01416113
:101580002068C16841F40051C1606564202084F87E
:10159000410084F842006563002070BD30B585B01D
:1015A000002400940194029403940068184988422E
:1015B0002CD11848C16941F48021C161C16901F48D
:1015C00080210491816941F0080181618069124D97
:1015D00000F0080004904FF4806000900220019019
:1015E0000320039069462846FEF76CFFE814CDE916
:1015F0000004694628460294FEF764FF0022114663
:101600002720FFF7C5F82720FFF7B4F805B030BD55
:101610000048004000100240000C014070472DE9D6
:10162000F843044690F84100984616460D46202897
:1016300002D00220BDE8F88385B17EB1002060644D
:10164000212084F84100FFF737F8A6848146E6841C
:10165000A0682027B0F5805F02D003E00120E9E711
:10166000206910B12E4600250EE000260CE08021F6
:10167000204600F077FDA8B9C6B116F8010B216825
:101680004860E08C401EE084E08C4B464FF0000246
:10169000CDF800800028EAD14FF04001204600F04C
:1016A00061FD40B184F841700320C3E735F8020BB7
:1016B000C0F30800E3E784F841700020BAE7704700
:1016C000FEE70000F0B585B0002430480094019496
:1016D00002940394816941F010018161816901F0F4
:1016E00010010491816941F020018161816901F05B
:1016F00020010491816941F004018161816901F057
:1017000004010491816941F0080181618069204FE1
:1017100000F008004FF470760490002231463846FD
:10172000FEF7C5FF142000901A480125CDE90105F8
:1017300069463846FEF7C6FE28208DE83100694626
:101740003846FEF7BFFE0220CDE90240CDE9006534
:1017500069463846FEF7B6FEF8208DE83100694646
:101760000D48FEF7AFFE002211460820FFF710F8E3
:101770000820FEF7FFFF002211460A20FFF708F8B5
:101780000A20FEF7F7FF05B0F0BD00000010024090
:101790000008014000002110000C014010B58EB07F
:1017A00000240794089409940A940B941C21684619
:1017B0000C94FEF7BEFC22484FF0804101604721A7
:1017C000C0E9011444F61F61C0E90314802181615E
:1017D000FFF7C6FA08B1FEF7D5FD4FF48050079029
:1017E00007A91748FFF746FB08B1FEF7CBFD1448E1
:1017F000FFF7D3FC08B1FEF7C5FD0B940BA9104809
:101800000C94FFF779FA08B1FEF7BCFD6020CDE932
:10181000000402940022694609480494FFF757FC2B
:1018200008B1FEF7AFFD042269460548FFF74FFCFB
:1018300008B1FEF7A7FD0248FFF724FC0EB010BD6B
:101840003000002010B586B00024174800940194A1
:1018500002940394049413490594016041F61F41D6
:10186000C0E901146321C0E9031480218161FFF7FD
:1018700077FA08B1FEF786FD4FF480500090694674
:101880000948FFF7F7FA08B1FEF77CFD049404A9B4
:1018900005480594FFF730FA002801D0FEF772FDE5
:1018A00006B010BD00040040780000200C4810B5C0
:1018B0000A4901604FF4E1314160002181600C224E
:1018C000C160C0E904128161C161FFF735FE0028E3
:1018D00003D0BDE81040FEF755BD10BD00480040E4
:1018E000C0000020FEE7000070B582B200210A4867
:1018F00000F07CFD094C0A4D402122782846FEF775
:10190000D6FE207830B100222846BDE87040802104
:10191000FEF7CDBE0122F7E7300000201C000020BA
:101920000008014070B582B204210C4800F05EFD51
:101930000B4C0C4D4FF4807162782846FEF7B7FED1
:10194000607840B15FF000022846BDE870404FF477
:101950000071FEF7ACBE0122F6E700003000002067
:101960001C000020000801402DE9F0410C460E4902
:101970000E4D01260027002801DB0E7001E00F70DC
:101980004042FEF777FC2860084D09483435002CAA
:1019900002DB0670204601E007706042FEF76AFC39
:1019A0002860BDE8F08100001C0000200801002034
:1019B0001D000020FEE770B500240021204600F045
:1019C000EFF80025002000F00DF96D1CEDB2802D20
:1019D000F8D3641CE4B2082CEFD370BD10B586B008
:1019E000002002901048816941F0080181618069FE
:1019F0000E4C00F0080004904FF44070009011204D
:101A000001900320039069462046FEF75BFD01220A
:101A100011022046FEF74BFE012251022046FEF73E
:101A200046FE06B010BD000000100240000C014050
:101A30002DE9F047144E002407464FF080084FF47C
:101A40000079B51528FA04F23A4049463046FEF7C7
:101A50002EFE012229463046FEF729FE00222946A5
:101A60003046FEF724FE641CE4B2082CEAD30122BF
:101A700029463046FEF71BFE29463046BDE8F047B2
:101A80000022FEF714BE0000000C014070B50122D8
:101A90000B4D540221462846FEF709FE012216028C
:101AA00031462846FEF703FE002221462846FEF76F
:101AB000FEFD31462846BDE870400022FEF7F7BD26
:101AC000000C014070B50A4D4FF40074002221460D
:101AD0002846FEF7ECFD012211022846FEF7E7FD3D
:101AE00021462846BDE870400122FEF7E0BD000017
:101AF000000C014010B500204FF47A720021491CFF
:101B00009142FCD3401C9042F8D3FFF767FFAE2010
:101B100000F057F8D52000F054F8802000F051F87C
:101B2000A82000F04EF83F2000F04BF8D32000F042
:101B300048F8002000F045F8402000F042F8A120CD
:101B400000F03FF8C82000F03CF8DA2000F039F847
:101B5000122000F036F8812000F033F8CF2000F09A
:101B600030F8D92000F02DF8F12000F02AF8DB2021
:101B700000F027F8302000F024F8A42000F021F82D
:101B8000A62000F01EF88D2000F01BF8142000F0B5
:101B900018F8AF2000F015F8BDE81040FFF70BBFB4
:101BA00010B50C4640F0B00000F00BF8102040EAF1
:101BB000141000F006F804F00F00BDE81040AFF379
:101BC000008010B50446FFF761FF7820FFF730FF73
:101BD0000020FFF72DFF2046FFF72AFFBDE8104049
:101BE000FFF770BF10B50446FFF750FF7820FFF7EE
:101BF0001FFF4020FFF71CFF2046FFF719FFBDE83D
:101C00001040FFF75FBF00002DE9F041DFF8908042
:101C1000244A264ED8F80800136806F13407184401
:101C2000214BC8F80800D8F80C401D682544002452
:101C3000C8F80C5014601C60B8F80420521C92B212
:101C4000A8F80420052A17D31949097841B100BF23
:101C5000FEF710FB70601748007818B1284602E0C4
:101C60004042F5E76842FEF705FB7860C8F8084097
:101C7000C8F80C40A8F804400C4800F04FFB0B4893
:101C8000343000F04BFBF06AFEF7FDFAFFF72CFE54
:101C9000F86AFEF7F8FABDE8F041FFF743BE00002E
:101CA000200000201400002018000020080100205F
:101CB0001C0000201D00002010B5029C01631430A0
:101CC00080E81C0010BD70477047FEF7FBBC30B5C4
:101CD0008FB028216846FEF72CFA14210AA8FEF7D7
:101CE00028FA01210804CDE90010002402940225FD
:101CF0000491CDE907504FF4E01009906846FEF7D3
:101D000055FE08B172B6FEE70F20CDE90A054FF483
:101D10008060CDE90C4002210AA80E94FEF76AFD0E
:101D2000002801D072B6FEE70FB030BD704700004A
:101D30000148FFF70EB90000300000200148FFF70E
:101D400008B9000078000020F0B50268194B1A4C61
:101D50001A4D4FF08047984205D0B84203D0A042B8
:101D600001D0A84203D122F070064A68324398425B
:101D700005D0B84203D0A04201D0A84203D122F43A
:101D80004074CA6822434C6922F0800222430260F8
:101D90008A68C2620A688262984201D10969016355
:101DA000012141610169C90703D0016921F00101E5
:101DB0000161F0BD002C014000040040000800401B
:101DC00010B501F01F030121046A99408C4304629D
:101DD000016A9A401143016210BD10B5846842EA5D
:101DE000032224F47F440A432243826010BD8268A8
:101DF00022F070020A4342F0070181607047000040
:101E000030B5036A026A22F0010202624268846904
:101E100024F073050C682C4323F002058B682B43D8
:101E20000A4DA8420BD123F00805CB6822F440727A
:101E30002B434D6923F0040315438A692A4342600A
:101E4000846149684163036230BD0000002C014099
:101E500030B5026A036A23F01003036243688469A1
:101E60000D6824F4E64444EA05248D6822F020023B
:101E700042EA05120B4DA8420ED1CD6822F0800235
:101E800042EA05124D6923F4406343EA85038D69F4
:101E900022F0400243EA850343608461496881631C
:101EA000026230BD002C014030B5036A026A22F4A0
:101EB000807202624268C46923F4007324F07305DF
:101EC0000C682C438D6843EA05230C4DA8420ED1C3
:101ED000CD6823F4006343EA05234D6922F44052A0
:101EE00042EA05128D6923F4806342EA05124260DA
:101EF000C4614968C163036230BD0000002C014029
:101F000030B5046A026A22F4805202624268C369F0
:101F10000D6823F4E64343EA05238D6824F4005456
:101F200044EA0534064DA84204D14D6922F48042AA
:101F300042EA85124260C36149680164046230BDAF
:101F4000002C014010B5036A046A24F00104046205
:101F5000846924F0F00444EA021423F00A020A43DC
:101F60008461026210BD10B5036A046A24F0100493
:101F70000462846923F0A00324F4704444EA02322A
:101F800043EA01118261016210BD10B5406A00216F
:101F9000C185C184FFF798F910BD01680C3151E883
:101FA000002F22F4907241E80023002BF5D1016844
:101FB000143151E8002F22F0010241E80023002BE8
:101FC000F5D1016B012909D101680C3151E8002FCD
:101FD00022F0100241E80023002BF5D1202180F8E7
:101FE000421000210163704708B590F84210222981
:101FF00001D0022008BD82684FF480539A4201D17B
:10200000016921B1816A9A421BD04AB10AE0026893
:10201000816A5268C2F308020A80816A891C08E05A
:10202000026972B10268526802F07F020A70816A26
:10203000491C8162C18D491E0904090CC18503D068
:102040001BE002685268F1E70168CA6822F02002CA
:10205000CA600168CA6822F48072CA6001684A696D
:1020600022F001024A61202180F8421000214163E0
:10207000026B012A03D0FFF7D1FA002008BD0163EB
:1020800001680C3151E8002F22F0100241E80023D2
:10209000002BF5D101680A68D20602D50A684968A2
:1020A0000091818DFFF70FF9E7E7000070B5044656
:1020B00000680169E26821F440511143016121691E
:1020C000A0680843616908432168CA6841F20C634B
:1020D0009A430243CA6020684169A26921F44071B1
:1020E000114341611E492068884202D1FEF728FC55
:1020F00001E0FEF715FC00EBC00101EB0012606887
:1021000064218000B2FBF0F3B3FBF1F36FF018062B
:102110007343B2FBF0F5B2FBF0F605EB8305322317
:1021200003EB0515B5FBF1F5B6FBF1F605F0F0058F
:1021300005EB0615B2FBF0F6B2FBF0F0B0FBF1F0E8
:102140006FF01802504306EB800003EB0010B0FB69
:10215000F1F0216800F00F002844886070BD000095
:10216000003801402DE9F843984617460D460446CD
:10217000089E24E0701C22D0FEF79EFAA0EB080017
:10218000B0421AD8CEB12068C168490717D5802D52
:1021900015D0402D13D00168C94309070FD4016839
:1021A0000025406800902046FFF7F7FE0820606495
:1021B00084F840500120BDE8F8830320FBE7206845
:1021C000006835EA000004D00020B842D2D00020D8
:1021D000F1E70120F9E700000148FFF777B80000B8
:1021E000C0000020FEE70907090E002804DB00F10B
:1021F000E02080F80014704700F00F0000F1E020AC
:1022000080F8141D704702E008C8121F08C1002A98
:10221000FAD170477047002001E001C1121F002A67
:10222000FBD17047F8B5174C2068FEF745F8064615
:102230006068FEF741F804F1340705463868FEF798
:102240003BF804467868FEF737F88DF800608DF8A3
:1022500001508DF802408DF803000A2302220A493A
:102260000A48FFF7DCF90A23042269460748FFF70A
:10227000D6F905490A230222891C0448FFF7CFF941
:10228000F8BD00000801002020000020C000002050
:1022900008B5FEF71FFAFFF71AFDFFF713FAFFF76D
:1022A0007DFAFFF7CFFAFFF701FB00211448FEF794
:1022B000A3FF04211248FEF79FFF1248FEF7AEFD70
:1022C000114C124E0025234632460121104800953C
:1022D000FFF7F2FC2346324601210E480095FFF736
:1022E000EBFCFFF707FC1E210846FFF73DFB0A4CFD
:1022F00020780028FCD02570FFF794FFF8E7000055
:102300003000002078000020000070410000A04054
:10231000080100203C010020000000202DE9F047CA
:102320000446D4E90001FDF761FF0646A060206B7A
:10233000E568012801D038B346E029463046FDF76C
:1023400055FF6169FDF758FF814620623146A0695B
:10235000FDF752FF8046A06201212846FDF77EFF6F
:102360003146FDF746FF2169FDF7EEFEE169FDF715
:1023700043FF0746606241464846FDF7E5FE3946A1
:10238000FDF7E2FEE16A1CE031466069FDF734FFCB
:10239000814620623146A069FDF72EFFA16AFDF754
:1023A000D3FE8046A06229463046FDF71FFFE16953
:1023B000FDF722FF0746606241464846FDF7C4FE2E
:1023C0003946FDF7C1FEE062C4E903650649E06AEB
:1023D000884202DBE162BDE8F087B0F5000FFADA6F
:1023E0000020E062F7E700000050434710B54CF2D0
:1023F00050339A4200D31A460068C46A641C624390
:10240000B2FBF3F229B1042905D0082905D00264F2
:1024100010BD426310BD826310BDC26310BD0102D6
:1024200002030405060708090A0B0C0D0E0F101015
:102430000000000000000000010203040607080974
:1024400000000000010203046824000800000020CE
:102450003000000006220008982400083000002008
:1024600040050000162200080000000001000000E6
:10247000100000000000000000127A0000000000C0
:10248000000000000101000003FCFC03000000004C
:08249000000000000000000044
:04000005080000ED02
:00000001FF
